:20000000BFCCA7C0D3C0A5C0A4C0A3C0A2C0A1C0A0C09FC09EC09DC09CC09BC09AC00902D6
:200020001200010100A0FA09040000000000000012035700650062004C006900670068004E
:200040007400160373006F0077006200750067002E0063006F006D000403090412011002D6
:20006000FF000008091200A8090001020301040035001A0368747470733A2F2F736F7762CA
:2000800075672E6769746875622E696F1703687474703A2F2F6C6F63616C686F73743A3820
:2000A000303030230368747470733A2F2F736F776275672E6769746875622E696F2F776566
:2000C000626C696768740A000000000003061E001400030057494E55534200000000000086
:2000E00000000000050F3800021710050038B60834A909A0478BFDA0768815B6650001FE6E
:200100001C100500DF60DDD88945C74C9CD2659D9E648A9F000003061E00FC0011241FBE09
:20012000CFE5D2E0DEBFCDBF10E0A0E6B0E0EAE4F9E102C005900D92A638B107D9F721E025
:20014000A6E8B0E001C01D92AD3CB207E1F7CDD2FACB56CFA82FB92F80E090E041E050EA24
:20016000609530E009C02D9182279795879510F084279527305EC8F36F5FA8F30895EADF83
:200180008D939D930895A6E088279927AA9569F00197E1F3B399FCCFB39BFECF81E0992726
:2001A000A6B3019611F0A871D9F70895CF93CFB7CF93C395B39BE9F7B39B0BC0B39B09C0C8
:2001C000B39B07C0B39B05C0B39B03C0B39B01C0D3C00F92DF93C091F800DD27C150DF4FA5
:2001E000012EB39B03C0DF910F90E6CF2F930F931F934F932FEF4F6F06B303FB20F95F9365
:200200003F9350E03BE065C016B30126502953FDC89556B3012703FB25F92F7306B3B1F03D
:200220005027102713FB26F906B22230F0F000C016B3012703FB27F90126502906B224307E
:20024000E8F54F77206816B30000F6CF50274F7D206206B2102F000000C006B30026502911
:20026000102713FB26F906B2E2CF4F7B06B3206400C0DACF01265029187106B269F14E7F39
:200280002160012F16B328C0002650294D7F06B22260102F29C0012650294B7F06B2246089
:2002A000012F2DC016B301265029477F2860000006B22EC04F7E06B3206130C0422706B3AB
:2002C000499300265029102706B24FEF13FB20F9297F16B379F2187159F10126502906B248
:2002E000012703FB21F9237F06B371F2002650293150D0F006B2102713FB22F9277E16B39A
:2003000051F201265029012703FB06B223F92F7C49F2000006B3102713FB24F90026502960
:2003200006B22F7939F270CF10E21ABF002717C03B503195C31BD04010E21ABF0881033C58
:20034000F9F00B34E9F02091F6001981110F1213EDCF093651F10D3211F0013E39F7009397
:20036000FD003F915F914F911F910F912F91DF910F90CAB7C5FD1DCFCF91CFBFCF91189597
:200380002091FD00222369F31091FB00112321F5343022F13093FB002093F7001091F800B0
:2003A0003BE0311B3093F80019C00091FB0001309CF40AE53091620034FD11C000936200EC
:2003C000CBEED0E010C0052710E000C021C0052710E0C89508BB14C03AE501C032ED032EE7
:2003E000C0E0D0E032E017B31861C39A08B317BB58E120E84FEF20FF052708BB2795179579
:200400001C3F28F700004552B0F720FF0527279508BB17951C3FB8F629913A9561F7077E3F
:200420001091FC00110F08BBC250D04011F01093F60010E21ABF086017B3177E402F477EBA
:2004400054E05A95F1F708BB17BB48BB8ACFCF93DF936091FB00635067FDB8C08091F80048
:20046000CCE0D0E0C81BD109C150DF4F8091F7008D3209F097C0683009F0A6C083EC809394
:20048000EB008AE580936200109287008881807619F0CE0106D36EC09A811092F4008981CB
:2004A000811107C01092F50024EF30E082E090E05DC0853019F49093FC0045C08630E9F5C0
:2004C0008B81813019F48CE590E004C0823051F48EE190E09093FA008093F90020E482E147
:2004E00090E028C0833019F591110AC088E590E09093FA008093F90020E484E090E01AC0BF
:20050000913051F482E490E09093FA008093F90020E486E190E00EC0923019F480E390E08B
:20052000D9CF933021F4CE0189D220E003C0CE0185D220E4209387001DC0883099F0893013
:2005400039F49093FE0024EF30E080E090E00EC031E020E08A3009F030E0832F922F24EF32
:2005600030E004C02EEF30E081E090E03093FA002093F9008F3F2FEF920749F4288127FFAF
:2005800002C08E819F8120E82093870006C02E813F812817390708F4C90190936100809317
:2005A000600012C08091870087FF0EC0CE011CD38F3F21F48EE18093620006C0882321F016
:2005C00010926100109260001092FB008091620084FF6BC080916000909161008F3F2FEF79
:2005E000920709F462C0BC018930910510F068E070E0861B970B9093610080936000809154
:20060000EB0098E889278093EB00C62F6623B1F18091870087FF07C08CEE90E0C0D2C82F49
:200620008930D0F52BC02091F9003091FA0086FF12C0ACEEB0E04BEE50E040955095420FF7
:20064000531F862F8A0FFA01EA0FFB1FE491ED938A13F9CF09C0ECEEF0E0D901862F8E0FD3
:200660009D9191938E13FCCF2F5F3F4F8FEF8C0F280F311D3093FA002093F9006C2F8CEE84
:2006800090E07DDDCC5FCC3071F02FEF3FEF309361002093600007C08FEF9FEF909361002E
:2006A00080936000CEE1C093620084E196B3987131F48150D9F71092FC001092F600C1E00F
:2006C0008111C0E0809186008C1739F0C11103C0F89430D07894C0938600DF91CF91089512
:2006E000AC9A8BB780628BBF0895CF93DF931F92CDB7DEB72EE088E190E00FB6F894A89596
:2007000081BD0FBE21BDECDFBB9A8BEF815039F0ECE1F0E13197F1F700C00000F7CF78947C
:20072000BB98CE01019653D092DECE01019657D0A895FACFAF92BF92CF92DF92EF92FF9264
:200740000F931F93CF93DF93C12C2FE7A22ECFE0D7E23CECE32E36EFF32EC11002C0D12C27
:2007600002C090E8D92E07E010E080E4B82E80E090E08433994014F4DB0C01C0DB18D1BE85
:2007800002DD853329E0920724F09C012453394003C09701281B390B2C173D0714F4AD2C35
:2007A000E901B694015011090115110511F7C39482E0C812D2CFA1BEDF91CF911F910F91B3
:2007C000FF90EF90DF90CF90BF90AF900895E9D08EE080BF81E28EBD24D074D7FCC6CF939B
:2007E000DF9308B606FE1AC088B7806488BF8FB590E0982F88279295990F907E68EE73E0D1
:2008000079D7EB011FBC10D18230910528F0029729F4CE0147D302C0CE01EED6DF91CF91BC
:2008200068C0CF93DF93CDB7DEB760970FB6F894DEBF0FBECDBF40E150E066E070E0CE01AF
:20084000019648D8FE013196A5E6B0E0CE014196219130E02D933D93E817F907C9F7609653
:200860000FB6F894DEBF0FBECDBFDF91CF910895EF92FF921F93CF93DF931F92CDB7DEB762
:200880007C0186E190E0698335D89FEF980F69819E3F60F4182F681708F4162F412F50E014
:2008A00067E170E0C70116D8812F01C080E00F90DF91CF911F91FF90EF9008951F93CF933B
:2008C000DF93EC01162F86E190E02BD88FEF810F8E3F48F4412F50E067E170E0CE01DF910C
:2008E000CF911F910FC8DF91CF911F91089582E0089580918A00882339F010928A0062E018
:2009000070E08BE890E03DC308950F931F93CF93DF93EB018A01E82FF0E0CF0163E070E01E
:20092000D8D6DC01A557BF4F12968C911297888311968C91D8018C93CF0163E070E0C9D6EB
:2009400085579F4FFC018081D9018C93DF91CF911F910F910895362FE82FF0E0CF0163E0BA
:2009600070E0B7D6DC01A557BF4F12963C93129711964C931197FD01208381E080938A00C6
:20098000089580938D0060938C0040938B0091E090938A008093900060938F0040938E0099
:2009A000089510928D0010928C0010928B0081E080938A001092900010928F0010928E007F
:2009C00098CF0F931F93CF93DF93182FEADFC0E000E2D1E0C11719F110928D0010928C0006
:2009E00000938B00D0938A0084DF81E291EA0197F1F700C0000010928D0010928C0010926C
:200A00008B00D0938A0075DF97EB22E881E0915020408040E1F700C00000CF5FDBCFDF913C
:200A2000CF911F910F9108958091880090918900089590938900809388000895FC01238104
:200A4000233059F02F30B1F484EE90E09093FA008093F90088E390E00895FC0182818330C0
:200A600049F483E690E09093FA008093F90082E290E0089580E090E0089583E0A2DF28E06D
:200A800088E190E00FB6F894A89581BD0FBE21BDFFCF892B29F48DD5FED182E090E0C9CFCC
:200AA0000895FC016181609318018281938190939A008093990024813581309398002093C5
:200AC000970041E950E05093FA004093F9006730B9F1C0F4643088F4613028F582818093B3
:200AE000910083818093920084818093930085818093940084E090E008956530E9F0F0F4A1
:200B000046D54AC06A3001F138F46830D9F0693009F042C0D7D540C06D3FE9F16E3FB1F083
:200B20006C3FD1F52DC0109296008681813408F080E48093950021C045D52EC04CD52CC069
:200B400038D52AC0BAD528C0A4DF26C02130310559F02230310501F583EA90E09093170158
:200B60008093160183E207C08EE690E0909317018093160185E3809315018FEF9FEF08959C
:200B80002730310549F486EC90E090931701809316018EE1F0CF71DF80E090E008951F93A7
:200BA000CF93DF9320911501162F261708F4122FC12FD0E06091160170911701AE0181D614
:200BC00020911601309117012C0F3D1F309317012093160180911501811B80931501812F9C
:200BE000DF91CF911F91089520919500261708F4622F261B2093950030919600482FFC0174
:200C0000932F981BA92FAE0F8E2F841B861730F48191B0E0A556BF4F8C93F4CF630F6093BB
:200C20009600211136C0809118018230A9F0833001F1813071F5FAD2811101C0BAD460E0D8
:200C400070E080E090E034D440919D0060919C0080919B00EED21DC0E9D28823D1F08091F0
:200C60009B0090E0982F882720919C00822B5ED410C0DCD2811101C09CD460919C0070E0A9
:200C8000762F662780919D00682B80919B0090E00FD481E090919500911180E008954F924B
:200CA0005F926F927F928F929F92AF92BF92CF92DF92EF92FF920F931F93FC0184809580FF
:200CC000A680B780B501A40185E076956795579547958A95D1F7950184019BE1000F111F6B
:200CE000221F331F9A95D1F7402B512B622B732B0081118122813381041B150B260B370B3C
:200D0000C084D184E284F384B701A601AFE07695679557954795AA95D1F726013701B1E1A8
:200D2000440C551C661C771CBA95D1F74429552966297729482559256A257B2540835183FB
:200D40006283738384849584A684B784C80CD91CEA1CFB1CC482D582E682F782800E911E91
:200D6000A21EB31E80869186A286B386CB01BA01600F711F821F931F648775878687978779
:200D80001F910F91FF90EF90DF90CF90BF90AF909F908F907F906F905F904F9008950F9330
:200DA0001F93CF93DF93EC010DEE1EE52AEE31EF088319832A833B834C875D876E877F8746
:200DC000488759876A877B874C835D836E837F8300E010E0CE0163DF0F5F1F4F04311105C7
:200DE000C9F7DF91CF911F910F9108958F929F92AF92BF92CF92DF92EF92FF926B017C01C5
:200E0000F694E794D794C79425E5C222D222E222F222DC01CB018C199D09AE09BF09AC01ED
:200E2000BD0143735373637373736C017D0132E0F694E794D794C7943A95D1F783E3C8220D
:200E4000D822E822F822C40ED51EE61EF71EC701B60144E096958795779567954A95D1F7FD
:200E60006C0D7D1D8E1D9F1D6F707F708F709F7021E031E0A9016FD449015A018B2D992700
:200E8000AA27BB27FF90EF90DF90CF90BF90AF909F908F9008954FB550E060E070E089E11C
:200EA00091E07DCFCF92DF92EF92FF920F931F93CF93DF938091DB0091E0980F9093DB0067
:200EC000833008F443C01092DB00C0E0D0E000E110E0E8E0EE2EF12CCC24C394D12C07DD99
:200EE00090E0C817D90794F589E191E0D8DE7EDF9801281B390B37FF03C03195219531097D
:200F0000C901959587950496AA2797FDA095BA2F88309105A105B10520F088E090E0A0E092
:200F2000B0E0A701481B590BC60102C0880F991F4A95E2F7AC019C013595279535952795CC
:200F4000405C60E88C2F07DD2196C9CFDF91CF911F910F91FF90EF90DF90CF900895B89AD4
:200F6000BA9AC298089598E087FD02C0C09801C0C09AC29A880F00000000C2989150A1F72F
:200F80000895CF92DF92EF92FF920F931F93CF93DF93EC018B01E3DF80E0E5DF80E0E3DF27
:200FA00080E0E1DF80E0DFDF2296C12CD12C7801EE0CFF1CE00EF11ECE14DF0488F48FEF07
:200FC000D2DFFE0132978081CEDFFE0131978081CADF8881C8DF83E0C80ED11C2396ECCF2F
:200FE000C0E0D0E0C017D10720F48FEFBCDF6096F9CFDF91CF911F910F91FF90EF90DF906A
:20100000CF9008959091EA00980F9093EA008091E900981710F01092EA0008952091E900A9
:2010200090E0820F911D8038910514F08FEFC9CC08954F925F926F927F928F929F92AF9288
:20104000BF92CF92DF92EF92FF92CF93DF93CDB7DEB728970FB6F894DEBF0FBECDBF809157
:20106000DE009091DF00C090E500D090E600C816D90638F48C199D099093DF008093DE00F0
:2010800004C01092DF001092DE008091DE009091DF00892B21F51092E000C0902901D09076
:2010A0002A01E0902B01F0902C01CD2CDE2CEF2CFF24E7FCFA948091BD019091BE01A0912A
:2010C000BF01B091C001692F7A2F8B2F992787FD9A954C2D8091C20154DC80E092C08091A0
:2010E000E3009091E400019709F08AC0E12CF12CC701B6012091B9013091BA014091BB0110
:201100005091BC0126D329833A834B835C834090310150903201609033017090340129810A
:201120003A814B815C81420E531E641E751E40923101509232016092330170923401C70137
:20114000B6012091C9013091CA014091CB015091CC01FFD229833A834B835C838090B501D9
:201160009090B601A090B701B090B80189819A81AB81BC81880E991EAA1EBB1E8092B50173
:201180009092B601A092B701B092B801C701B60120912D0130912E0140912F015091300130
:2011A000D8D229833A834B835C836D837E838F8398878091C5019091C601A091C701B09154
:2011C000C80129813A814B815C81820F931FA41FB51F8093C5019093C601A093C701B0935D
:2011E000C801C92EDA2EEB2EFF24E7FCFA949927B7FC9A958B2D7A2D692D4C2D852DC1DB1C
:2012000081E028960FB6F894DEBF0FBECDBFDF91CF91FF90EF90DF90CF90BF90AF909F90FF
:201220008F907F906F905F904F9008958091E70008954F925F926F927F928F929F92AF920A
:20124000BF92CF92DF92EF92FF920F931F93CF93DF93CDB7DEB72F970FB6F894DEBF0FBE97
:20126000CDBF182FE62EF42E8091E7008823F9F084E0D4DEE091E900AE2FB0E0AB5CBE4FE8
:201280001C92A1E0AE0FB0E0AB5CBE4F1C93A2E0AE0FB0E0AB5CBE4FEC9284E08E0F80939A
:2012A000E900ED5FF0E0EB5CFE4FF082EAC081E08093E0008091E1009091E2009093DF002E
:2012C0008093DE009E012F5F3F4FAE014E5F5F4FBE016D5F7F4F80E018DB6B8170E0762FCB
:2012E0006627CB01AA2797FDA095BA2F8093310190933201A0933301B09334014A80512C51
:20130000542C4424662457FC6094762C4092B5015092B6016092B7017092B801298130E032
:20132000322F22275901CC24B7FCC094DC2CAC82BD82CE82DF82A092C501B092C601C09239
:20134000C701D092C801012F10E0102F00279801442737FD4095542F2C873D874E875F8752
:201360002093C1013093C2014093C3015093C4014E2D50E0542F44275A01CC24B7FCC09448
:20138000DC2CA886B986CA86DB86A092BD01B092BE01C092BF01D092C0018F2C912C982CC5
:2013A0008824AA2497FCA094BA2C8092290190922A01A0922B01B0922C01C090E100D0901F
:2013C000E200C114D10409F440C0E12CF12C0C851D852E853F85081B190B2A0B3B0BC90124
:2013E000B801A701960199D12093B9013093BA014093BB015093BC01688579858A859B8557
:201400006419750986099709A701960186D12093C9013093CA014093CB015093CC01C501EC
:20142000B4010C811D812E813F81601B710B820B930BA701960171D120932D0130932E01E7
:2014400040932F015093300118C01092B9011092BA011092BB011092BC011092C901109219
:20146000CA011092CB011092CC0110922D0110922E0110922F01109230018091E0008111FB
:20148000D8DD2F960FB6F894DEBF0FBECDBFDF91CF911F910F91FF90EF90DF90CF90BF9040
:2014A000AF909F908F907F906F905F904F9008951F93CF93DF9300D0CDB7DEB7182F80915F
:2014C000E700882329F184E069837A83A7DD9091E900A92FB0E0AB5CBE4F81E08C93A1E008
:2014E000A90FB0E0AB5CBE4F1C93A2E0A90FB0E0AB5CBE4F7A817C9384E0890F8093E90001
:20150000E3E0E90FF0E0EB5CFE4F6981608308C01093E3009093E4006093E1007093E200D1
:201520000F900F90DF91CF911F9108951F93CF93DF931F92CDB7DEB7182F8091E700882316
:20154000E9F083E099836ADD2091E900A22FB0E0AB5CBE4F82E08C93A1E0A20FB0E0AB5C93
:20156000BE4F99819C9383E0820F8093E900E2E0E20FF0E0EB5CFE4F108304C01093DC0038
:201580009093DD000F90DF91CF911F9108958091E700882369F081E041DDE091E90081E059
:2015A0008E0F8093E900F0E0EB5CFE4F83E0808308951092EA001092E8001092E70080E02C
:2015C00090E037CAF6DF1092E90081E08093E70081E090E02ECAEDDF81E08093E80010924C
:2015E000E0001092E4001092E3001092E2001092E10081E090E01DCA9093E6008093E50040
:201600008091E700811158C08091E000811105C08091E800811105C008950BDD81114CC06D
:20162000F7CF8091E900882309F446C08091DC009091DD000097C1F02091E5003091E600CC
:201640002817390738F4821B930B9093DD008093DC0004C01092DD001092DC008091DC0007
:201660009091DD00892B41F5E091EA00F0E0EB5CFE4F8081813059F4628170E0762F66275F
:201680008381682B818190E013DF84E0BBCC813028F4438162818181CCDDF7CF823049F490
:2016A000818190E0982F88272281822B3FDF83E0EDCF833009F46BCF08956091E90085E3EC
:2016C00091E0FCC860E885E391E0D2D88093E90008950024552704C0080E591F880F991F30
:2016E000009729F076956795B8F37105B9F7802D952F089597FB072E16F4009406D077FDA5
:2017000008D07BD007FC05D03EF4909581959F4F0895709561957F4F0895052E97FB16F4A1
:2017200000940FD057FD05D07CD007FC02D046F408C050954095309521953F4F4F4F5F4FDB
:20174000089590958095709561957F4F8F4F9F4F089568940013E894A0E0B0E0E1EBFBE03E
:201760001DC0EFEFE7F959016A015E23550FEE08FE2C87019B01AC019E23990F660B762FB4
:20178000CB0171D0CDB7DEB7EAE024C02F923F924F925F926F927F928F929F92AF92BF921B
:2017A000CF92DF92EF92FF920F931F93CF93DF93CDB7DEB7CA1BDB0B0FB6F894DEBF0FBE7E
:2017C000CDBF09942A88398848885F846E847D848C849B84AA84B984C884DF80EE80FD8097
:2017E0000C811B81AA81B981CE0FD11D0FB6F894DEBF0FBECDBFED010895AA1BBB1B51E1F1
:2018000007C0AA1FBB1FA617B70710F0A61BB70B881F991F5A95A9F780959095BC01CD01AD
:201820000895A1E21A2EAA1BBB1BFD010DC0AA1FBB1FEE1FFF1FA217B307E407F50720F0A2
:20184000A21BB30BE40BF50B661F771F881F991F1A9469F760957095809590959B01AC0119
:20186000BD01CF010895DF93CF939F92A0E49A2E0024D001E001F00116950795F794E794D8
:20188000D794C794B794A79448F41068A20FB31FC41FD51FE61FF71F081E191E220F331FF3
:2018A000441F551F661F771F881F991F9A9421F79D01AE01BF01C00111249F90CF91DF918F
:2018C0000895FB01DC0102C005900D9241505040D8F70895DC01CB01FC01E199FECF06C05C
:2018E000FFBBEEBBE09A31960DB20D9241505040B8F70895E199FECF9FBB8EBBE09A992755
:201900008DB30895DC01A40FB51F4150504040F0CB01840F951F2E9105D041505040D8F79E
:201920000895262FE199FECF9FBB8EBBE09A01970DB2021639F01CBA2DBB0FB6F894E29A2E
:20194000E19A0FBE0895F894FFCFFFFF5A22030000000000000000000000000000000000CB
:2019600000000000000000000000000000000000FFFFFFFFFFFFFFFFFFFF5600CFC3FFFF8B
:2019800017C0197A4005930B09021200010100803209040000000000000012011001FF00F9
:2019A0000008D01653070202000000010403090411241FBECFE5D2E0CDBFDEBF20E0A0E69F
:2019C000B0E001C01D92AC38B207E1F7BFC1A82FB92F80E090E041E050EA609530E009C05A
:2019E0002D9182279795879510F084279527305EC8F36F5FA8F30895EADF8D939D930895CC
:201A0000CF93CFB7CF93C395B39BE9F7B39B0BC0B39B09C0B39B07C0B39B05C0B39B03C08D
:201A2000B39B01C0D9C00F92DF93C0916E00DD27CA58DF4F012EB39B03C0DF910F90E6CFD4
:201A40002F930F931F934F932FEF4F6F06B303FB20F95F933F9350E03BE065C016B30126BE
:201A6000502953FDC89556B3012703FB25F92F7306B3B1F05027102713FB26F906B2223012
:201A8000F0F000C016B3012703FB27F90126502906B22430E8F54F77206816B30000F6CF32
:201AA00050274F7D206206B2102F000000C006B300265029102713FB26F906B2E2CF4F7BBB
:201AC00006B3206400C0DACF01265029187106B269F14E7F2160012F16B328C00026502957
:201AE0004D7F06B22260102F29C0012650294B7F06B22460012F2DC016B301265029477FC6
:201B00002860000006B22EC04F7E06B3206130C0422706B3499300265029102706B24FEFD6
:201B200013FB20F9297F16B379F2187159F10126502906B2012703FB21F9237F06B371F279
:201B4000002650293150D0F006B2102713FB22F9277E16B351F201265029012703FB06B25E
:201B600023F92F7C49F2000006B3102713FB24F90026502906B22F7939F270CF10E21ABF14
:201B800000271DC03B503195C31BD04010E21ABF0881033C29F10B3419F120916C00198155
:201BA000110F1213EDCF093651F10D3211F0013E39F7CAE01AB715FD02C0CA95D9F70093E3
:201BC00074003F915F914F911F910F912F91DF910F90CAB7C5FD17CFCF91CFBFCF910895BE
:201BE00020917400222369F3109172001123F1F43430F2F03093720020936D0019C00091EE
:201C0000720001309CF40AE530916F0034FD11C000936F00C1E6D0E010C0052710E000C06B
:201C200021C0052710E0C89508BB14C03AE501C032ED032EC0E0D0E032E017B31861C39A81
:201C400008B317BB58E120E84FEF20FF052708BB279517951C3F28F700004552B0F720FF2B
:201C60000527279508BB17951C3FB8F629913A9561F7077E10917300110F08BBC250D04085
:201C800011F010936C0010E21ABF086017B3177E402F477E54E05A95F1F708BB17BB48BBCB
:201CA00090CF2FEFB0E8A0E04AE0B1BF000081EE9CE0B399FECFB39BFECF0197B399FDCF26
:201CC00097FF03C0BA1B819501C0BA0FA69539F4A0E428F4281710F031B7282FA1E041509E
:201CE00021F731BF00000895F201309741F02AE7421629E1520629F481B790E002C08FEB88
:201D00009CEC21E00C0120935700E8951124CF0102962C01089514BE88E181BD87E081BD21
:201D2000BB9A2FE28BE19FE0215080409040E1F700C00000BB988AE580936F008FEF8093E4
:201D40006000AC9A8BB780628BBF0895EAE7F9E1E491EF3F11F0E1BF000084B78A7031F489
:201D6000EDE7F9E1E491EF3F09F02DC1D4DF712C312C412C512C14E6CCE7D5E186B38871FF
:201D800009F014E6115029F41092730010926C0088DF0AB605FE05C033DE80E28ABF712C67
:201DA00003C02197209751F7A89522E032120CC0E0E8F9E1E054F10983E080935700E89540
:201DC0003097C1F7412C512C832D803459F4F2013297E03889E1F80750F485E08093570099
:201DE000E89505C0843019F4CD2B11F4E9C0312C80917200835087FD98C090916D009D324E
:201E000009F091C0883009F08EC083EC809361008AE580936F00909177009076809178007E
:201E2000992361F1811108C082E899E1909371008093700026E06CC0813059F44114510465
:201E400009F44CC080917B00807C482E50907C0045C0833081F48091790090917A0044DFAA
:201E600080917B0090917C003FDF842D8F73B1F580E4382E33C08F73382E30C09091790013
:201E800010926A00811106C010926B008AE690E022E03AC0853019F49093730027C0863000
:201EA000F9F480917A00813019F48AE999E104C0823041F488E899E1909371008093700053
:201EC00022E126C0833051F4911108C08CEA99E1909371008093700024E01AC020E018C0FA
:201EE000883079F0893031F4909375008AE690E020E00AC021E08A3009F020E08AE690E00D
:201F000003C085E790E021E0909371008093700080917E00811105C080917D00821708F401
:201F2000282F209360001092720080916F0084FF31C0809160008F3F69F1C82F893008F0EE
:201F4000C8E08C1B809360008091610098E8892780936100CC2391F0E0917000F091710066
:201F600082E690E0DC0124912D9331962C2F280F2A13F9CFF0937100E09370006C2F82E6FF
:201F800090E03ADDCC5FCC3019F08FEF80936000C0936F00C30101963C01803B944029F493
:201FA000EDE7F9E1E491EF3F59F40AB605FEE3CE8DE1B39B8DE18150E1F780E28ABFDBCEE8
:0A1FC000AADE1BBE15BADACCFFCF73
:00000001FF
