:20000000BFCC7BC0A7C079C078C077C076C075C074C073C072C071C070C06FC06EC009023E
:200020001200010100A03209040000000000000012035700650062004C0069006700680016
:200040007400160373006F0077006200750067002E0063006F006D000403090412011002D6
:20006000FF000008091200A80001010203010A000000000003061E001400030057494E5523
:20008000534200000000000000000000050F3800021710050038B60834A909A0478BFDA066
:2000A000768815B6650001FE1C100500DF60DDD88945C74C9CD2659D9E648A9F0000030669
:2000C0001E00FC0011241FBECFE5D2E0DEBFCDBF10E0A0E6B0E0E6EBF8E102C005900D92BF
:2000E000AC3DB107D9F721E0ACEDB0E001C01D92A43DB207E1F7FBD2DCCB82CFA82FB92FFF
:2001000080E090E041E050EA609530E009C02D9182279795879510F084279527305EC8F387
:200120006F5FA8F30895EADF8D939D930895A6E088279927AA9569F00197E1F3B399FCCFF3
:20014000B39BFECF81E09927A6B3019611F0A871D9F70895CF93CFB7CF93C395B39BE9F71C
:20016000B39B0BC0B39B09C0B39B07C0B39B05C0B39B03C0B39B01C0D3C00F92DF93C09110
:200180004901DD27C05BDE4F012EB39B03C0DF910F90E6CF2F930F931F934F932FEF4F6FF1
:2001A00006B303FB20F95F933F9350E03BE065C016B30126502953FDC89556B3012703FBF6
:2001C00025F92F7306B3B1F05027102713FB26F906B22230F0F000C016B3012703FB27F971
:2001E0000126502906B22430E8F54F77206816B30000F6CF50274F7D206206B2102F0000DE
:2002000000C006B300265029102713FB26F906B2E2CF4F7B06B3206400C0DACF01265029E9
:20022000187106B269F14E7F2160012F16B328C0002650294D7F06B22260102F29C0012600
:2002400050294B7F06B22460012F2DC016B301265029477F2860000006B22EC04F7E06B31F
:20026000206130C0422706B3499300265029102706B24FEF13FB20F9297F16B379F21871B7
:2002800059F10126502906B2012703FB21F9237F06B371F2002650293150D0F006B21027EF
:2002A00013FB22F9277E16B351F201265029012703FB06B223F92F7C49F2000006B31027F4
:2002C00013FB24F90026502906B22F7939F270CF10E21ABF002717C03B503195C31BD04082
:2002E00010E21ABF0881033CF9F00B34E9F0209147011981110F1213EDCF093651F10D3216
:2003000011F0013E39F700934E013F915F914F911F910F912F91DF910F90CAB7C5FD1DCF9D
:20032000CF91CFBFCF91189520914E01222369F310914C01112321F5343022F130934C0162
:2003400020934801109149013BE0311B3093490119C000914C0101309CF40AE530916100B9
:2003600034FD11C000936100CCE3D1E010C0052710E000C021C0052710E0C89508BB14C08A
:200380003AE501C032ED032EC0E0D0E032E017B31861C39A08B317BB58E120E84FEF20FF00
:2003A000052708BB279517951C3F28F700004552B0F720FF0527279508BB17951C3FB8F6AF
:2003C00029913A9561F7077E10914D01110F08BBC250D04011F01093470110E21ABF0860A4
:2003E00017B3177E402F477E54E05A95F1F708BB17BB48BB8ACFCF93DF9360914C016350A9
:2004000067FDA7C080914901CCE0D0E0C81BD109C05BDE4F809148018D3209F089C0683062
:2004200009F095C083EC80933C018AE5809361001092DD008881807619F0CE01F6D265C089
:200440008A81109245019981911106C01092460125E431E082E055C0953019F480934D017A
:2004600042C09630D1F59B81913019F48CE590E004C0923049F48EE190E090934B018093FF
:200480004A0190E482E126C0933009F5811109C088E590E090934B0180934A0190E484E0B6
:2004A00019C0813049F482E490E090934B0180934A0190E486E10EC0823019F480E390E097
:2004C000DCCF833021F4CE0180D290E003C0CE017CD290E49093DD0018C0983079F09930F2
:2004E00031F480934F0125E431E080E00AC081E09A3009F080E025E431E003C02FE431E0AB
:2005000081E030934B0120934A018F3F39F4988197FD8E8190E89093DD0007C09F819111B5
:2005200004C09E81981708F4892F809360000FC08091DD0087FF0BC0CE0117D38F3F21F458
:200540008EE18093610003C081111092600010924C018091610084FF5CC0809160008F3F22
:2005600009F457C0C82F893008F0C8E08C1B8093600080913C0198E8892780933C01CC2340
:20058000B9F18091DD0087FF08C06C2F8DE391E0C7D2C82F8930B8F52BC020914A0130915B
:2005A0004B0186FF12C0ADE3B1E04CE351E040955095420F531F8C2F8A0FFA01EA0FFB1F38
:2005C000E491ED938A13F9CF09C0EDE3F1E0D9018C2F8E0F9D9191938E13FCCF2F5F3F4F4B
:2005E0008FEF8C0F280F311D30934B0120934A016C2F8DE391E097DDCC5FCC3041F08FEF8A
:200600008093600004C08FEF80936000CEE1C093610084E196B3987131F48150D9F7109230
:200620004D0110924701C1E08111C0E08091DC008C1739F0C11103C0F8947AD17894C0932B
:20064000DC00DF91CF910895AC9A8BB780628BBF089583E08093DE00F5D77DC7CF93DF93C8
:20066000CADE08B606FE1AC088B7806488BF8FB590E0982F88279295990F907E68EE73E01C
:20068000F9D7EB011FBC4AD18230910528F0029729F4CE01C8D302C0CE016ED7DF91CF9182
:2006A000A2C07894BB98D5CFBB9A8BEF815039F0ECE1F0E13197F1F700C00000F7CF82E0D6
:2006C0008093DE000895E7D08EE080BF81E28EBD2EE088E190E00FB6F894A89581BD0FBEFA
:2006E00021BD19D0B1DF81E08093DE0008951092DE008091DE00813049F030F0823041F058
:20070000833039F4ABDF05C0DEDF03C0CDDF01C0C8DFA895EECFCF93DF93CDB7DEB7609738
:200720000FB6F894DEBF0FBECDBF40E150E066E070E0CE0101968ED8FE013196A4E6B0E0DF
:20074000CE014196219130E02D933D93E817F907C9F760960FB6F894DEBF0FBECDBFDF9135
:20076000CF910895EF92FF921F93CF93DF931F92CDB7DEB77C0186E190E069837BD89FEFF9
:20078000980F69819E3F60F4182F681708F4162F412F50E067E170E0C7015CD8812F01C0EB
:2007A00080E00F90DF91CF911F91FF90EF9008951F93CF93DF93EC01162F86E190E06BD83D
:2007C0008FEF810F8E3F48F4412F50E067E170E0CE01DF91CF911F9155C8DF91CF911F91DE
:2007E000089582E008958091E100882339F01092E10062E070E086E691E084C308950F931F
:200800001F93CF93DF93EB018A01E82FF0E0CF0163E070E01ED7DC01AA59BE4F12968C91EA
:200820001297888311968C91D8018C93CF0163E070E00FD78A599E4FFC018081D9018C9338
:20084000DF91CF911F910F910895362FE82FF0E0CF0163E070E0FDD6DC01AA59BE4F1296C4
:200860003C93129711964C931197FD01208381E08093E10008958093680160936701409395
:20088000660191E09093E10080936B0160936A01409369010895109268011092670110920E
:2008A000660181E08093E10010926B0110926A011092690198CF0F931F93CF93DF93182F7F
:2008C000EADFC0E000E2D1E0C11719F1109268011092670100936601D093E10084DF81E221
:2008E00091EA0197F1F700C00000109268011092670110926601D093E10075DF97EB22E8FB
:2009000081E0915020408040E1F700C00000CF5FDBCFDF91CF911F910F9108958091DF0058
:200920009091E00008959093E0008093DF000895AF92BF92CF92DF92EF92FF920F931F93BD
:20094000CF93DF93C12C2FE7A22ECFE0D7E23CECE32E36EFF32EC11002C0D12C02C090E83F
:20096000D92E07E010E080E4B82E80E090E08433994014F4DB0C01C0DB18D1BED8DB853352
:2009800029E0920724F09C012453394003C09701281B390B2C173D0714F4AD2CE901B69496
:2009A000015011090115110511F7C39482E0C812D2CFA1BEDF91CF911F910F91FF90EF90D7
:2009C000DF90CF90BF90AF900895FC012381233051F02F30A1F48CE890E090934B0180938F
:2009E0004A0188E30895FC018281833041F482E690E090934B0180934A0182E2089580E0B6
:200A0000089583E058DF28E088E190E00FB6F894A89581BD0FBE21BDFFCF892B29F489D54A
:200A2000FBD182E090E07FCF0895FC01618160936F01828193819093EB008093EA00248124
:200A400035813093E9002093E80042EE50E050934B0140934A016730B9F1B8F4643080F4F7
:200A6000613020F582818093E20083818093E30084818093E40085818093E50084E00895E3
:200A80006530F1F0F8F443D549C06A3009F138F46830E1F0693009F041C0D4D53FC06D3FC3
:200AA000E1F16E3FB9F06C3FC9F52AC01092E7008681813408F080E48093E6008FEF089506
:200AC00041D52CC048D52AC034D528C0B6D526C0A4DF24C02130310559F022303105F1F407
:200AE00089EB90E090934B0180934A0183E2089584E890E090934B0180934A0185E3089595
:200B00002730310559F48EE690E090936E0180936D018EE180936C01D1CF73DF80E0089526
:200B20001F93CF93DF9320916C01162F261708F4122FC12FD0E060916D0170916E01AE0134
:200B400080D620916D0130916E012C0F3D1F30936E0120936D0180916C01811B80936C016C
:200B6000812FDF91CF911F9108952091E600261708F4622F261B2093E6003091E700482F4E
:200B8000FC01932F981BA92FAE0F8E2F841B861730F48191B0E0A451BF4F8C93F4CF630F38
:200BA0006093E700211136C080916F018230A9F0833001F1813071F5F9D2811101C0B9D400
:200BC00060E070E080E090E033D44091EE006091ED008091EC00EDD21DC0E8D28823D1F052
:200BE0008091EC0090E0982F88272091ED00822B5DD410C0DBD2811101C09BD46091ED0079
:200C000070E0762F66278091EE00682B8091EC0090E00ED481E09091E600911180E008956A
:200C20004F925F926F927F928F929F92AF92BF92CF92DF92EF92FF920F931F93FC018480B3
:200C40009580A680B780B501A40185E076956795579547958A95D1F7950184019BE1000F06
:200C6000111F221F331F9A95D1F7402B512B622B732B0081118122813381041B150B260BCE
:200C8000370BC084D184E284F384B701A601AFE07695679557954795AA95D1F72601370179
:200CA000B1E1440C551C661C771CBA95D1F74429552966297729482559256A257B254083BE
:200CC00051836283738384849584A684B784C80CD91CEA1CFB1CC482D582E682F782800EED
:200CE000911EA21EB31E80869186A286B386CB01BA01600F711F821F931F64877587868769
:200D000097871F910F91FF90EF90DF90CF90BF90AF909F908F907F906F905F904F90089534
:200D20000F931F93CF93DF93EC010DEE1EE52AEE31EF088319832A833B834C875D876E872A
:200D40007F87488759876A877B874C835D836E837F8300E010E0CE0163DF0F5F1F4F043157
:200D60001105C9F7DF91CF911F910F9108958F929F92AF92BF92CF92DF92EF92FF926B01AC
:200D80007C01F694E794D794C79425E5C222D222E222F222DC01CB018C199D09AE09BF099E
:200DA000AC01BD0143735373637373736C017D0132E0F694E794D794C7943A95D1F783E3CB
:200DC000C822D822E822F822C40ED51EE61EF71EC701B60144E096958795779567954A955C
:200DE000D1F76C0D7D1D8E1D9F1D6F707F708F709F7021E031E0A9016ED449015A018B2D7A
:200E00009927AA27BB27FF90EF90DF90CF90BF90AF909F908F9008954FB550E060E070E046
:200E200080E791E07DCFCF92DF92EF92FF920F931F93CF93DF9380912C0191E0980F909309
:200E40002C01833008F443C010922C01C0E0D0E000E110E0E8E0EE2EF12CCC24C394D12C7E
:200E6000C0DC90E0C817D90794F580E791E0D8DE7EDF9801281B390B37FF03C0319521959E
:200E80003109C901959587950496AA2797FDA095BA2F88309105A105B10520F088E090E059
:200EA000A0E0B0E0A701481B590BC60102C0880F991F4A95E2F7AC019C0135952795359589
:200EC0002795405C60E88C2FC0DC2196C9CFDF91CF911F910F91FF90EF90DF90CF90089533
:200EE000B89ABA9AC298089598E087FD02C0C09801C0C09AC29A880F00000000C2989150F6
:200F0000A1F70895CF92DF92EF92FF920F931F93CF93DF93EC018B01E3DF80E0E5DF80E0D1
:200F2000E3DF80E0E1DF80E0DFDF2296C12CD12C7801EE0CFF1CE00EF11ECE14DF0488F443
:200F40008FEFD2DFFE0132978081CEDFFE0131978081CADF8881C8DF83E0C80ED11C2396EC
:200F6000ECCFC0E0D0E0C017D10720F48FEFBCDF6096F9CFDF91CF911F910F91FF90EF909E
:200F8000DF90CF90089590913B01980F90933B0180913A01981710F010923B01089520915C
:200FA0003A0190E0820F911DC09714F08FEF83CC08954F925F926F927F928F929F92AF920B
:200FC000BF92CF92DF92EF92FF92CF93DF93CDB7DEB728970FB6F894DEBF0FBECDBF8091D8
:200FE0002F0190913001C0903601D0903701C816D90638F48C199D099093300180932F0185
:2010000004C01092300110922F0180912F0190913001892B21F510923101C0908001D09005
:201020008101E0908201F0908301CD2CDE2CEF2CFF24E7FCFA948091C4019091C501A09197
:20104000C601B091C701692F7A2F8B2F992787FD9A954C2D8091C9010EDC80E092C0809151
:20106000340190913501019709F08AC0E12CF12CC701B6012091C0013091C1014091C201D7
:201080005091C30126D329833A834B835C83409088015090890160908A0170908B01298128
:2010A0003A814B815C81420E531E641E751E409288015092890160928A0170928B01C7015C
:2010C000B6012091D0013091D1014091D2015091D301FFD229833A834B835C838090BC0137
:2010E0009090BD01A090BE01B090BF0189819A81AB81BC81880E991EAA1EBB1E8092BC01D8
:201100009092BD01A092BE01B092BF01C701B601209184013091850140918601509187013F
:20112000D8D229833A834B835C836D837E838F8398878091CC019091CD01A091CE01B091BF
:20114000CF0129813A814B815C81820F931FA41FB51F8093CC019093CD01A093CE01B093C1
:20116000CF01C92EDA2EEB2EFF24E7FCFA949927B7FC9A958B2D7A2D692D4C2D852D7BDBDB
:2011800081E028960FB6F894DEBF0FBECDBFDF91CF91FF90EF90DF90CF90BF90AF909F9080
:2011A0008F907F906F905F904F9008958091380108954F925F926F927F928F929F92AF9239
:2011C000BF92CF92DF92EF92FF920F931F93CF93DF93CDB7DEB72F970FB6F894DEBF0FBE18
:2011E000CDBF182FE62EF42E809138018823F9F084E0D5DEE0913A01AE2FB0E0A457BE4FD0
:201200001C92A1E0AE0FB0E0A457BE4F1C93A2E0AE0FB0E0A457BE4FEC9284E08E0F809332
:201220003A01ED5FF0E0E457FE4FF082EAC081E08093310180913201909133019093300120
:2012400080932F019E012F5F3F4FAE014E5F5F4FBE016D5F7F4F80E0D2DA6B8170E0762F40
:201260006627CB01AA2797FDA095BA2F8093880190938901A0938A01B0938B014A80512C75
:20128000542C4424662457FC6094762C4092BC015092BD016092BE017092BF01298130E097
:2012A000322F22275901CC24B7FCC094DC2CAC82BD82CE82DF82A092CC01B092CD01C092AC
:2012C000CE01D092CF01012F10E0102F00279801442737FD4095542F2C873D874E875F87C5
:2012E0002093C8013093C9014093CA015093CB014E2D50E0542F44275A01CC24B7FCC094AD
:20130000DC2CA886B986CA86DB86A092C401B092C501C092C601D092C7018F2C912C982C29
:201320008824AA2497FCA094BA2C8092800190928101A0928201B0928301C0903201D090F1
:201340003301C114D10409F440C0E12CF12C0C851D852E853F85081B190B2A0B3B0BC90152
:20136000B801A701960199D12093C0013093C1014093C2015093C301688579858A859B85BB
:201380006419750986099709A701960186D12093D0013093D1014093D2015093D301C50151
:2013A000B4010C811D812E813F81601B710B820B930BA701960171D12093840130938501BA
:2013C000409386015093870118C01092C0011092C1011092C2011092C3011092D0011092C9
:2013E000D1011092D2011092D30110928401109285011092860110928701809131018111B9
:20140000D8DD2F960FB6F894DEBF0FBECDBFDF91CF911F910F91FF90EF90DF90CF90BF90C0
:20142000AF909F908F907F906F905F904F9008951F93CF93DF9300D0CDB7DEB7182F8091DF
:201440003801882329F184E069837A83A8DD90913A01A92FB0E0A457BE4F81E08C93A1E0EF
:20146000A90FB0E0A457BE4F1C93A2E0A90FB0E0A457BE4F7A817C9384E0890F80933A0147
:20148000E3E0E90FF0E0E457FE4F6981608308C01093340190933501609332017093330116
:2014A0000F900F90DF91CF911F9108951F93CF93DF931F92CDB7DEB7182F80913801882345
:2014C000E9F083E099836BDD20913A01A22FB0E0A457BE4F82E08C93A1E0A20FB0E0A457D9
:2014E000BE4F99819C9383E0820F80933A01E2E0E20FF0E0E457FE4F108304C010932D0121
:2015000090932E010F90DF91CF911F91089580913801882369F081E042DDE0913A0181E0E2
:201520008E0F80933A01F0E0E457FE4F83E08083089510923B01109239011092380180E070
:2015400090E0F1C9F6DF10923A0181E08093380181E090E0E8C9EDDF81E080933901109264
:2015600031011092350110923401109233011092320181E090E0D7C99093370180933601C9
:2015800080913801811158C080913101811105C080913901811105C008950BDD81114CC0F8
:2015A000F7CF80913A01882309F446C080912D0190912E010097C1F02091360130913701B3
:2015C0002817390738F4821B930B90932E0180932D0104C010922E0110922D0180912D01EE
:2015E00090912E01892B41F5E0913B01F0E0E457FE4F8081813059F4628170E0762F662748
:201600008381682B818190E013DF84E0BCCC813028F4438162818181CCDDF7CF823049F40F
:20162000818190E0982F88272281822B3FDF83E0EDCF833009F46BCF089560913A018CE80E
:2016400091E0B6C860E38CE891E08CD880933A0108950024552704C0080E591F880F991FE3
:20166000009729F076956795B8F37105B9F7802D952F089597FB072E16F4009406D077FD25
:2016800008D07BD007FC05D03EF4909581959F4F0895709561957F4F0895052E97FB16F422
:2016A00000940FD057FD05D07CD007FC02D046F408C050954095309521953F4F4F4F5F4F5C
:2016C000089590958095709561957F4F8F4F9F4F089568940013E894A0E0B0E0E1E7FBE0C3
:2016E0001DC0EFEFE7F959016A015E23550FEE08FE2C87019B01AC019E23990F660B762F35
:20170000CB0171D0CDB7DEB7EAE024C02F923F924F925F926F927F928F929F92AF92BF929B
:20172000CF92DF92EF92FF920F931F93CF93DF93CDB7DEB7CA1BDB0B0FB6F894DEBF0FBEFE
:20174000CDBF09942A88398848885F846E847D848C849B84AA84B984C884DF80EE80FD8017
:201760000C811B81AA81B981CE0FD11D0FB6F894DEBF0FBECDBFED010895AA1BBB1B51E171
:2017800007C0AA1FBB1FA617B70710F0A61BB70B881F991F5A95A9F780959095BC01CD012E
:2017A0000895A1E21A2EAA1BBB1BFD010DC0AA1FBB1FEE1FFF1FA217B307E407F50720F023
:2017C000A21BB30BE40BF50B661F771F881F991F1A9469F760957095809590959B01AC019A
:2017E000BD01CF010895DF93CF939F92A0E49A2E0024D001E001F00116950795F794E79459
:20180000D794C794B794A79448F41068A20FB31FC41FD51FE61FF71F081E191E220F331F73
:20182000441F551F661F771F881F991F9A9421F79D01AE01BF01C00111249F90CF91DF910F
:201840000895FB01DC0102C005900D9241505040D8F70895DC01CB01FC01E199FECF06C0DC
:20186000FFBBEEBBE09A31960DB20D9241505040B8F70895E199FECF9FBB8EBBE09A9927D5
:201880008DB30895DC01CB0102C02D9105D041505040D8F70895262FE199FECF1CBA9FBB14
:2018A0008EBB2DBB0FB6F894E29AE19A0FBE01960895F894FFCFFF5A2203000000000000D6
:2018C0000000000000000000000000000000000000000000000000000000040035001A03B2
:2018E00068747470733A2F2F736F776275672E6769746875622E696F1703687474703A2F8C
:201900002F6C6F63616C686F73743A38303030230368747470733A2F2F736F776275672E17
:201920006769746875622E696F2F7765626C69676874FFFFFFFFFFFFFFFFFFFFFFFFFFFFA7
:20194000FFFFFFFFFFFFFFFFFFFFFFFFFFFFFFFFFFFFFFFFFFFFFFFFFFFFFFFFFFFFFFFFA7
:20196000FFFFFFFFFFFFFFFFFFFFFFFFFFFFFFFFFFFFFFFFFFFFFFFFFFFF9A00A3C3FFFF83
:2019800017C0197A4005930B09021200010100803209040000000000000012011001FF00F9
:2019A0000008D01653070202000000010403090411241FBECFE5D2E0CDBFDEBF20E0A0E69F
:2019C000B0E001C01D92AC38B207E1F7BFC1A82FB92F80E090E041E050EA609530E009C05A
:2019E0002D9182279795879510F084279527305EC8F36F5FA8F30895EADF8D939D930895CC
:201A0000CF93CFB7CF93C395B39BE9F7B39B0BC0B39B09C0B39B07C0B39B05C0B39B03C08D
:201A2000B39B01C0D9C00F92DF93C0916E00DD27CA58DF4F012EB39B03C0DF910F90E6CFD4
:201A40002F930F931F934F932FEF4F6F06B303FB20F95F933F9350E03BE065C016B30126BE
:201A6000502953FDC89556B3012703FB25F92F7306B3B1F05027102713FB26F906B2223012
:201A8000F0F000C016B3012703FB27F90126502906B22430E8F54F77206816B30000F6CF32
:201AA00050274F7D206206B2102F000000C006B300265029102713FB26F906B2E2CF4F7BBB
:201AC00006B3206400C0DACF01265029187106B269F14E7F2160012F16B328C00026502957
:201AE0004D7F06B22260102F29C0012650294B7F06B22460012F2DC016B301265029477FC6
:201B00002860000006B22EC04F7E06B3206130C0422706B3499300265029102706B24FEFD6
:201B200013FB20F9297F16B379F2187159F10126502906B2012703FB21F9237F06B371F279
:201B4000002650293150D0F006B2102713FB22F9277E16B351F201265029012703FB06B25E
:201B600023F92F7C49F2000006B3102713FB24F90026502906B22F7939F270CF10E21ABF14
:201B800000271DC03B503195C31BD04010E21ABF0881033C29F10B3419F120916C00198155
:201BA000110F1213EDCF093651F10D3211F0013E39F7CAE01AB715FD02C0CA95D9F70093E3
:201BC00074003F915F914F911F910F912F91DF910F90CAB7C5FD17CFCF91CFBFCF910895BE
:201BE00020917400222369F3109172001123F1F43430F2F03093720020936D0019C00091EE
:201C0000720001309CF40AE530916F0034FD11C000936F00C1E6D0E010C0052710E000C06B
:201C200021C0052710E0C89508BB14C03AE501C032ED032EC0E0D0E032E017B31861C39A81
:201C400008B317BB58E120E84FEF20FF052708BB279517951C3F28F700004552B0F720FF2B
:201C60000527279508BB17951C3FB8F629913A9561F7077E10917300110F08BBC250D04085
:201C800011F010936C0010E21ABF086017B3177E402F477E54E05A95F1F708BB17BB48BBCB
:201CA00090CF2FEFB0E8A0E04AE0B1BF000081EE9CE0B399FECFB39BFECF0197B399FDCF26
:201CC00097FF03C0BA1B819501C0BA0FA69539F4A0E428F4281710F031B7282FA1E041509E
:201CE00021F731BF00000895F201309741F02AE7421629E1520629F481B790E002C08FEB88
:201D00009CEC21E00C0120935700E8951124CF0102962C01089514BE88E181BD87E081BD21
:201D2000BB9A2FE28BE19FE0215080409040E1F700C00000BB988AE580936F008FEF8093E4
:201D40006000AC9A8BB780628BBF0895EAE7F9E1E491EF3F11F0E1BF000084B78A7031F489
:201D6000EDE7F9E1E491EF3F09F02DC1D4DF712C312C412C512C14E6CCE7D5E186B38871FF
:201D800009F014E6115029F41092730010926C0088DF0AB605FE05C033DE80E28ABF712C67
:201DA00003C02197209751F7A89522E032120CC0E0E8F9E1E054F10983E080935700E89540
:201DC0003097C1F7412C512C832D803459F4F2013297E03889E1F80750F485E08093570099
:201DE000E89505C0843019F4CD2B11F4E9C0312C80917200835087FD98C090916D009D324E
:201E000009F091C0883009F08EC083EC809361008AE580936F00909177009076809178007E
:201E2000992361F1811108C082E899E1909371008093700026E06CC0813059F44114510465
:201E400009F44CC080917B00807C482E50907C0045C0833081F48091790090917A0044DFAA
:201E600080917B0090917C003FDF842D8F73B1F580E4382E33C08F73382E30C09091790013
:201E800010926A00811106C010926B008AE690E022E03AC0853019F49093730027C0863000
:201EA000F9F480917A00813019F48AE999E104C0823041F488E899E1909371008093700053
:201EC00022E126C0833051F4911108C08CEA99E1909371008093700024E01AC020E018C0FA
:201EE000883079F0893031F4909375008AE690E020E00AC021E08A3009F020E08AE690E00D
:201F000003C085E790E021E0909371008093700080917E00811105C080917D00821708F401
:201F2000282F209360001092720080916F0084FF31C0809160008F3F69F1C82F893008F0EE
:201F4000C8E08C1B809360008091610098E8892780936100CC2391F0E0917000F091710066
:201F600082E690E0DC0124912D9331962C2F280F2A13F9CFF0937100E09370006C2F82E6FF
:201F800090E03ADDCC5FCC3019F08FEF80936000C0936F00C30101963C01803B944029F493
:201FA000EDE7F9E1E491EF3F59F40AB605FEE3CE8DE1B39B8DE18150E1F780E28ABFDBCEE8
:0A1FC000AADE1BBE15BADACCFFCF73
:00000001FF
