:20000000BFCC96C0C2C094C093C092C091C090C08FC08EC08DC08CC08BC08AC089C00902C4
:200020001200010100A0FA09040000000000000012035700650062004C006900670068004E
:200040007400160373006F0077006200750067002E0063006F006D000403090412011002D6
:20006000FF000008091200A80900010203011103006C6F63616C686F73743A383030301CAB
:200080000301736F776275672E6769746875622E696F2F7765626C6967687407000700007B
:2000A00001020A000000000003061E001400030057494E555342000000000000000000001D
:2000C000050F3900021810050038B60834A909A0478BFDA0768815B6650001FE011C10055A
:2000E00000DF60DDD88945C74C9CD2659D9E648A9F000003061E00FC000011241FBECFE5A7
:20010000D2E0DEBFCDBF10E0A0E6B0E0E4EFF6E102C005900D92A838B107D9F721E0A8E865
:20012000B0E001C01D92A13CB207E1F7CDD2E0CA67CFA82FB92F80E090E041E050EA6095F3
:2001400030E009C02D9182279795879510F084279527305EC8F36F5FA8F30895EADF8D9378
:200160009D930895A6E088279927AA9569F00197E1F3B399FCCFB39BFECF81E09927A6B30D
:20018000019611F0A871D9F70895CF93CFB7CF93C395B39BE9F7B39B0BC0B39B09C0B39BF3
:2001A00007C0B39B05C0B39B03C0B39B01C0D3C00F92DF93C091FB00DD27CE5FDE4F012EC6
:2001C000B39B03C0DF910F90E6CF2F930F931F934F932FEF4F6F06B303FB20F95F933F93E2
:2001E00050E03BE065C016B30126502953FDC89556B3012703FB25F92F7306B3B1F05027B9
:20020000102713FB26F906B22230F0F000C016B3012703FB27F90126502906B22430E8F538
:200220004F77206816B30000F6CF50274F7D206206B2102F000000C006B3002650291027D7
:2002400013FB26F906B2E2CF4F7B06B3206400C0DACF01265029187106B269F14E7F21600F
:20026000012F16B328C0002650294D7F06B22260102F29C0012650294B7F06B22460012FFA
:200280002DC016B301265029477F2860000006B22EC04F7E06B3206130C0422706B349931F
:2002A00000265029102706B24FEF13FB20F9297F16B379F2187159F10126502906B201271C
:2002C00003FB21F9237F06B371F2002650293150D0F006B2102713FB22F9277E16B351F29F
:2002E00001265029012703FB06B223F92F7C49F2000006B3102713FB24F90026502906B20C
:200300002F7939F270CF10E21ABF002717C03B503195C31BD04010E21ABF0881033CF9F047
:200320000B34E9F02091F9001981110F1213EDCF093651F10D3211F0013E39F7009300019C
:200340003F915F914F911F910F912F91DF910F90CAB7C5FD1DCFCF91CFBFCF911895209103
:200360000001222369F31091FE00112321F5343022F13093FE002093FA001091FB003BE056
:20038000311B3093FB0019C00091FE0001309CF40AE53091620034FD11C000936200CEEE65
:2003A000D0E010C0052710E000C021C0052710E0C89508BB14C03AE501C032ED032EC0E020
:2003C000D0E032E017B31861C39A08B317BB58E120E84FEF20FF052708BB279517951C3FDE
:2003E00028F700004552B0F720FF0527279508BB17951C3FB8F629913A9561F7077E10911A
:20040000FF00110F08BBC250D04011F01093F90010E21ABF086017B3177E402F477E54E041
:200420005A95F1F708BB17BB48BB8ACFCF93DF936091FE00635067FDB8C08091FB00CCE0EA
:20044000D0E0C81BD109CE5FDE4F8091FA008D3209F097C0683009F0A6C083EC8093EE0054
:200460008AE580936200109289008881807619F0CE0116D36EC09A811092F700898181112F
:2004800007C01092F80027EF30E082E090E05DC0853019F49093FF0045C08630E9F58B815D
:2004A000813019F48CE590E004C0823051F48EE190E09093FD008093FC0020E482E190E0FD
:2004C00028C0833019F591110AC088E590E09093FD008093FC0020E484E090E01AC0913088
:2004E00051F482E490E09093FD008093FC0020E486E190E00EC0923019F480E390E0D9CFBF
:20050000933021F4CE01A1D220E003C0CE019DD220E4209389001DC0883099F0893039F47C
:200520009093010127EF30E080E090E00EC031E020E08A3009F030E0832F922F27EF30E065
:2005400004C021E031E081E090E03093FD002093FC008F3F2FEF920749F4288127FF02C032
:200560008E819F8120E82093890006C02E813F812817390708F4C901909361008093600097
:2005800012C08091890087FF0EC0CE014AD38F3F21F48EE18093620006C0882321F01092C4
:2005A0006100109260001092FE008091620084FF6BC080916000909161008F3F2FEF92079F
:2005C00009F462C0BC018930910510F068E070E0861B970B90936100809360008091EE001F
:2005E00098E889278093EE00C62F6623B1F18091890087FF07C08FEE90E0E8D2C82F89306C
:20060000D0F52BC02091FC003091FD0086FF12C0AFEEB0E04EEE50E040955095420F531F52
:20062000862F8A0FFA01EA0FFB1FE491ED938A13F9CF09C0EFEEF0E0D901862F8E0F9D9134
:2006400091938E13FCCF2F5F3F4F8FEF8C0F280F311D3093FD002093FC006C2F8FEE90E059
:200660007DDDCC5FCC3071F02FEF3FEF309361002093600007C08FEF9FEF909361008093AB
:200680006000CEE1C093620084E196B3987131F48150D9F71092FF001092F900C1E08111AA
:2006A000C0E0809188008C1739F0C11103C0F89430D07894C0938800DF91CF910895AC9A7A
:2006C0008BB780628BBF0895CF93DF931F92CDB7DEB72EE088E190E00FB6F894A89581BDBE
:2006E0000FBE21BDECDFBB9A8BEF815039F0ECE1F0E13197F1F700C00000F7CF7894BB9888
:20070000CE01019653D092DECE01019657D0A895FACFAF92BF92CF92DF92EF92FF920F9335
:200720001F93CF93DF93C12C2FE7A22ECFE0D7E23CECE32E36EFF32EC11002C0D12C02C027
:2007400090E8D92E07E010E080E4B82E80E090E08433994014F4DB0C01C0DB18D1BE02DD88
:20076000853329E0920724F09C012453394003C09701281B390B2C173D0714F4AD2CE9014A
:20078000B694015011090115110511F7C39482E0C812D2CFA1BEDF91CF911F910F91FF902E
:2007A000EF90DF90CF90BF90AF900895E9D08EE080BF81E28EBD3CD05AD6E2C5CF93DF93F6
:2007C00008B606FE32C088B7806488BF8FB590E0982F88279295990F907E68EE73E05FD616
:2007E000EB011FBCCB0114D1882319F083E090E027D121D18230910518F0039721F015C040
:20080000CE01CFD512C040E060E080916400A8D09091630080916400890F80936400885066
:20082000893518F0919590936300DF91CF9166C0CF93DF93CDB7DEB760970FB6F894DEBF7E
:200840000FBECDBF40E150E066E070E0CE01019616D7FE013196A7E6B0E0CE0141962191CA
:2008600030E02D933D93E817F907C9F760960FB6F894DEBF0FBECDBFDF91CF910895EF92EE
:20088000FF921F93CF93DF931F92CDB7DEB77C0186E190E0698303D79FEF980F698199366F
:2008A00060F4182F681708F4162F412F50E067E170E0C701E4D6812F01C080E00F90DF9143
:2008C000CF911F91FF90EF9008951F93CF93DF93EC01162F86E190E0F9D68FEF810F893632
:2008E00048F4412F50E067E170E0CE01DF91CF911F91DDC6DF91CF911F91089580918E00D6
:20090000882339F010928E0062E070E08FE890E00DC208950F931F93CF93DF93EB018A014F
:20092000E82FF0E0CF0163E070E0A8D5DC01A157BF4F12968C911297888311968C91D801F7
:200940008C93CF0163E070E099D581579F4FFC018081D9018C93DF91CF911F910F9108952D
:20096000809391006093900040938F0091E090938E0080939400609393004093920008959D
:20098000109291001092900010928F0081E080938E00109294001092930010929200AECFA3
:2009A0000F931F93CF93DF93182FEADFC0E000E2D1E0C11719F110929100109290000093F2
:2009C0008F00D0938E009ADF81E291EA0197F1F700C00000109291001092900010928F006A
:2009E000D0938E008BDF97EB22E881E0915020408040E1F700C00000CF5FDBCFDF91CF916E
:200A00001F910F91089590938D0080938C00089520918C0030918D002115310551F0281B82
:200A2000390B30938D0020938C0081E0121613060CF480E0089580918A0090918B00089560
:200A400090938B0080938A000895FC012381233059F02F30B1F480EC90E09093FD0080935E
:200A6000FC0089E390E00895FC018281833049F485E690E09093FD008093FC0082E290E033
:200A8000089580E090E0089583E08ADF28E088E190E00FB6F894A89581BD0FBE21BDFFCF5A
:200AA000FC01618160931C018281938190939E0080939D002481358130939C0020939B00B7
:200AC00045E950E05093FD004093FC00673009F442C0C0F4643088F4613050F582818093C3
:200AE000950083818093960084818093970085818093980084E090E00895653041F148F5DF
:200B00001BD461C06B3FF9F058F4693041F128F16B3009F058C068EE73E0B0D474DF53C0C3
:200B20006D3F09F44FC008F440C06E3FD1F04BC010929A008681813408F080E48093990088
:200B40008FEF9FEF089510929A008681F7CF0FD43AC016D438C002D436C084D434C087D4B1
:200B600032C02130310521F02230310549F02BC08BE990E090931B0180931A0187E01FC0A8
:200B80008130910551F00297F1F48EE690E090931B0180931A0181E112C08FE790E09093C1
:200BA0001B0180931A018CE10AC02730310559F482EA90E090931B0180931A018EE180930F
:200BC0001901BECF61DF80E090E008951F93CF93DF9320911901162F261708F4122F209100
:200BE0001801C12FD0E060911A0170911B01AE01222311F044D501C039D520911A013091A9
:200C00001B012C0F3D1F30931B0120931A0180911901811B80931901812FDF91CF911F9150
:200C20000895CF93C62F30911C0120919A003B3F99F4462F50E030E0B90160587F4F37D58F
:200C400080919A008C0F80939A00909199009C1B9093990081E054C040919900461708F43C
:200C6000642F461B40939900582FFC01922F981BA92FAE0F8E2F851B861730F48191B0E0C7
:200C8000A156BF4F8C93F4CF260F20939A00411134C03230A9F0333001F1313071F59BD122
:200CA000811101C05BD360E070E080E090E0D5D24091A1006091A00080919F008FD11DC0BC
:200CC0008AD18823D1F080919F0090E0982F88272091A000822BFFD210C07DD1811101C077
:200CE0003DD36091A00070E0762F66278091A100682B80919F0090E0B0D281E090919900CF
:200D0000911180E0CF910895B89ABA9AC298089598E087FD02C0C09801C0C09AC29A880F13
:200D200000000000C2989150A1F70895CF92DF92EF92FF920F931F93CF93DF93EC018B01BE
:200D4000E3DF80E0E5DF80E0E3DF80E0E1DF80E0DFDF2296C12CD12C7801EE0CFF1CE00E2F
:200D6000F11ECE14DF0488F48FEFD2DFFE0132978081CEDFFE0131978081CADF8881C8DF5D
:200D800083E0C80ED11C2396ECCFC0E0D0E0C017D10720F48FEFBCDF6096F9CFDF91CF91FF
:200DA0001F910F91FF90EF90DF90CF9008959091ED00980F9093ED008091EC00981710F0F9
:200DC0001092ED0008952091EC0090E0820F911D8038910514F08FEFE3CD08954F925F92AC
:200DE0006F927F928F929F92AF92BF92CF92DF92EF92FF92CF93DF93CDB7DEB728970FB6A8
:200E0000F894DEBF0FBECDBF8091E1009091E200C090E800D090E900C816D90638F48C194C
:200E20009D099093E2008093E10004C01092E2001092E1008091E1009091E200892B21F589
:200E40001092E300C0901D01D0901E01E0901F01F0902001CD2CDE2CEF2CFF24E7FCFA943D
:200E60008091B1019091B201A091B301B091B401692F7A2F8B2F992787FD9A954C2D809108
:200E8000B6016EDD80E092C08091E6009091E700019709F08AC0E12CF12CC701B60120916A
:200EA000AD013091AE014091AF015091B00126D329833A834B835C834090250150902601F5
:200EC000609027017090280129813A814B815C81420E531E641E751E4092250150922601EC
:200EE0006092270170922801C701B6012091BD013091BE014091BF015091C001FFD229838F
:200F00003A834B835C838090A9019090AA01A090AB01B090AC0189819A81AB81BC81880EF5
:200F2000991EAA1EBB1E8092A9019092AA01A092AB01B092AC01C701B601209121013091F0
:200F400022014091230150912401D8D229833A834B835C836D837E838F8398878091B901C6
:200F60009091BA01A091BB01B091BC0129813A814B815C81820F931FA41FB51F8093B901F5
:200F80009093BA01A093BB01B093BC01C92EDA2EEB2EFF24E7FCFA949927B7FC9A958B2D7E
:200FA0007A2D692D4C2D852DDBDC81E028960FB6F894DEBF0FBECDBFDF91CF91FF90EF90CE
:200FC000DF90CF90BF90AF909F908F907F906F905F904F9008958091EA0008954F925F9284
:200FE0006F927F928F929F92AF92BF92CF92DF92EF92FF920F931F93CF93DF93CDB7DEB7D6
:201000002F970FB6F894DEBF0FBECDBF182FE62EF42E8091EA008823F9F084E0D4DEE09130
:20102000EC00AE2FB0E0A75DBE4F1C92A1E0AE0FB0E0A75DBE4F1C93A2E0AE0FB0E0A75D37
:20104000BE4FEC9284E08E0F8093EC00ED5FF0E0E75DFE4FF082EAC081E08093E3008091D4
:20106000E4009091E5009093E2008093E1009E012F5F3F4FAE014E5F5F4FBE016D5F7F4F6F
:2010800080E048DC6B8170E0762F6627CB01AA2797FDA095BA2F8093250190932601A09359
:2010A0002701B09328014A80512C542C4424662457FC6094762C4092A9015092AA016092FF
:2010C000AB017092AC01298130E0322F22275901CC24B7FCC094DC2CAC82BD82CE82DF82DA
:2010E000A092B901B092BA01C092BB01D092BC01012F10E0102F00279801442737FD409547
:20110000542F2C873D874E875F872093B5013093B6014093B7015093B8014E2D50E0542FE2
:2011200044275A01CC24B7FCC094DC2CA886B986CA86DB86A092B101B092B201C092B301ED
:20114000D092B4018F2C912C982C8824AA2497FCA094BA2C80921D0190921E01A0921F0152
:20116000B0922001C090E400D090E500C114D10409F440C0E12CF12C0C851D852E853F8518
:20118000081B190B2A0B3B0BC901B801A701960199D12093AD013093AE014093AF01509328
:2011A000B001688579858A859B856419750986099709A701960186D12093BD013093BE01B1
:2011C0004093BF015093C001C501B4010C811D812E813F81601B710B820B930BA701960162
:2011E00071D12093210130932201409323015093240118C01092AD011092AE011092AF0128
:201200001092B0011092BD011092BE011092BF011092C001109221011092220110922301A6
:20122000109224018091E3008111D8DD2F960FB6F894DEBF0FBECDBFDF91CF911F910F9180
:20124000FF90EF90DF90CF90BF90AF909F908F907F906F905F904F9008951F93CF93DF93D7
:2012600000D0CDB7DEB7182F8091EA00882329F184E069837A83A7DD9091EC00A92FB0E038
:20128000A75DBE4F81E08C93A1E0A90FB0E0A75DBE4F1C93A2E0A90FB0E0A75DBE4F7A815E
:2012A0007C9384E0890F8093EC00E3E0E90FF0E0E75DFE4F6981608308C01093E6009093C7
:2012C000E7006093E4007093E5000F900F90DF91CF911F9108951F93CF93DF931F92CDB752
:2012E000DEB7182F8091EA008823E9F083E099836ADD2091EC00A22FB0E0A75DBE4F82E05C
:201300008C93A1E0A20FB0E0A75DBE4F99819C9383E0820F8093EC00E2E0E20FF0E0E75DD8
:20132000FE4F108304C01093DF009093E0000F90DF91CF911F9108958091EA00882369F0C9
:2013400081E041DDE091EC0081E08E0F8093EC00F0E0E75DFE4F83E0808308951092ED00C1
:201360001092EB001092EA0080E090E069CBF6DF1092EC0081E08093EA0081E090E060CB93
:20138000EDDF81E08093EB001092E3001092E7001092E6001092E5001092E40081E090E0AE
:2013A0004FCB9093E9008093E8008091EA00811158C08091E300811105C08091EB0081118E
:2013C00005C008950BDD81114CC0F7CF8091EC00882309F446C08091DF009091E00000972C
:2013E000C1F02091E8003091E9002817390738F4821B930B9093E0008093DF0004C01092B8
:20140000E0001092DF008091DF009091E000892B41F5E091ED00F0E0E75DFE4F808181301F
:2014200059F4628170E0762F66278381682B818190E013DF84E0BBCC813028F443816281A0
:201440008181CCDDF7CF823049F4818190E0982F88272281822B3FDF83E0EDCF833009F407
:201460006BCF08956091EC0089E291E02ECA60E889E291E004DA8093EC00089500245527A6
:2014800004C0080E591F880F991F009729F076956795B8F37105B9F7802D952F089597FB83
:2014A000072E16F4009406D077FD08D07BD007FC05D03EF4909581959F4F08957095619521
:2014C0007F4F0895052E97FB16F400940FD057FD05D07CD007FC02D046F408C05095409559
:2014E000309521953F4F4F4F5F4F089590958095709561957F4F8F4F9F4F0895689400137F
:20150000E894A0E0B0E0E6E8FAE01DC0EFEFE7F959016A015E23550FEE08FE2C87019B010E
:20152000AC019E23990F660B762FCB0171D0CDB7DEB7EAE024C02F923F924F925F926F9246
:201540007F928F929F92AF92BF92CF92DF92EF92FF920F931F93CF93DF93CDB7DEB7CA1B8C
:20156000DB0B0FB6F894DEBF0FBECDBF09942A88398848885F846E847D848C849B84AA842B
:20158000B984C884DF80EE80FD800C811B81AA81B981CE0FD11D0FB6F894DEBF0FBECDBFD8
:2015A000ED010895AA1BBB1B51E107C0AA1FBB1FA617B70710F0A61BB70B881F991F5A951D
:2015C000A9F780959095BC01CD010895A1E21A2EAA1BBB1BFD010DC0AA1FBB1FEE1FFF1F0A
:2015E000A217B307E407F50720F0A21BB30BE40BF50B661F771F881F991F1A9469F760959A
:201600007095809590959B01AC01BD01CF010895DF93CF939F92A0E49A2E0024D001E001F0
:20162000F00116950795F794E794D794C794B794A79448F41068A20FB31FC41FD51FE61F0D
:20164000F71F081E191E220F331F441F551F661F771F881F991F9A9421F79D01AE01BF01F0
:20166000C00111249F90CF91DF910895FB01DC0102C005900D9241505040D8F70895DC019F
:20168000CB01FC01E199FECF06C0FFBBEEBBE09A31960DB20D9241505040B8F70895E1998B
:2016A000FECF9FBB8EBBE09A99278DB30895DC01A40FB51F4150504040F0CB01840F951FDB
:2016C0002E9105D041505040D8F70895262FE199FECF9FBB8EBBE09A01970DB2021639F098
:2016E0001CBA2DBB0FB6F894E29AE19A0FBE0895F894FFCFFFFF5A0420220300000000007F
:2017000000000000000000000000000000000000000000000000000000000000FFFFFFFFCD
:20172000FFFFFFFFFFFFFFFFFFFFFFFFFFFFFFFFFFFFFFFFFFFFFFFFFFFFFFFFFFFFFFFFC9
:20174000FFFFFFFFFFFFFFFFFFFFFFFFFFFFFFFFFFFFFFFFFFFFFFFFFFFFFFFFFFFFFFFFA9
:20176000FFFFFFFFFFFFFFFFFFFFFFFFFFFFFFFFFFFFFFFFFFFFFFFFFFFFFFFFFFFFFFFF89
:20178000FFFFFFFFFFFFFFFFFFFFFFFFFFFFFFFFFFFFFFFFFFFFFFFFFFFFFFFFFFFFFFFF69
:2017A000FFFFFFFFFFFFFFFFFFFFFFFFFFFFFFFFFFFFFFFFFFFFFFFFFFFFFFFFFFFFFFFF49
:2017C000FFFFFFFFFFFFFFFFFFFFFFFFFFFFFFFFFFFFFFFFFFFFFFFFFFFFFFFFFFFFFFFF29
:2017E000FFFFFFFFFFFFFFFFFFFFFFFFFFFFFFFFFFFFFFFFFFFFFFFFFFFFFFFFFFFFFFFF09
:20180000FFFFFFFFFFFFFFFFFFFFFFFFFFFFFFFFFFFFFFFFFFFFFFFFFFFFFFFFFFFFFFFFE8
:20182000FFFFFFFFFFFFFFFFFFFFFFFFFFFFFFFFFFFFFFFFFFFFFFFFFFFFFFFFFFFFFFFFC8
:20184000FFFFFFFFFFFFFFFFFFFFFFFFFFFFFFFFFFFFFFFFFFFFFFFFFFFFFFFFFFFFFFFFA8
:20186000FFFFFFFFFFFFFFFFFFFFFFFFFFFFFFFFFFFFFFFFFFFFFFFFFFFFFFFFFFFFFFFF88
:20188000FFFFFFFFFFFFFFFFFFFFFFFFFFFFFFFFFFFFFFFFFFFFFFFFFFFFFFFFFFFFFFFF68
:2018A000FFFFFFFFFFFFFFFFFFFFFFFFFFFFFFFFFFFFFFFFFFFFFFFFFFFFFFFFFFFFFFFF48
:2018C000FFFFFFFFFFFFFFFFFFFFFFFFFFFFFFFFFFFFFFFFFFFFFFFFFFFFFFFFFFFFFFFF28
:2018E000FFFFFFFFFFFFFFFFFFFFFFFFFFFFFFFFFFFFFFFFFFFFFFFFFFFFFFFFFFFFFFFF08
:20190000FFFFFFFFFFFFFFFFFFFFFFFFFFFFFFFFFFFFFFFFFFFFFFFFFFFFFFFFFFFFFFFFE7
:20192000FFFFFFFFFFFFFFFFFFFFFFFFFFFFFFFFFFFFFFFFFFFFFFFFFFFFFFFFFFFFFFFFC7
:20194000FFFFFFFFFFFFFFFFFFFFFFFFFFFFFFFFFFFFFFFFFFFFFFFFFFFFFFFFFFFFFFFFA7
:20196000FFFFFFFFFFFFFFFFFFFFFFFFFFFFFFFFFFFFFFFFFFFFFFFFFFFF9A00BEC3FFFF68
:2019800017C0197A4005930B09021200010100803209040000000000000012011001FF00F9
:2019A0000008D01653070302000000010403090411241FBECFE5D2E0CDBFDEBF20E0A0E69E
:2019C000B0E001C01D92AC38B207E1F7BFC1A82FB92F80E090E041E050EA609530E009C05A
:2019E0002D9182279795879510F084279527305EC8F36F5FA8F30895EADF8D939D930895CC
:201A0000CF93CFB7CF93C395B39BE9F7B39B0BC0B39B09C0B39B07C0B39B05C0B39B03C08D
:201A2000B39B01C0D9C00F92DF93C0916E00DD27CA58DF4F012EB39B03C0DF910F90E6CFD4
:201A40002F930F931F934F932FEF4F6F06B303FB20F95F933F9350E03BE065C016B30126BE
:201A6000502953FDC89556B3012703FB25F92F7306B3B1F05027102713FB26F906B2223012
:201A8000F0F000C016B3012703FB27F90126502906B22430E8F54F77206816B30000F6CF32
:201AA00050274F7D206206B2102F000000C006B300265029102713FB26F906B2E2CF4F7BBB
:201AC00006B3206400C0DACF01265029187106B269F14E7F2160012F16B328C00026502957
:201AE0004D7F06B22260102F29C0012650294B7F06B22460012F2DC016B301265029477FC6
:201B00002860000006B22EC04F7E06B3206130C0422706B3499300265029102706B24FEFD6
:201B200013FB20F9297F16B379F2187159F10126502906B2012703FB21F9237F06B371F279
:201B4000002650293150D0F006B2102713FB22F9277E16B351F201265029012703FB06B25E
:201B600023F92F7C49F2000006B3102713FB24F90026502906B22F7939F270CF10E21ABF14
:201B800000271DC03B503195C31BD04010E21ABF0881033C29F10B3419F120916C00198155
:201BA000110F1213EDCF093651F10D3211F0013E39F7CAE01AB715FD02C0CA95D9F70093E3
:201BC00074003F915F914F911F910F912F91DF910F90CAB7C5FD17CFCF91CFBFCF910895BE
:201BE00020917400222369F3109172001123F1F43430F2F03093720020936D0019C00091EE
:201C0000720001309CF40AE530916F0034FD11C000936F00C1E6D0E010C0052710E000C06B
:201C200021C0052710E0C89508BB14C03AE501C032ED032EC0E0D0E032E017B31861C39A81
:201C400008B317BB58E120E84FEF20FF052708BB279517951C3F28F700004552B0F720FF2B
:201C60000527279508BB17951C3FB8F629913A9561F7077E10917300110F08BBC250D04085
:201C800011F010936C0010E21ABF086017B3177E402F477E54E05A95F1F708BB17BB48BBCB
:201CA00090CF2FEFB0E8A0E04AE0B1BF000081EE9CE0B399FECFB39BFECF0197B399FDCF26
:201CC00097FF03C0BA1B819501C0BA0FA69539F4A0E428F4281710F031B7282FA1E041509E
:201CE00021F731BF00000895F201309741F02AE7421629E1520629F481B790E002C08FEB88
:201D00009CEC21E00C0120935700E8951124CF0102962C01089514BE88E181BD87E081BD21
:201D2000BB9A2FE28BE19FE0215080409040E1F700C00000BB988AE580936F008FEF8093E4
:201D40006000AC9A8BB780628BBF0895EAE7F9E1E491EF3F11F0E1BF000084B78A7031F489
:201D6000EDE7F9E1E491EF3F09F030C1D4DF712C312C412C512C14E6CCE7D5E186B38871FC
:201D800009F014E6115029F41092730010926C0088DF0AB605FE05C033DE80E28ABF712C67
:201DA00003C02197209751F7A89522E032120CC0E0E8F9E1E054F10983E080935700E89540
:201DC0003097C1F7412C512C832D803459F4F2013297E03889E1F80750F485E08093570099
:201DE000E89505C0843019F4CD2B11F4ECC0312C80917200835087FD9BC090916D009D3248
:201E000009F094C0883009F091C083EC809361008AE580936F009091770090768091780078
:201E2000992379F1811108C082E899E1909371008093700026E06FC0813071F44114510432
:201E400009F44FC080917B00807C482E50907C0081E187BFE89545C0833081F48091790040
:201E600090917A0041DF80917B0090917C003CDF842D8F73B1F580E4382E33C08F73382EE5
:201E800030C09091790010926A00811106C010926B008AE690E022E03AC0853019F4909386
:201EA000730027C08630F9F480917A00813019F48AE999E104C0823041F488E899E1909337
:201EC00071008093700022E126C0833051F4911108C08CEA99E1909371008093700024E0B8
:201EE0001AC020E018C0883079F0893031F4909375008AE690E020E00AC021E08A3009F03B
:201F000020E08AE690E003C085E790E021E0909371008093700080917E00811105C0809133
:201F20007D00821708F4282F209360001092720080916F0084FF31C0809160008F3F69F184
:201F4000C82F893008F0C8E08C1B809360008091610098E8892780936100CC2391F0E09120
:201F60007000F091710082E690E0DC0124912D9331962C2F280F2A13F9CFF0937100E09310
:201F800070006C2F82E690E037DDCC5FCC3019F08FEF80936000C0936F00C30101963C01CF
:201FA000803B944029F4EDE7F9E1E491EF3F59F40AB605FEE0CE8DE1B39B8DE18150E1F793
:101FC00080E28ABFD8CEA7DE1BBE15BAD7CCFFCF22
:00000001FF
