:20000000BFCC7BC0CBC179C078C077C076C075C074C073C072C071C070C06FC06EC0090219
:200020001200010100A03209040000000000000012035700650062004C0069006700680016
:200040007400160373006F0077006200750067002E0063006F006D000403090412011002D6
:20006000FF000008091200A80001010203010A000000000003061E001400030057494E5523
:20008000534200000000000000000000050F3800021710050038B60834A909A0478BFDA066
:2000A000768815B6650001FE1C100500DF60DDD88945C74C9CD2659D9E648A9F0000030669
:2000C0001E00FC0011241FBECFE5D2E0DEBFCDBF10E0A0E6B0E0E4E6F3E102C005900D92CB
:2000E000AC3DB107D9F711E0ACEDB0E001C01D92AE39B107E1F7F0D733C982CFCF93DF93A6
:2001000060914401635067FDA8C080914101CCE0D0E0C81BD109C85BDE4F809140018D325D
:2001200009F08AC0683009F096C083EC809334018AE5809361001092DD008881807619F074
:20014000CE0181D666C08A8110923D019981911106C010923E012DE331E082E055C09530A8
:2001600019F48093450142C09630D1F59B81913019F48CE590E004C0923049F48EE190E01E
:20018000909343018093420190E482E126C0933009F5811109C088E590E090934301809372
:2001A000420190E484E019C0813049F482E490E0909343018093420190E486E10EC082306F
:2001C00019F480E390E0DCCF833021F4CE0114D690E003C0CE0110D690E49093DD0019C0DE
:2001E000983079F0993031F4809347012DE331E080E00AC081E09A3009F080E02DE331E095
:2002000003C027E431E081E0309343012093420109C08F3F39F4988197FD8E8190E8909386
:20022000DD0007C09F81911104C09E81981708F4892F809360000FC08091DD0087FF0BC091
:20024000CE01A1D68F3F21F48EE18093610003C0811110926000109244018091610084FF5F
:2002600051C0909160009F3F09F44CC0C92F993008F0C8E09C1B909360008091340198E8A4
:20028000982790933401CC2359F19091DD0097FF08C06C2F85E391E051D6C82F893060F512
:2002A0001FC020914201309143018C2F820FA5E3B1E0F90196FF06C094919D9331968E13EF
:2002C000FBCF04C091919D938E13FCCF2F5F3F4F8FEF8C0F280F311D30934301209342011B
:2002E0006C2F85E391E043D064E06C0F6C3041F08FEF8093600004C08FEF809360006EE1F6
:200300006093610084E196B3987131F48150D9F71092450110923F01C1E08111C0E080915E
:20032000DC008C1739F0C11103C0F894D3D37894C093DC00DF91CF910895AC9A8BB780623C
:200340008BBF0895A82FB92F80E090E041E050EA609530E009C02D9182279795879510F04F
:2003600084279527305EC8F36F5FA8F30895EADF8D939D930895A6E088279927AA9569F084
:200380000197E1F3B399FCCFB39BFECF81E09927A6B3019611F0A871D9F70895CF93CFB73F
:2003A000CF93C395B39BE9F7B39B0BC0B39B09C0B39B07C0B39B05C0B39B03C0B39B01C0DD
:2003C000D3C00F92DF93C0914101DD27C85BDE4F012EB39B03C0DF910F90E6CF2F930F9328
:2003E0001F934F932FEF4F6F06B303FB20F95F933F9350E03BE065C016B30126502953FDD0
:20040000C89556B3012703FB25F92F7306B3B1F05027102713FB26F906B22230F0F000C0B1
:2004200016B3012703FB27F90126502906B22430E8F54F77206816B30000F6CF50274F7D05
:20044000206206B2102F000000C006B300265029102713FB26F906B2E2CF4F7B06B3206437
:2004600000C0DACF01265029187106B269F14E7F2160012F16B328C0002650294D7F06B286
:200480002260102F29C0012650294B7F06B22460012F2DC016B301265029477F2860000038
:2004A00006B22EC04F7E06B3206130C0422706B3499300265029102706B24FEF13FB20F9AE
:2004C000297F16B379F2187159F10126502906B2012703FB21F9237F06B371F20026502978
:2004E0003150D0F006B2102713FB22F9277E16B351F201265029012703FB06B223F92F7CAD
:2005000049F2000006B3102713FB24F90026502906B22F7939F270CF10E21ABF002717C053
:200520003B503195C31BD04010E21ABF0881033CF9F00B34E9F020913F011981110F121318
:20054000EDCF093651F10D3211F0013E39F7009346013F915F914F911F910F912F91DF91B5
:200560000F90CAB7C5FD1DCFCF91CFBFCF91189520914601222369F310914401112321F5E9
:20058000343022F13093440120934001109141013BE0311B3093410119C0009144010130B9
:2005A0009CF40AE53091610034FD11C000936100C4E3D1E010C0052710E000C021C0052793
:2005C00010E0C89508BB14C03AE501C032ED032EC0E0D0E032E017B31861C39A08B317BB78
:2005E00058E120E84FEF20FF052708BB279517951C3F28F700004552B0F720FF0527279547
:2006000008BB17951C3FB8F629913A9561F7077E10914501110F08BBC250D04011F010936C
:200620003F0110E21ABF086017B3177E402F477E54E05A95F1F708BB17BB48BB8ACF83E055
:200640008093DE00D2D357C359DD08B606FE0FC088B7806488BF8FB51FBC982F9295990F04
:20066000907E80E068EE73E070D5CB0149D39AC082E08093DE0008957894BB98E0CF81E07D
:200680008093DE000895BB9A8BEF815039F0ECE1F0E13197F1F700C00000F7CF82E08093BA
:2006A000DE0008951092DE000895B4D08EE080BF81E28EBD9EE088E10FB6F894A89581BD10
:2006C0000FBE91BD05D039DE81E08093DE000895CF93DF93CDB7DEB760970FB6F894DEBF52
:2006E0000FBECDBF40E150E066E070E0CE01019608D6FE013196A4E6B0E09E012F5E3F4FDC
:20070000819190E08D939D93E217F307C9F760960FB6F894DEBF0FBECDBFDF91CF910895AA
:20072000FF920F931F93CF93DF931F92CDB7DEB78C0186E190E06983F4D5982F8FEF890F40
:2007400069818E3F60F4F92E691708F4F62E4F2D50E067E170E0C801D4D58F2D01C080E034
:200760000F90DF91CF911F910F91FF9008950F931F93CF938C01C62F86E190E0E3D58FEF49
:200780008C0F8E3F48F44C2F50E067E170E0C801CF911F910F91CDC5CF911F910F9108951A
:2007A00084E008958091DF00882339F01092DF0064E070E08EE591E04EC40895362FE82F50
:2007C000F0E0CF0163E070E09BD4DC01A25ABE4F12963C93129711964C931197FD012083A2
:2007E00081E08093DF00089520E030E0F901E25AFE4F8283618340832D5F3F4F2C3031051E
:20080000A9F781E08093DF000895962F672F482F892FEACF80E090E0FC01E25AFE4F12821B
:200820001182108203968C309105B1F781E08093DF00B8CF0F931F93CF93DF93182FEADFEE
:20084000C0E000E2D1E0C11719F11092600110925F0100935E01D093DF00A4DF81E291EAE9
:200860000197F1F700C000001092600110925F0110925E01D093DF0095DF97EB22E881E08F
:20088000915020408040E1F700C00000CF5FDBCFDF91CF911F910F9108950F931F93CF9374
:2008A000DF93182FB7DFC0E000E8D1E0C11719F10093600110925F0110925E01D093DF0095
:2008C00071DF81E291EA0197F1F700C000001092600110925F0110925E01D093DF0062DF21
:2008E00097EB22E881E0915020408040E1F700C00000CF5FDBCFDF91CF911F910F910895DD
:20090000AF92BF92CF92DF92EF92FF920F931F93CF93DF93282FF82E711104C0682F722F3E
:20092000822F56C0062F10E0C72FD0E0A82EB12CC8016BE270E0F5D3FB01CB0165ED7FEFBC
:20094000DFD3800F911F66E070E0DAD36C010FEF10E0C8018C1B9D0BD501BD01D1D3392F50
:20096000E92EC601BE01CCD3492F50E0C801841B950BBD01C5D3492FC8018C199D09BE01EA
:20098000BFD3692F70E0C801861B970BBD01B8D3E230F10581F03CF43097B9F0319799F41A
:2009A000922F242F12C0E330F10549F0349759F4292F932F06C0232F392F9F2D06C0942F08
:2009C000232F3F2D02C09E2D342F622F792F832FDF91CF911F910F91FF90EF90DF90CF9082
:2009E000BF90AF9008958F929F92AF92BF92EF92FF920F931F93CF93DF938B01D82F6117A3
:200A000020F46D1728F4862F03C01D1708F4812FCD2F101720F4D01728F4C02F03C0D117F6
:200A200008F4C12FC11104C060E070E080E047C0EC2EF12CE81AF108B701882777FD80951B
:200A4000982F2FEF30E040E050E0A6D3A32FF42FE52F8C2E912CA12CB12C622F7A2F8F2FB6
:200A60009E2FA501940184D3211103C060E070E025C0C0130AC0812F90E08D1B91096BE261
:200A800070E03ED3B70161D318C0402F50E0C1130BC08D2F90E0841B950B6BE270E030D3E8
:200AA000B70153D36B5A09C0CA01811B91096BE270E026D3B70149D36555722F8C2FDF91D9
:200AC000CF911F910F91FF90EF90BF90AF909F908F9008959F92AF92BF92CF92DF92EF92C9
:200AE000FF920F931F93CF93DF931F92CDB7DEB720E03FE7F32E0FE017E2E12C4CECA42E2D
:200B000046EFB42E87E0C82ED12C90E4992E80E090E08433994014F4E90C01C0E918E1BE6B
:200B2000298329DC2981853339E0930724F0AC014453594003C0A501481B590B401751071F
:200B400014F4FE2C8A01969431E0C31AD10809F7213021F020E8E22E21E0D4CFF1BE0F907B
:200B6000DF91CF911F910F91FF90EF90DF90CF90BF90AF909F9008959091E900890F80936A
:200B8000E9009091E800891710F01092E90008952091E80090E0820F911DC09714F08FEF7A
:200BA00049CE08958091E60008951F93CF93DF939091E600992329F1142FD62FC82F84E0E7
:200BC000E7DFE091E800AE2FB0E0A659BE4F1C92A1E0AE0FB0E0A659BE4FCC93A2E0AE0F57
:200BE000B0E0A659BE4FDC9384E08E0F8093E800ED5FF0E0E659FE4F1083DF91CF911F9133
:200C00000895DF91CF911F91EFCDCF93DF932091E6002223E1F0C72FD62F83E0B9DFE09113
:200C2000E800AE2FB0E0A659BE4F81E08C93A1E0AE0FB0E0A659BE4FCC9383E08E0F809387
:200C4000E800EE5FF0E0E659FE4FD08308C09093E5008093E4006093E2007093E300DF91BE
:200C6000CF910895CF93DF932091E6002223E1F0C92FD82F83E08CDFE091E800AE2FB0E063
:200C8000A659BE4F82E08C93A1E0AE0FB0E0A659BE4FCC9383E08E0F8093E800EE5FF0E076
:200CA000E659FE4FD08304C08093E0009093E100DF91CF9108958091E600882369F081E0D1
:200CC00067DFE091E80081E08E0F8093E800F0E0E659FE4F83E0808308951092E9001092F0
:200CE000E7001092E6000895F8DF1092E80081E08093E6000895F1DF81E08093E7000895C8
:200D00002091E60021116BC02091E700222309F466C02091E800222309F461C02091E00052
:200D20003091E1002115310541F42091E2003091E3002115310521F515C08217930738F483
:200D4000281B390B3093E1002093E00004C01092E1001092E0002091E0003091E100232B8B
:200D600021F30895E091E900F0E0E659FE4F8081813001F1D0F0823041F1833079F108950A
:200D80008217930738F4281B390B3093E3002093E20004C01092E3001092E2008091E20072
:200DA0009091E300892BF1F20895438162818181FCDE09C0628170E0762F66278381682BB3
:200DC000818190E022DF84E0D7CE818190E0982F88272281822B46DF83E0F6CF6CCF08953A
:200DE0006091E8008AE691E0C2CC60E38AE691E097DC8093E8000895FC012381233051F047
:200E00002F30A1F48CE890E0909343018093420188E30895FC018281833041F482E690E075
:200E2000909343018093420182E2089580E0089583E000DD98E088E10FB6F894A89581BD0A
:200E40000FBE91BDFFCFFC01918190939D01228133813093F3002093F20024813581309309
:200E6000F1002093F0004AEE50E050934301409342019630B9F1C8F4943080F4913030F5EF
:200E800082818093EA0083818093EB0084818093EC0085818093ED0084E00895943001F18F
:200EA000953009F049C020DF47C09930F9F038F49730D1F0983009F03FC092DF3DC09D3FF5
:200EC000D1F19E3FA9F09C3FB9F528C01092EF008681813408F080E48093EE008FEF0895A4
:200EE000EADE2AC008DF28C0F8DE26C07EDF24C02130310559F022303105F1F489EB90E053
:200F0000909343018093420183E2089584E890E0909343018093420185E3089527303105E7
:200F200059F48EE690E090939C0180939B018EE180939A01D3CF7CDF80E008950F931F93A6
:200F4000CF9320919A01C62F261708F4C22F0C2F10E060919B0170919C01A801C9D180911A
:200F60009B0190919C01080F191F10939C0100939B0180919A018C1B80939A018C2FCF913D
:200F80001F910F9108952091EE00261708F4622F261B2093EE003091EF00482FFC01932F33
:200FA000981BA92FAE0F8E2F841B861730F48191B0E0AC50BF4F8C93F4CF630F6093EF00EA
:200FC000211131C080919D01823081F08330D9F0813049F5E7DD811101C07FDE4091F60076
:200FE0006091F5008091F400E0DD1DC0DBDD8823D1F08091F40090E0982F88272091F500B7
:20100000822B30DE10C0CEDD811101C066DE6091F50070E0762F66278091F600682B8091F0
:20102000F40090E0F2DD81E09091EE00911180E00895B89ABA9AC298089598E087FD02C013
:20104000C09801C0C09AC29A880F00000000C2989150A1F70895CF92DF92EF92FF920F9334
:201060001F93CF93DF93EC018B01E3DF80E0E5DF80E0E3DF80E0E1DF80E0DFDF2296C12C86
:20108000D12C7801EE0CFF1CE00EF11ECE14DF0488F48FEFD2DFFE0132978081CEDFFE01E3
:2010A00031978081CADF8881C8DF83E0C80ED11C2396ECCFC0E0D0E0C017D10720F48FEFE3
:2010C000BCDF6096F9CFDF91CF911F910F91FF90EF90DF90CF9008951092DE008091DE00AF
:2010E000813049F030F0823041F0833039F4ACDA05C0DBDA03C0C7DA01C0BEDAA895EECF6C
:201100000024552704C0080E591F880F991F009729F076956795B8F37105B9F7802D952F95
:201120000895AA1BBB1B51E107C0AA1FBB1FA617B70710F0A61BB70B881F991F5A95A9F7EF
:2011400080959095BC01CD01089597FB072E16F4009406D077FD08D0E4DF07FC05D03EF4D9
:20116000909581959F4F0895709561957F4F0895052E97FB16F400942CD057FD05D068D083
:2011800007FC02D046F425C050954095309521953F4F4F4F5F4F089568940010E894A0E0A7
:2011A000B0E0E4EDF8E025C0EFEFE7F959016A015E23550FEE08FE2C87019B01AC019E23F7
:2011C000990F660B762FCB0165D0CDB7DEB7EAE02CC090958095709561957F4F8F4F9F4FB2
:2011E00008952F923F924F925F926F927F928F929F92AF92BF92CF92DF92EF92FF920F9372
:201200001F93CF93DF93CDB7DEB7CA1BDB0B0FB6F894DEBF0FBECDBF09942A88398848883D
:201220005F846E847D848C849B84AA84B984C884DF80EE80FD800C811B81AA81B981CE0F3D
:20124000D11D0FB6F894DEBF0FBECDBFED010895A1E21A2EAA1BBB1BFD010DC0AA1FBB1FFA
:20126000EE1FFF1FA217B307E407F50720F0A21BB30BE40BF50B661F771F881F991F1A9447
:2012800069F760957095809590959B01AC01BD01CF010895DF93CF939F92A0E49A2E0024D1
:2012A000D001E001F00116950795F794E794D794C794B794A79448F41068A20FB31FC41FD8
:2012C000D51FE61FF71F081E191E220F331F441F551F661F771F881F991F9A9421F79D01EA
:2012E000AE01BF01C00111249F90CF91DF910895FB01DC0102C005900D9241505040D8F72E
:201300000895DC01CB01FC01E199FECF06C0FFBBEEBBE09A31960DB20D9241505040B8F7AB
:201320000895E199FECF9FBB8EBBE09A99278DB30895DC01CB0102C02D9105D041505040F0
:20134000D8F70895262FE199FECF1CBA9FBB8EBB2DBB0FB6F894E29AE19A0FBE01960895DB
:20136000F894FFCFFF5A220300000000000000000000000000000000000000000000000095
:201380000000000000000000040035001A0368747470733A2F2F736F776275672E67697423
:2013A0006875622E696F1703687474703A2F2F6C6F63616C686F73743A383030302303681D
:2013C000747470733A2F2F736F776275672E6769746875622E696F2F7765626C69676874D7
:2013E000FFFFFFFFFFFFFFFFFFFFFFFFFFFFFFFFFFFFFFFFFFFFFFFFFFFFFFFFFFFFFFFF0D
:20140000FFFFFFFFFFFFFFFFFFFFFFFFFFFFFFFFFFFFFFFFFFFFFFFFFFFFFFFFFFFFFFFFEC
:20142000FFFFFFFFFFFFFFFFFFFFFFFFFFFFFFFFFFFFFFFFFFFFFFFFFFFFFFFFFFFFFFFFCC
:20144000FFFFFFFFFFFFFFFFFFFFFFFFFFFFFFFFFFFFFFFFFFFFFFFFFFFFFFFFFFFFFFFFAC
:20196000FFFFFFFFFFFFFFFFFFFFFFFFFFFFFFFFFFFFFFFFFFFFFFFFFFFF5100A3C3FFFFCC
:2019800017C0197A4005930B09021200010100803209040000000000000012011001FF00F9
:2019A0000008D01653070202000000010403090411241FBECFE5D2E0CDBFDEBF20E0A0E69F
:2019C000B0E001C01D92AC38B207E1F7BFC1A82FB92F80E090E041E050EA609530E009C05A
:2019E0002D9182279795879510F084279527305EC8F36F5FA8F30895EADF8D939D930895CC
:201A0000CF93CFB7CF93C395B39BE9F7B39B0BC0B39B09C0B39B07C0B39B05C0B39B03C08D
:201A2000B39B01C0D9C00F92DF93C0916E00DD27CA58DF4F012EB39B03C0DF910F90E6CFD4
:201A40002F930F931F934F932FEF4F6F06B303FB20F95F933F9350E03BE065C016B30126BE
:201A6000502953FDC89556B3012703FB25F92F7306B3B1F05027102713FB26F906B2223012
:201A8000F0F000C016B3012703FB27F90126502906B22430E8F54F77206816B30000F6CF32
:201AA00050274F7D206206B2102F000000C006B300265029102713FB26F906B2E2CF4F7BBB
:201AC00006B3206400C0DACF01265029187106B269F14E7F2160012F16B328C00026502957
:201AE0004D7F06B22260102F29C0012650294B7F06B22460012F2DC016B301265029477FC6
:201B00002860000006B22EC04F7E06B3206130C0422706B3499300265029102706B24FEFD6
:201B200013FB20F9297F16B379F2187159F10126502906B2012703FB21F9237F06B371F279
:201B4000002650293150D0F006B2102713FB22F9277E16B351F201265029012703FB06B25E
:201B600023F92F7C49F2000006B3102713FB24F90026502906B22F7939F270CF10E21ABF14
:201B800000271DC03B503195C31BD04010E21ABF0881033C29F10B3419F120916C00198155
:201BA000110F1213EDCF093651F10D3211F0013E39F7CAE01AB715FD02C0CA95D9F70093E3
:201BC00074003F915F914F911F910F912F91DF910F90CAB7C5FD17CFCF91CFBFCF910895BE
:201BE00020917400222369F3109172001123F1F43430F2F03093720020936D0019C00091EE
:201C0000720001309CF40AE530916F0034FD11C000936F00C1E6D0E010C0052710E000C06B
:201C200021C0052710E0C89508BB14C03AE501C032ED032EC0E0D0E032E017B31861C39A81
:201C400008B317BB58E120E84FEF20FF052708BB279517951C3F28F700004552B0F720FF2B
:201C60000527279508BB17951C3FB8F629913A9561F7077E10917300110F08BBC250D04085
:201C800011F010936C0010E21ABF086017B3177E402F477E54E05A95F1F708BB17BB48BBCB
:201CA00090CF2FEFB0E8A0E04AE0B1BF000081EE9CE0B399FECFB39BFECF0197B399FDCF26
:201CC00097FF03C0BA1B819501C0BA0FA69539F4A0E428F4281710F031B7282FA1E041509E
:201CE00021F731BF00000895F201309741F02AE7421629E1520629F481B790E002C08FEB88
:201D00009CEC21E00C0120935700E8951124CF0102962C01089514BE88E181BD87E081BD21
:201D2000BB9A2FE28BE19FE0215080409040E1F700C00000BB988AE580936F008FEF8093E4
:201D40006000AC9A8BB780628BBF0895EAE7F9E1E491EF3F11F0E1BF000084B78A7031F489
:201D6000EDE7F9E1E491EF3F09F02DC1D4DF712C312C412C512C14E6CCE7D5E186B38871FF
:201D800009F014E6115029F41092730010926C0088DF0AB605FE05C033DE80E28ABF712C67
:201DA00003C02197209751F7A89522E032120CC0E0E8F9E1E054F10983E080935700E89540
:201DC0003097C1F7412C512C832D803459F4F2013297E03889E1F80750F485E08093570099
:201DE000E89505C0843019F4CD2B11F4E9C0312C80917200835087FD98C090916D009D324E
:201E000009F091C0883009F08EC083EC809361008AE580936F00909177009076809178007E
:201E2000992361F1811108C082E899E1909371008093700026E06CC0813059F44114510465
:201E400009F44CC080917B00807C482E50907C0045C0833081F48091790090917A0044DFAA
:201E600080917B0090917C003FDF842D8F73B1F580E4382E33C08F73382E30C09091790013
:201E800010926A00811106C010926B008AE690E022E03AC0853019F49093730027C0863000
:201EA000F9F480917A00813019F48AE999E104C0823041F488E899E1909371008093700053
:201EC00022E126C0833051F4911108C08CEA99E1909371008093700024E01AC020E018C0FA
:201EE000883079F0893031F4909375008AE690E020E00AC021E08A3009F020E08AE690E00D
:201F000003C085E790E021E0909371008093700080917E00811105C080917D00821708F401
:201F2000282F209360001092720080916F0084FF31C0809160008F3F69F1C82F893008F0EE
:201F4000C8E08C1B809360008091610098E8892780936100CC2391F0E0917000F091710066
:201F600082E690E0DC0124912D9331962C2F280F2A13F9CFF0937100E09370006C2F82E6FF
:201F800090E03ADDCC5FCC3019F08FEF80936000C0936F00C30101963C01803B944029F493
:201FA000EDE7F9E1E491EF3F59F40AB605FEE3CE8DE1B39B8DE18150E1F780E28ABFDBCEE8
:0A1FC000AADE1BBE15BADACCFFCF73
:00000001FF
