:20000000BFCC96C0C2C094C093C092C091C090C08FC08EC08DC08CC08BC08AC089C00902C4
:200020001200010100A0FA09040000000000000012035700650062004C006900670068004E
:200040007400160373006F0077006200750067002E0063006F006D000403090412011002D6
:20006000FF000008091200A80900010203011103006C6F63616C686F73743A383030301CAB
:200080000301736F776275672E6769746875622E696F2F7765626C6967687407000700007B
:2000A00001020A000000000003061E001400030057494E555342000000000000000000001D
:2000C000050F3900021810050038B60834A909A0478BFDA0768815B6650001FE011C10055A
:2000E00000DF60DDD88945C74C9CD2659D9E648A9F000003061E00FC000011241FBECFE5A7
:20010000D2E0DEBFCDBF11E0A0E6B0E0ECE8F7E102C005900D92A830B107D9F721E0A8E072
:20012000B1E001C01D92A03CB207E1F7CDD22CCB67CFA82FB92F80E090E041E050EA6095A6
:2001400030E009C02D9182279795879510F084279527305EC8F36F5FA8F30895EADF8D9378
:200160009D930895A6E088279927AA9569F00197E1F3B399FCCFB39BFECF81E09927A6B30D
:20018000019611F0A871D9F70895CF93CFB7CF93C395B39BE9F7B39B0BC0B39B09C0B39BF3
:2001A00007C0B39B05C0B39B03C0B39B01C0D3C00F92DF93C0917A01DD27CF57DE4F012E4D
:2001C000B39B03C0DF910F90E6CF2F930F931F934F932FEF4F6F06B303FB20F95F933F93E2
:2001E00050E03BE065C016B30126502953FDC89556B3012703FB25F92F7306B3B1F05027B9
:20020000102713FB26F906B22230F0F000C016B3012703FB27F90126502906B22430E8F538
:200220004F77206816B30000F6CF50274F7D206206B2102F000000C006B3002650291027D7
:2002400013FB26F906B2E2CF4F7B06B3206400C0DACF01265029187106B269F14E7F21600F
:20026000012F16B328C0002650294D7F06B22260102F29C0012650294B7F06B22460012FFA
:200280002DC016B301265029477F2860000006B22EC04F7E06B3206130C0422706B349931F
:2002A00000265029102706B24FEF13FB20F9297F16B379F2187159F10126502906B201271C
:2002C00003FB21F9237F06B371F2002650293150D0F006B2102713FB22F9277E16B351F29F
:2002E00001265029012703FB06B223F92F7C49F2000006B3102713FB24F90026502906B20C
:200300002F7939F270CF10E21ABF002717C03B503195C31BD04010E21ABF0881033CF9F047
:200320000B34E9F0209178011981110F1213EDCF093651F10D3211F0013E39F700937F019D
:200340003F915F914F911F910F912F91DF910F90CAB7C5FD1DCFCF91CFBFCF911895209103
:200360007F01222369F310917D01112321F5343022F130937D012093790110917A013BE0D7
:20038000311B30937A0119C000917D0101309CF40AE53091620034FD11C000936200CDE66E
:2003A000D1E010C0052710E000C021C0052710E0C89508BB14C03AE501C032ED032EC0E01F
:2003C000D0E032E017B31861C39A08B317BB58E120E84FEF20FF052708BB279517951C3FDE
:2003E00028F700004552B0F720FF0527279508BB17951C3FB8F629913A9561F7077E10911A
:200400007E01110F08BBC250D04011F01093780110E21ABF086017B3177E402F477E54E041
:200420005A95F1F708BB17BB48BB8ACFCF93DF9360917D01635067FDB8C080917A01CCE0EA
:20044000D0E0C81BD109CF57DE4F809179018D3209F097C0683009F0A6C083EC80936D015B
:200460008AE580936200109209018881807619F0CE0155D36EC09A811092760189818111EF
:2004800007C01092770126E731E082E090E05DC0853019F490937E0145C08630E9F58B8165
:2004A000813019F48CE590E004C0823051F48EE190E090937C0180937B0120E482E190E0FD
:2004C00028C0833019F591110AC088E590E090937C0180937B0120E484E090E01AC0913088
:2004E00051F482E490E090937C0180937B0120E486E190E00EC0923019F480E390E0D9CFBF
:20050000933021F4CE01E0D220E003C0CE01DCD220E4209309011DC0883099F0893039F47D
:200520009093800126E731E080E090E00EC031E020E08A3009F030E0832F922F26E731E0F6
:2005400004C020E831E081E090E030937C0120937B018F3F2FEF920749F4288127FF02C02B
:200560008E819F8120E82093090106C02E813F812817390708F4C901909361008093600016
:2005800012C08091090187FF0EC0CE0189D38F3F21F48EE18093620006C0882321F0109204
:2005A00061001092600010927D018091620084FF6BC080916000909161008F3F2FEF92071F
:2005C00009F462C0BC018930910510F068E070E0861B970B909361008093600080916D019F
:2005E00098E8892780936D01C62F6623B1F18091090187FF07C08EE691E027D3C82F893033
:20060000D0F52BC020917B0130917C0186FF12C0AEE6B1E04DE651E040955095420F531F62
:20062000862F8A0FFA01EA0FFB1FE491ED938A13F9CF09C0EEE6F1E0D901862F8E0F9D913C
:2006400091938E13FCCF2F5F3F4F8FEF8C0F280F311D30937C0120937B016C2F8EE691E061
:200660007DDDCC5FCC3071F02FEF3FEF309361002093600007C08FEF9FEF909361008093AB
:200680006000CEE1C093620084E196B3987131F48150D9F710927E0110927801C1E08111AA
:2006A000C0E0809108018C1739F0C11103C0F89430D07894C0930801DF91CF910895AC9A78
:2006C0008BB780628BBF0895CF93DF931F92CDB7DEB72EE088E190E00FB6F894A89581BDBE
:2006E0000FBE21BDECDFBB9A8BEF815039F0ECE1F0E13197F1F700C00000F7CF7894BB9888
:20070000CE01019653D092DECE0101965CD0A895FACFAF92BF92CF92DF92EF92FF920F9330
:200720001F93CF93DF93C12C2FE7A22ECFE0D7E23CECE32E36EFF32EC11002C0D12C02C027
:2007400090E8D92E07E010E080E4B82E80E090E08433994014F4DB0C01C0DB18D1BE02DD88
:20076000853329E0920724F09C012453394003C09701281B390B2C173D0714F4AD2CE9014A
:20078000B694015011090115110511F7C39482E0C812D2CFA1BEDF91CF911F910F91FF902E
:2007A000EF90DF90CF90BF90AF90089528D18EE080BF81E28EBD41D0882319F06DD096D6FF
:2007C00001C091D01CC6CF93DF9308B606FE32C088B7806488BF8FB590E0982F88279295D2
:2007E000990F907E68EE73E099D6EB011FBCCB014ED1882319F083E090E061D15BD18230E2
:20080000910518F0039721F015C0CE0109D612C040E060E080916400E2D09091630080911E
:200820006400890F809364008850893518F0919590936300DF91CF91A0C0CF93DF93CDB773
:20084000DEB728970FB6F894DEBF0FBECDBF87E5898385E68A8382E68B838CE48C8344E0F4
:2008600050E060E070E0CE01059655D744E050E0BE016B5F7F4FCE01019640D721E0892B45
:2008800009F020E0822F28960FB6F894DEBF0FBECDBFDF91CF910895CF93DF93CDB7DEB74F
:2008A00060970FB6F894DEBF0FBECDBF40E150E066E070E0CE0101962ED7FE013196A8EE4C
:2008C000B0E0CE014196219130E02D933D93E817F907C9F760960FB6F894DEBF0FBECDBF94
:2008E000DF91CF910895E8EEF0E081E690E081939193019681379105D1F70895EF92FF927A
:200900001F93CF93DF931F92CDB7DEB77C0186E190E0698310D79FEF980F6981993660F41E
:20092000182F681708F4162F412F50E067E170E0C701F1D6812F01C080E00F90DF91CF91A9
:200940001F91FF90EF9008951F93CF93DF93EC01162F86E190E006D78FEF810F893648F4C7
:20096000412F50E067E170E0CE01DF91CF911F91EAC6DF91CF911F91089580910E01882358
:2009800039F010920E0162E070E08FE091E00DC208950F931F93CF93DF93EB018A01E82FE9
:2009A000F0E0CF0163E070E0A8D5DC01A15FBE4F12968C911297888311968C91D8018C9368
:2009C000CF0163E070E099D5815F9E4FFC018081D9018C93DF91CF911F910F9108958093B2
:2009E00011016093100140930F0191E090930E018093140160931301409312010895109207
:200A000011011092100110920F0181E080930E01109214011092130110921201AECF0F939B
:200A20001F93CF93DF93182FEADFC0E000E2D1E0C11719F1109211011092100100930F0101
:200A4000D0930E019ADF81E291EA0197F1F700C00000109211011092100110920F01D09311
:200A60000E018BDF97EB22E881E0915020408040E1F700C00000CF5FDBCFDF91CF911F911F
:200A80000F91089590930D0180930C01089520910C0130910D012115310551F0281B390B6A
:200AA00030930D0120930C0181E0121613060CF480E0089580910A0190910B0108959093FD
:200AC0000B0180930A010895FC012381233059F02F30B1F480EC90E090937C0180937B0103
:200AE00089E390E00895FC018281833049F486EE90E090937C0180937B0182E290E0089509
:200B000080E090E0089583E08ADF28E088E190E00FB6F894A89581BD0FBE21BDFFCFFC0179
:200B2000618160939B018281938190931E0180931D012481358130931C0120931B0145E18A
:200B400051E050937C0140937B01673009F442C0C0F4643088F4613050F582818093150159
:200B600083818093160184818093170185818093180184E090E00895653041F148F51BD481
:200B800061C06B3FF9F058F4693041F128F16B3009F058C068EE73E0B0D474DF53C06D3F86
:200BA00009F44FC008F440C06E3FD1F04BC010921A018681813408F080E4809319018FEF34
:200BC0009FEF089510921A018681F7CF0FD43AC016D438C002D436C084D434C087D432C03C
:200BE0002130310521F02230310549F02BC08BE990E090939A018093990187E01FC081306B
:200C0000910551F00297F1F48EE690E090939A018093990181E112C08FE790E090939A0158
:200C2000809399018CE10AC02730310559F482EA90E090939A01809399018EE18093980194
:200C4000BECF61DF80E090E008951F93CF93DF9320919801162F261708F4122F2091970182
:200C6000C12FD0E06091990170919A01AE01222311F051D501C039D52091990130919A011C
:200C80002C0F3D1F30939A012093990180919801811B80939801812FDF91CF911F91089553
:200CA000CF93C62F30919B0120911A013B3F99F4462F50E030E0B90160587F4F44D580918E
:200CC0001A018C0F80931A01909119019C1B9093190181E054C040911901461708F4642FB5
:200CE000461B40931901582FFC01922F981BA92FAE0F8E2F851B861730F48191B0E0A15E5A
:200D0000BE4F8C93F4CF260F20931A01411134C03230A9F0333001F1313071F59BD1811186
:200D200001C05BD360E070E080E090E0D5D2409121016091200180911F018FD11DC08AD1EF
:200D40008823D1F080911F0190E0982F882720912001822BFFD210C07DD1811101C03DD33F
:200D60006091200170E0762F662780912101682B80911F0190E0B0D281E0909119019111B8
:200D800080E0CF910895B89ABA9AC298089598E087FD02C0C09801C0C09AC29A880F000035
:200DA0000000C2989150A1F70895CF92DF92EF92FF920F931F93CF93DF93EC018B01E3DF7C
:200DC00080E0E5DF80E0E3DF80E0E1DF80E0DFDF2296C12CD12C7801EE0CFF1CE00EF11E62
:200DE000CE14DF0488F48FEFD2DFFE0132978081CEDFFE0131978081CADF8881C8DF83E089
:200E0000C80ED11C2396ECCFC0E0D0E0C017D10720F48FEFBCDF6096F9CFDF91CF911F9131
:200E20000F91FF90EF90DF90CF90089590916C01980F90936C0180916500981710F010920D
:200E40006C0108952091650090E0820F911D8038910514F08FEFE3CD08954F925F926F92D3
:200E60007F928F929F92AF92BF92CF92DF92EF92FF92CF93DF93CDB7DEB728970FB6F8949C
:200E8000DEBF0FBECDBF8091610190916201C0906801D0906901C816D90638F48C199D09AE
:200EA000909362018093610104C010926201109261018091610190916201892B21F5109207
:200EC0006301C0909C01D0909D01E0909E01F0909F01CD2CDE2CEF2CFF24E7FCFA948091D1
:200EE000B0019091B101A091B201B091B301692F7A2F8B2F992787FD9A954C2D8091B501E7
:200F00006EDD80E092C08091660190916701019709F08AC0E12CF12CC701B6012091AC01F1
:200F20003091AD014091AE015091AF0126D329833A834B835C834090A4015090A501609037
:200F4000A6017090A70129813A814B815C81420E531E641E751E4092A4015092A50160926D
:200F6000A6017092A701C701B6012091BC013091BD014091BE015091BF01FFD229833A8349
:200F80004B835C838090A8019090A901A090AA01B090AB0189819A81AB81BC81880E991E7F
:200FA000AA1EBB1E8092A8019092A901A092AA01B092AB01C701B6012091A0013091A1010A
:200FC0004091A2015091A301D8D229833A834B835C836D837E838F8398878091B80190914B
:200FE000B901A091BA01B091BB0129813A814B815C81820F931FA41FB51F8093B801909377
:20100000B901A093BA01B093BB01C92EDA2EEB2EFF24E7FCFA949927B7FC9A958B2D7A2D7C
:20102000692D4C2D852DDBDC81E028960FB6F894DEBF0FBECDBFDF91CF91FF90EF90DF9085
:20104000CF90BF90AF909F908F907F906F905F904F90089580916A0108954F925F926F92F0
:201060007F928F929F92AF92BF92CF92DF92EF92FF920F931F93CF93DF93CDB7DEB72F9790
:201080000FB6F894DEBF0FBECDBF182FE62EF42E80916A018823F9F084E0D4DEE091650090
:2010A000AE2FB0E0AA59BF4F1C92A1E0AE0FB0E0AA59BF4F1C93A2E0AE0FB0E0AA59BF4F96
:2010C000EC9284E08E0F80936500ED5FF0E0EA59FF4FF082EAC081E0809363018091640102
:2010E0009091650190936201809361019E012F5F3F4FAE014E5F5F4FBE016D5F7F4F80E0F0
:2011000048DC6B8170E0762F6627CB01AA2797FDA095BA2F8093A4019093A501A093A60193
:20112000B093A7014A80512C542C4424662457FC6094762C4092A8015092A9016092AA017E
:201140007092AB01298130E0322F22275901CC24B7FCC094DC2CAC82BD82CE82DF82A092D4
:20116000B801B092B901C092BA01D092BB01012F10E0102F00279801442737FD4095542F79
:201180002C873D874E875F872093B4013093B5014093B6015093B7014E2D50E0542F44277E
:2011A0005A01CC24B7FCC094DC2CA886B986CA86DB86A092B001B092B101C092B201D09279
:2011C000B3018F2C912C982C8824AA2497FCA094BA2C80929C0190929D01A0929E01B09276
:2011E0009F01C0906401D0906501C114D10409F440C0E12CF12C0C851D852E853F85081B36
:20120000190B2A0B3B0BC901B801A701960199D12093AC013093AD014093AE015093AF011D
:20122000688579858A859B856419750986099709A701960186D12093BC013093BD01409310
:20124000BE015093BF01C501B4010C811D812E813F81601B710B820B930BA701960171D174
:201260002093A0013093A1014093A2015093A30118C01092AC011092AD011092AE0110924E
:20128000AF011092BC011092BD011092BE011092BF011092A0011092A1011092A2011092AE
:2012A000A301809163018111D8DD2F960FB6F894DEBF0FBECDBFDF91CF911F910F91FF9013
:2012C000EF90DF90CF90BF90AF909F908F907F906F905F904F9008951F93CF93DF9300D016
:2012E000CDB7DEB7182F80916A01882329F184E069837A83A7DD90916500A92FB0E0AA598B
:20130000BF4F81E08C93A1E0A90FB0E0AA59BF4F1C93A2E0A90FB0E0AA59BF4F7A817C93D1
:2013200084E0890F80936500E3E0E90FF0E0EA59FF4F6981608308C01093660190936701F3
:2013400060936401709365010F900F90DF91CF911F9108951F93CF93DF931F92CDB7DEB721
:20136000182F80916A018823E9F083E099836ADD20916500A22FB0E0AA59BF4F82E08C9357
:20138000A1E0A20FB0E0AA59BF4F99819C9383E0820F80936500E2E0E20FF0E0EA59FF4FB1
:2013A000108304C010935F01909360010F90DF91CF911F91089580916A01882369F081E0B2
:2013C00041DDE091650081E08E0F80936500F0E0EA59FF4F83E08083089510926C0110928E
:2013E0006B0110926A0180E090E069CBF6DF1092650081E080936A0181E090E060CBEDDFED
:2014000081E080936B01109263011092670110926601109265011092640181E090E04FCBD9
:20142000909369018093680180916A01811158C080916301811105C080916B01811105C0DD
:2014400008950BDD81114CC0F7CF80916500882309F446C080915F01909160010097C1F044
:2014600020916801309169012817390738F4821B930B9093600180935F0104C01092600183
:2014800010925F0180915F0190916001892B41F5E0916C01F0E0EA59FF4F8081813059F42F
:2014A000628170E0762F66278381682B818190E013DF84E0BBCC813028F44381628181816B
:2014C000CCDDF7CF823049F4818190E0982F88272281822B3FDF83E0EDCF833009F46BCF4F
:2014E00008956091650086E690E02ECA60E886E690E004DA8093650008950024552704C0AA
:20150000080E591F880F991F009729F076956795B8F37105B9F7802D952F089597FB072E91
:2015200016F4009406D077FD08D07BD007FC05D03EF4909581959F4F0895709561957F4F07
:201540000895052E97FB16F400940FD057FD05D07CD007FC02D046F408C0509540953095E1
:2015600021953F4F4F4F5F4F089590958095709561957F4F8F4F9F4F089568940013E89447
:20158000A0E0B0E0E5ECFAE01DC0EFEFE7F959016A015E23550FEE08FE2C87019B01AC015A
:2015A0009E23990F660B762FCB0171D0CDB7DEB7EAE024C02F923F924F925F926F927F9262
:2015C0008F929F92AF92BF92CF92DF92EF92FF920F931F93CF93DF93CDB7DEB7CA1BDB0B37
:2015E0000FB6F894DEBF0FBECDBF09942A88398848885F846E847D848C849B84AA84B98454
:20160000C884DF80EE80FD800C811B81AA81B981CE0FD11D0FB6F894DEBF0FBECDBFED01A6
:201620000895AA1BBB1B51E107C0AA1FBB1FA617B70710F0A61BB70B881F991F5A95A9F7EA
:2016400080959095BC01CD010895A1E21A2EAA1BBB1BFD010DC0AA1FBB1FEE1FFF1FA21770
:20166000B307E407F50720F0A21BB30BE40BF50B661F771F881F991F1A9469F760957095CD
:20168000809590959B01AC01BD01CF010895DF93CF939F92A0E49A2E0024D001E001F00184
:2016A00016950795F794E794D794C794B794A79448F41068A20FB31FC41FD51FE61FF71F68
:2016C000081E191E220F331F441F551F661F771F881F991F9A9421F79D01AE01BF01C001C5
:2016E00011249F90CF91DF910895FB01DC0102C005900D9241505040D8F70895FB01DC01E4
:2017000004C08D910190801921F441505040C8F7881B990B0895DC01CB01FC01E199FECFF7
:2017200006C0FFBBEEBBE09A31960DB20D9241505040B8F70895E199FECF9FBB8EBBE09A10
:2017400099278DB30895DC01A40FB51F4150504040F0CB01840F951F2E9105D0415050406F
:20176000D8F70895262FE199FECF9FBB8EBBE09A01970DB2021639F01CBA2DBB0FB6F8949D
:20178000E29AE19A0FBE0895F894FFCFFFFF5A04201500FF00000203E80000FF000203E825
:2017A000000000FF0203E8000000000000000000000000000000000000000000000000003D
:2017C000000000000000000000000000000000000000000000000000000000000000000009
:2017E0000000000000000000000000000000000000000000000000000000000000000000E9
:201800000000000000000000000000000000000000002203000000000000000000000000A3
:201820000000000000000000000000000000000000000000FFFFFFFFFFFFFFFFFFFFFFFFB4
:20184000FFFFFFFFFFFFFFFFFFFFFFFFFFFFFFFFFFFFFFFFFFFFFFFFFFFFFFFFFFFFFFFFA8
:20186000FFFFFFFFFFFFFFFFFFFFFFFFFFFFFFFFFFFFFFFFFFFFFFFFFFFFFFFFFFFFFFFF88
:20188000FFFFFFFFFFFFFFFFFFFFFFFFFFFFFFFFFFFFFFFFFFFFFFFFFFFFFFFFFFFFFFFF68
:2018A000FFFFFFFFFFFFFFFFFFFFFFFFFFFFFFFFFFFFFFFFFFFFFFFFFFFFFFFFFFFFFFFF48
:2018C000FFFFFFFFFFFFFFFFFFFFFFFFFFFFFFFFFFFFFFFFFFFFFFFFFFFFFFFFFFFFFFFF28
:2018E000FFFFFFFFFFFFFFFFFFFFFFFFFFFFFFFFFFFFFFFFFFFFFFFFFFFFFFFFFFFFFFFF08
:20190000FFFFFFFFFFFFFFFFFFFFFFFFFFFFFFFFFFFFFFFFFFFFFFFFFFFFFFFFFFFFFFFFE7
:20192000FFFFFFFFFFFFFFFFFFFFFFFFFFFFFFFFFFFFFFFFFFFFFFFFFFFFFFFFFFFFFFFFC7
:20194000FFFFFFFFFFFFFFFFFFFFFFFFFFFFFFFFFFFFFFFFFFFFFFFFFFFFFFFFFFFFFFFFA7
:20196000FFFFFFFFFFFFFFFFFFFFFFFFFFFFFFFFFFFFFFFFFFFFFFFFFFFF9700BEC3FFFF6B
:2019800017C0197A4005930B09021200010100803209040000000000000012011001FF00F9
:2019A0000008D01653070302000000010403090411241FBECFE5D2E0CDBFDEBF20E0A0E69E
:2019C000B0E001C01D92AC38B207E1F7BFC1A82FB92F80E090E041E050EA609530E009C05A
:2019E0002D9182279795879510F084279527305EC8F36F5FA8F30895EADF8D939D930895CC
:201A0000CF93CFB7CF93C395B39BE9F7B39B0BC0B39B09C0B39B07C0B39B05C0B39B03C08D
:201A2000B39B01C0D9C00F92DF93C0916E00DD27CA58DF4F012EB39B03C0DF910F90E6CFD4
:201A40002F930F931F934F932FEF4F6F06B303FB20F95F933F9350E03BE065C016B30126BE
:201A6000502953FDC89556B3012703FB25F92F7306B3B1F05027102713FB26F906B2223012
:201A8000F0F000C016B3012703FB27F90126502906B22430E8F54F77206816B30000F6CF32
:201AA00050274F7D206206B2102F000000C006B300265029102713FB26F906B2E2CF4F7BBB
:201AC00006B3206400C0DACF01265029187106B269F14E7F2160012F16B328C00026502957
:201AE0004D7F06B22260102F29C0012650294B7F06B22460012F2DC016B301265029477FC6
:201B00002860000006B22EC04F7E06B3206130C0422706B3499300265029102706B24FEFD6
:201B200013FB20F9297F16B379F2187159F10126502906B2012703FB21F9237F06B371F279
:201B4000002650293150D0F006B2102713FB22F9277E16B351F201265029012703FB06B25E
:201B600023F92F7C49F2000006B3102713FB24F90026502906B22F7939F270CF10E21ABF14
:201B800000271DC03B503195C31BD04010E21ABF0881033C29F10B3419F120916C00198155
:201BA000110F1213EDCF093651F10D3211F0013E39F7CAE01AB715FD02C0CA95D9F70093E3
:201BC00074003F915F914F911F910F912F91DF910F90CAB7C5FD17CFCF91CFBFCF910895BE
:201BE00020917400222369F3109172001123F1F43430F2F03093720020936D0019C00091EE
:201C0000720001309CF40AE530916F0034FD11C000936F00C1E6D0E010C0052710E000C06B
:201C200021C0052710E0C89508BB14C03AE501C032ED032EC0E0D0E032E017B31861C39A81
:201C400008B317BB58E120E84FEF20FF052708BB279517951C3F28F700004552B0F720FF2B
:201C60000527279508BB17951C3FB8F629913A9561F7077E10917300110F08BBC250D04085
:201C800011F010936C0010E21ABF086017B3177E402F477E54E05A95F1F708BB17BB48BBCB
:201CA00090CF2FEFB0E8A0E04AE0B1BF000081EE9CE0B399FECFB39BFECF0197B399FDCF26
:201CC00097FF03C0BA1B819501C0BA0FA69539F4A0E428F4281710F031B7282FA1E041509E
:201CE00021F731BF00000895F201309741F02AE7421629E1520629F481B790E002C08FEB88
:201D00009CEC21E00C0120935700E8951124CF0102962C01089514BE88E181BD87E081BD21
:201D2000BB9A2FE28BE19FE0215080409040E1F700C00000BB988AE580936F008FEF8093E4
:201D40006000AC9A8BB780628BBF0895EAE7F9E1E491EF3F11F0E1BF000084B78A7031F489
:201D6000EDE7F9E1E491EF3F09F030C1D4DF712C312C412C512C14E6CCE7D5E186B38871FC
:201D800009F014E6115029F41092730010926C0088DF0AB605FE05C033DE80E28ABF712C67
:201DA00003C02197209751F7A89522E032120CC0E0E8F9E1E054F10983E080935700E89540
:201DC0003097C1F7412C512C832D803459F4F2013297E03889E1F80750F485E08093570099
:201DE000E89505C0843019F4CD2B11F4ECC0312C80917200835087FD9BC090916D009D3248
:201E000009F094C0883009F091C083EC809361008AE580936F009091770090768091780078
:201E2000992379F1811108C082E899E1909371008093700026E06FC0813071F44114510432
:201E400009F44FC080917B00807C482E50907C0081E187BFE89545C0833081F48091790040
:201E600090917A0041DF80917B0090917C003CDF842D8F73B1F580E4382E33C08F73382EE5
:201E800030C09091790010926A00811106C010926B008AE690E022E03AC0853019F4909386
:201EA000730027C08630F9F480917A00813019F48AE999E104C0823041F488E899E1909337
:201EC00071008093700022E126C0833051F4911108C08CEA99E1909371008093700024E0B8
:201EE0001AC020E018C0883079F0893031F4909375008AE690E020E00AC021E08A3009F03B
:201F000020E08AE690E003C085E790E021E0909371008093700080917E00811105C0809133
:201F20007D00821708F4282F209360001092720080916F0084FF31C0809160008F3F69F184
:201F4000C82F893008F0C8E08C1B809360008091610098E8892780936100CC2391F0E09120
:201F60007000F091710082E690E0DC0124912D9331962C2F280F2A13F9CFF0937100E09310
:201F800070006C2F82E690E037DDCC5FCC3019F08FEF80936000C0936F00C30101963C01CF
:201FA000803B944029F4EDE7F9E1E491EF3F59F40AB605FEE0CE8DE1B39B8DE18150E1F793
:101FC00080E28ABFD8CEA7DE1BBE15BAD7CCFFCF22
:00000001FF
