:20000000BFCC96C0C2C094C093C092C091C090C08FC08EC08DC08CC08BC08AC089C00902C4
:200020001200010100A0FA09040000000000000012035700650062004C006900670068004E
:200040007400160373006F0077006200750067002E0063006F006D000403090412011002D6
:20006000FF000008091200A80001010203011103006C6F63616C686F73743A383030301CB3
:200080000301736F776275672E6769746875622E696F2F7765626C6967687407000700007B
:2000A00001020A000000000003061E001400030057494E555342000000000000000000001D
:2000C000050F3900021810050038B60834A909A0478BFDA0768815B6650001FE011C10055A
:2000E00000DF60DDD88945C74C9CD2659D9E648A9F000003061E00FC000011241FBECFE5A7
:20010000D2E0DEBFCDBF11E0A0E6B0E0ECE5F7E102C005900D92A830B107D9F721E0A8E075
:20012000B1E001C01D92A03CB207E1F7C6D214CB67CFA82FB92F80E090E041E050EA6095C5
:2001400030E009C02D9182279795879510F084279527305EC8F36F5FA8F30895EADF8D9378
:200160009D930895A6E088279927AA9569F00197E1F3B399FCCFB39BFECF81E09927A6B30D
:20018000019611F0A871D9F70895CF93CFB7CF93C395B39BE9F7B39B0BC0B39B09C0B39BF3
:2001A00007C0B39B05C0B39B03C0B39B01C0D3C00F92DF93C0917A01DD27CF57DE4F012E4D
:2001C000B39B03C0DF910F90E6CF2F930F931F934F932FEF4F6F06B303FB20F95F933F93E2
:2001E00050E03BE065C016B30126502953FDC89556B3012703FB25F92F7306B3B1F05027B9
:20020000102713FB26F906B22230F0F000C016B3012703FB27F90126502906B22430E8F538
:200220004F77206816B30000F6CF50274F7D206206B2102F000000C006B3002650291027D7
:2002400013FB26F906B2E2CF4F7B06B3206400C0DACF01265029187106B269F14E7F21600F
:20026000012F16B328C0002650294D7F06B22260102F29C0012650294B7F06B22460012FFA
:200280002DC016B301265029477F2860000006B22EC04F7E06B3206130C0422706B349931F
:2002A00000265029102706B24FEF13FB20F9297F16B379F2187159F10126502906B201271C
:2002C00003FB21F9237F06B371F2002650293150D0F006B2102713FB22F9277E16B351F29F
:2002E00001265029012703FB06B223F92F7C49F2000006B3102713FB24F90026502906B20C
:200300002F7939F270CF10E21ABF002717C03B503195C31BD04010E21ABF0881033CF9F047
:200320000B34E9F0209178011981110F1213EDCF093651F10D3211F0013E39F700937F019D
:200340003F915F914F911F910F912F91DF910F90CAB7C5FD1DCFCF91CFBFCF911895209103
:200360007F01222369F310917D01112321F5343022F130937D012093790110917A013BE0D7
:20038000311B30937A0119C000917D0101309CF40AE53091620034FD11C000936200CDE66E
:2003A000D1E010C0052710E000C021C0052710E0C89508BB14C03AE501C032ED032EC0E01F
:2003C000D0E032E017B31861C39A08B317BB58E120E84FEF20FF052708BB279517951C3FDE
:2003E00028F700004552B0F720FF0527279508BB17951C3FB8F629913A9561F7077E10911A
:200400007E01110F08BBC250D04011F01093780110E21ABF086017B3177E402F477E54E041
:200420005A95F1F708BB17BB48BB8ACFCF93DF9360917D01635067FDB9C080917A01CCE0E9
:20044000D0E0C81BD109CF57DE4F809179018D3209F098C0683009F0A7C083EC80936D0159
:200460008AE580936200109209018881807619F0CE014FD36FC09A811092760189818111F4
:2004800007C01092770126E731E082E090E05DC0853019F490937E0145C08630E9F58B8165
:2004A000813019F48CE590E004C0823051F48EE190E090937C0180937B0120E482E190E0FD
:2004C00028C0833019F591110AC088E590E090937C0180937B0120E484E090E01AC0913088
:2004E00051F482E490E090937C0180937B0120E486E190E00EC0923019F480E390E0D9CFBF
:20050000933021F4CE01DBD220E003C0CE01D7D220E4209309011EC0883099F0893039F486
:200520009093800126E731E080E090E00EC031E020E08A3009F030E0832F922F26E731E0F6
:2005400004C020E831E081E090E030937C0120937B010DC08F3F2FEF920749F4288127FF20
:2005600002C08E819F8120E82093090106C02E813F812817390708F4C901909361008093B4
:20058000600012C08091090187FF0EC0CE0186D38F3F21F48EE18093620006C0882321F049
:2005A000109261001092600010927D018091620084FF60C080916000909161008F3F2FEF21
:2005C000920709F457C0BC018930910510F068E070E0861B970B909361008093600090916F
:2005E0006D0188E8892780936D016115710509F45AC0C62F3091090137FF07C08EE691E047
:2006000022D3C82F893068F51EC080917B0190917C01262F280FAEE6B1E0FC0136FF06C026
:2006200034913D9331962E13FBCF04C031913D932E13FCCF01962FEF2C0F820F911D90939F
:200640007C0180937B016C2F8EE691E087DDCC5FCC3071F08FEF9FEF90936100809360001F
:2006600007C08FEF9FEF9093610080936000CEE1C093620084E196B3987131F48150D9F7CF
:2006800010927E0110927801C1E08111C0E0809108018C1751F0C11103C0F89432D078941E
:2006A000C093080102C0C0E0CECFDF91CF910895AC9A8BB780628BBF0895CF93DF931F929C
:2006C000CDB7DEB79EE088E10FB6F894A89581BD0FBE91BDEDDFBB9A8BEF815039F0ECE1D1
:2006E000F0E13197F1F700C00000F7CF7894BB98CE01019658D09ADECE01019661D0A895BA
:20070000FACF9F92AF92BF92CF92DF92EF92FF920F931F93CF93DF931F92CDB7DEB720E077
:200720003FE7F32E0FE017E2E12C4CECA42E46EFB42E87E0C82ED12C90E4992E80E090E0F7
:200740008433994014F4E90C01C0E918E1BE298309DD2981853339E0930724F0AC014453AC
:20076000594003C0A501481B590B4017510714F4FE2C8A01969431E0C31AD10809F7213002
:2007800021F020E8E22E21E0D4CFF1BE0F90DF91CF911F910F91FF90EF90DF90CF90BF90F3
:2007A000AF909F9008952AD18EE080BF81E28EBD40D0882319F06CD081D601C091D007C692
:2007C000CF93DF9308B606FE31C088B7806488BF8FB5982F9295990F907E80E068EE73E037
:2007E00085D6EB011FBCCB014DD1882319F083E090E060D15AD18230910518F0039721F00F
:2008000015C0CE01F5D512C040E060E080916400E9D09091630080916400890F8093640002
:200820008850893518F0919590936300DF91CF91A2C0CF93DF93CDB7DEB728970FB6F8943F
:20084000DEBF0FBECDBF87E5898385E68A8382E68B838CE48C8344E050E060E070E0CE010A
:20086000059641D744E050E0BE016B5F7F4FCE0101962CD721E0892B09F020E0822F289694
:200880000FB6F894DEBF0FBECDBFDF91CF910895CF93DF93CDB7DEB760970FB6F894DEBFD2
:2008A0000FBECDBF40E150E066E070E0CE0101961AD7FE013196A8EEB0E09E012F5E3F4FFB
:2008C000819190E08D939D93E217F307C9F760960FB6F894DEBF0FBECDBFDF91CF910895E9
:2008E000E8EEF0E081E690E081939193019681379105D1F70895FF920F931F93CF93DF9340
:200900001F92CDB7DEB78C0186E190E06983FBD6982F8FEF890F6981893660F4F92E69176B
:2009200008F4F62E4F2D50E067E170E0C801DBD68F2D01C080E00F90DF91CF911F910F913D
:20094000FF9008950F931F93CF938C01C62F86E190E0F0D68FEF8C0F893648F44C2F50E0D7
:2009600067E170E0C801CF911F910F91D4C6CF911F910F91089580910E01882339F01092E9
:200980000E0162E070E08FE091E016C20895EF92FF920F931F93CF93DF938B017A01E82F09
:2009A000F0E0CF0163E070E090D5DC01A15FBE4F12968C911297E801888311968C91D701B7
:2009C0008C93CF0163E070E080D5815F9E4FEC018881F9018083DF91CF911F910F91FF90D1
:2009E000EF900895EFE0F1E082836183408391E090930E018583648343830895EFE0F1E0FA
:200A000012821182108281E080930E01158214821382B1CF0F931F93CF93DF93182FEEDF1C
:200A2000C0E000E2D1E0C11719F1109211011092100100930F01D0930E019DDF81E291EACB
:200A40000197F1F700C00000109211011092100110920F01D0930E018EDF97EB22E881E071
:200A6000915020408040E1F700C00000CF5FDBCFDF91CF911F910F91089590930D01809304
:200A80000C01089520910C0130910D012115310551F0281B390B30930D0120930C0181E0F9
:200AA000121613060CF480E0089580910A0190910B01089590930B0180930A010895FC012B
:200AC0002381233059F02F30B1F480EC90E090937C0180937B0189E390E00895FC0182814E
:200AE000833049F486EE90E090937C0180937B0182E290E0089580E090E0089583E08ADF49
:200B000098E088E10FB6F894A89581BD0FBE91BDFFCFFC01918190939B01428153815093F7
:200B20001E0140931D012481358130931C0120931B0165E171E070937C0160937B0198304D
:200B400009F443C0C8F49430D1F188F4911128C082818093150183818093160184818093DB
:200B6000170185818093180184E090E00895963041F148F523D464C09B3FE9F048F49B30B0
:200B800031F19034C1F0993009F05AC097D458C09D3F09F454C008F445C09E3FF1F050C0A3
:200BA00010921A018681813408F080E4809319018FEF9FEF089510921A018681F7CFE3D34A
:200BC0003FC005D43DC0F1D33BC073D439C0CA0168EE73E07AD451DF33C02130310521F0C4
:200BE0002230310549F02CC08BE990E090939A018093990187E020C04130510559F0423030
:200C00005105F1F48EE690E090939A018093990181E112C08FE790E090939A0180939901C5
:200C20008CE10AC02730310559F482EA90E090939A01809399018EE180939801B9CF5EDF7C
:200C400080E090E008950F931F93CF9320919801C62F261708F4C22F209197010C2F10E094
:200C60006091990170919A01A801222311F03BD501C023D58091990190919A01080F191FDF
:200C800010939A0100939901809198018C1B809398018C2FCF911F910F910895CF93C62F8D
:200CA00040919B0120911A014B3F39F4462F50E030E0B90160587F4F08C0403499F4462F11
:200CC00050E030E0B9016A5F7F4F25D580911A018C0F80931A01909119019C1B9093190165
:200CE00081E054C030911901361708F4C32F3C1B30931901582FFC01922F981BA92FAE0FA8
:200D00008E2F851B8C1730F48191B0E0A15EBE4F8C93F4CF2C0F20931A01311134C042306E
:200D2000A9F0433001F1413071F597D1811101C03CD360E070E080E090E0C6D24091210129
:200D40006091200180911F018BD11DC086D18823D1F080911F0190E0982F8827209120016B
:200D6000822BE8D210C079D1811101C01ED36091200170E0762F662780912101682B809143
:200D80001F0190E0A1D281E090911901911180E0CF910895B89ABA9AC298089598E087FD1C
:200DA00002C0C09801C0C09AC29A880F00000000C2989150A1F70895CF92DF92EF92FF92B7
:200DC0000F931F93CF93DF93EC018B01E3DF80E0E5DF80E0E3DF80E0E1DF80E0DFDF229674
:200DE000C12CD12C7801EE0CFF1CE00EF11ECE14DF0488F48FEFD2DFFE0132978081CEDF98
:200E0000FE0131978081CADF8881C8DF83E0C80ED11C2396ECCFC0E0D0E0C017D10720F404
:200E20008FEFBCDF6096F9CFDF91CF911F910F91FF90EF90DF90CF90089590916C01890F1C
:200E400080936C0190916500891710F010926C0108952091650090E0820F911D803891052D
:200E600014F08FEFD7CD08954F925F926F927F928F929F92AF92BF92CF92DF92EF92FF9203
:200E8000CF93DF93CDB7DEB728970FB6F894DEBF0FBECDBF809161019091620180906801EF
:200EA000909069018816990638F488199909909362018093610104C0109262011092610134
:200EC0008091610190916201892B21F510926301C0909C01D0909D01E0909E01F0909F0131
:200EE000CD2CDE2CEF2CFF24E7FCFA948091B0019091B101A091B201B091B301692F7A2F91
:200F00008B2F992787FD9A954C2D8091B5016ADD80E08EC08091660190916701019709F0DD
:200F200086C0A12CB12CC501B4012091AC013091AD014091AE015091AF0107D329833A8325
:200F40004B835C838091A4019091A501A091A601B091A70149805A806B807C80480E591E4F
:200F60006A1E7B1E4092A4015092A5016092A6017092A701C501B4012091BC013091BD01A6
:200F80004091BE015091BF01E0D229833A834B835C83C090A801D090A901E090AA01F090BA
:200FA000AB0189819A81AB81BC81C80ED91EEA1EFB1EC092A801D092A901E092AA01F09263
:200FC000AB01C501B4012091A0013091A1014091A2015091A301B9D229833A834B835C839B
:200FE0004091B8015091B9016091BA017091BB0189819A81AB81BC81480F591F6A1F7B1FE3
:201000004093B8015093B9016093BA017093BB01452F562F672F772767FD7A95CD2CDE2C97
:20102000EF2CFF24E7FCFA946C2D852DDBDC81E028960FB6F894DEBF0FBECDBFDF91CF91C9
:20104000FF90EF90DF90CF90BF90AF909F908F907F906F905F904F90089580916A01089546
:201060004F925F926F927F928F929F92AF92BF92CF92DF92EF92FF920F931F93CF93DF939C
:20108000CDB7DEB72B970FB6F894DEBF0FBECDBFF82E862EC42E80916A018823F9F084E0EE
:2010A000D8DEE0916500AE2FB0E0AA59BF4F1C92A1E0AE0FB0E0AA59BF4FFC92A2E0AE0FCC
:2010C000B0E0AA59BF4F8C9284E08E0F80936500ED5FF0E0EA59FF4FC082DFC081E08093D6
:2010E0006301809164019091650190936201809361019E012F5F3F4FAE014E5F5F4FBE0110
:201100006D5F7F4F80E043DC4B8150E0542F4427052E000C660B770B4093A4015093A50199
:201120006093A6017093A7014A80512C542C4424052C000C660877084092A8015092A9010A
:201140006092AA017092AB01898190E0982F88278C01990F220B330B0C831D832E833F8312
:201160000093B8011093B9012093BA013093BB018F2D90E0982F8827092E000CAA0BBB0B79
:201180008093B4019093B501A093B601B093B701912C982C8824092C000CAA08BB088092D4
:2011A000B0019092B101A092B201B092B301D12CDC2CCC248601DD0C220B330B08871987D0
:2011C0002A873B8700939C0110939D0120939E0130939F01209164013091650121153105CD
:2011E00009F43FC06901E12CF12C8C019D01041B150B260B370BC901B801A701960189D166
:201200002093AC013093AD014093AE015093AF01C501B4016419750986099709A701960104
:2012200078D12093BC013093BD014093BE015093BF01688579858A859B850C811D812E814B
:201240003F81601B710B820B930BA701960161D12093A0013093A1014093A2015093A30185
:2012600018C01092AC011092AD011092AE011092AF011092BC011092BD011092BE01109292
:20128000BF011092A0011092A1011092A2011092A301809163018111E7DD2B960FB6F8949F
:2012A000DEBF0FBECDBFDF91CF911F910F91FF90EF90DF90CF90BF90AF909F908F907F9051
:2012C0006F905F904F9008951F93CF93DF9320916A01222319F1C72FD62F182F84E0B9DD77
:2012E000E0916500AE2FB0E0AA59BF4F81E08C93A1E0AE0FB0E0AA59BF4F1C93A2E0AE0F4D
:20130000B0E0AA59BF4FCC9384E08E0F80936500ED5FF0E0EA59FF4FD08308C08093660112
:20132000909367016093640170936501DF91CF911F910895CF93DF9320916A012223E1F03E
:20134000C92FD82F83E085DDE0916500AE2FB0E0AA59BF4F82E08C93A1E0AE0FB0E0AA5923
:20136000BF4FCC9383E08E0F80936500EE5FF0E0EA59FF4FD08304C080935F0190936001CC
:20138000DF91CF91089580916A01882369F081E060DDE091650081E08E0F80936500F0E0A6
:2013A000EA59FF4F83E08083089510926C0110926B0110926A0180E090E07CCBF6DF1092E1
:2013C000650081E080936A0181E090E073CBEDDF81E080936B01109263011092670110925C
:2013E0006601109265011092640181E090E062CB909369018093680180916A01811158C04A
:2014000080916301811105C080916B01811105C008952ADD81114CC0F7CF80916500882303
:2014200009F446C080915F01909160010097C1F020916801309169012817390738F4821BE1
:20144000930B9093600180935F0104C01092600110925F0180915F0190916001892B41F551
:20146000E0916C01F0E0EA59FF4F8081813059F4628170E0762F66278381682B818190E0C0
:2014800023DF84E0DACC813028F4438162818181E7DDF7CF823049F4818190E0982F882769
:2014A0002281822B47DF83E0EDCF833009F46BCF08956091650086E690E044CA60E886E61C
:2014C00090E019DA8093650008950024552704C0080E591F880F991F009729F0769567959C
:2014E000B8F37105B9F7802D952F089597FB072E16F4009406D077FD08D07BD007FC05D063
:201500003EF4909581959F4F0895709561957F4F0895052E97FB16F400940FD057FD05D002
:201520007CD007FC02D046F408C050954095309521953F4F4F4F5F4F08959095809570959D
:2015400061957F4F8F4F9F4F089568940013E894A0E0B0E0EDEAFAE01DC0EFEFE7F959011D
:201560006A015E23550FEE08FE2C87019B01AC019E23990F660B762FCB0171D0CDB7DEB785
:20158000EAE024C02F923F924F925F926F927F928F929F92AF92BF92CF92DF92EF92FF925F
:2015A0000F931F93CF93DF93CDB7DEB7CA1BDB0B0FB6F894DEBF0FBECDBF09942A883988C8
:2015C00048885F846E847D848C849B84AA84B984C884DF80EE80FD800C811B81AA81B981A7
:2015E000CE0FD11D0FB6F894DEBF0FBECDBFED010895AA1BBB1B51E107C0AA1FBB1FA6175A
:20160000B70710F0A61BB70B881F991F5A95A9F780959095BC01CD010895A1E21A2EAA1BA9
:20162000BB1BFD010DC0AA1FBB1FEE1FFF1FA217B307E407F50720F0A21BB30BE40BF50B67
:20164000661F771F881F991F1A9469F760957095809590959B01AC01BD01CF010895DF93E8
:20166000CF939F92A0E49A2E0024D001E001F00116950795F794E794D794C794B794A7942B
:2016800048F41068A20FB31FC41FD51FE61FF71F081E191E220F331F441F551F661F771F4F
:2016A000881F991F9A9421F79D01AE01BF01C00111249F90CF91DF910895FB01DC0102C04B
:2016C00005900D9241505040D8F70895FB01DC0104C08D910190801921F441505040C8F76F
:2016E000881B990B0895DC01CB01FC01E199FECF06C0FFBBEEBBE09A31960DB20D924150C0
:201700005040B8F70895E199FECF9FBB8EBBE09A99278DB30895DC01A40FB51F4150504067
:2017200040F0CB01840F951F2E9105D041505040D8F70895262FE199FECF9FBB8EBBE09A8C
:2017400001970DB2021639F01CBA2DBB0FB6F894E29AE19A0FBE0895F894FFCFFFFF5A04CB
:20176000201500FF00000203E80000FF000203E8000000FF0203E800000000000000000070
:20178000000000000000000000000000000000000000000000000000000000000000000049
:2017A000000000000000000000000000000000000000000000000000000000000000000029
:2017C000000000000000000000000000000000000000000000000000000000000000000009
:2017E0000000220300000000000000000000000000000000000000000000000000000000C4
:2018000000000000FFFFFFFFFFFFFFFFFFFFFFFFFFFFFFFFFFFFFFFFFFFFFFFFFFFFFFFFE4
:20182000FFFFFFFFFFFFFFFFFFFFFFFFFFFFFFFFFFFFFFFFFFFFFFFFFFFFFFFFFFFFFFFFC8
:20184000FFFFFFFFFFFFFFFFFFFFFFFFFFFFFFFFFFFFFFFFFFFFFFFFFFFFFFFFFFFFFFFFA8
:20186000FFFFFFFFFFFFFFFFFFFFFFFFFFFFFFFFFFFFFFFFFFFFFFFFFFFFFFFFFFFFFFFF88
:20188000FFFFFFFFFFFFFFFFFFFFFFFFFFFFFFFFFFFFFFFFFFFFFFFFFFFFFFFFFFFFFFFF68
:2018A000FFFFFFFFFFFFFFFFFFFFFFFFFFFFFFFFFFFFFFFFFFFFFFFFFFFFFFFFFFFFFFFF48
:2018C000FFFFFFFFFFFFFFFFFFFFFFFFFFFFFFFFFFFFFFFFFFFFFFFFFFFFFFFFFFFFFFFF28
:2018E000FFFFFFFFFFFFFFFFFFFFFFFFFFFFFFFFFFFFFFFFFFFFFFFFFFFFFFFFFFFFFFFF08
:20190000FFFFFFFFFFFFFFFFFFFFFFFFFFFFFFFFFFFFFFFFFFFFFFFFFFFFFFFFFFFFFFFFE7
:20192000FFFFFFFFFFFFFFFFFFFFFFFFFFFFFFFFFFFFFFFFFFFFFFFFFFFFFFFFFFFFFFFFC7
:20194000FFFFFFFFFFFFFFFFFFFFFFFFFFFFFFFFFFFFFFFFFFFFFFFFFFFFFFFFFFFFFFFFA7
:20196000FFFFFFFFFFFFFFFFFFFFFFFFFFFFFFFFFFFFFFFFFFFFFFFFFFFF9800BEC3FFFF6A
:2019800017C0197A4005930B09021200010100803209040000000000000012011001FF00F9
:2019A0000008D01653070302000000010403090411241FBECFE5D2E0CDBFDEBF20E0A0E69E
:2019C000B0E001C01D92AC38B207E1F7BFC1A82FB92F80E090E041E050EA609530E009C05A
:2019E0002D9182279795879510F084279527305EC8F36F5FA8F30895EADF8D939D930895CC
:201A0000CF93CFB7CF93C395B39BE9F7B39B0BC0B39B09C0B39B07C0B39B05C0B39B03C08D
:201A2000B39B01C0D9C00F92DF93C0916E00DD27CA58DF4F012EB39B03C0DF910F90E6CFD4
:201A40002F930F931F934F932FEF4F6F06B303FB20F95F933F9350E03BE065C016B30126BE
:201A6000502953FDC89556B3012703FB25F92F7306B3B1F05027102713FB26F906B2223012
:201A8000F0F000C016B3012703FB27F90126502906B22430E8F54F77206816B30000F6CF32
:201AA00050274F7D206206B2102F000000C006B300265029102713FB26F906B2E2CF4F7BBB
:201AC00006B3206400C0DACF01265029187106B269F14E7F2160012F16B328C00026502957
:201AE0004D7F06B22260102F29C0012650294B7F06B22460012F2DC016B301265029477FC6
:201B00002860000006B22EC04F7E06B3206130C0422706B3499300265029102706B24FEFD6
:201B200013FB20F9297F16B379F2187159F10126502906B2012703FB21F9237F06B371F279
:201B4000002650293150D0F006B2102713FB22F9277E16B351F201265029012703FB06B25E
:201B600023F92F7C49F2000006B3102713FB24F90026502906B22F7939F270CF10E21ABF14
:201B800000271DC03B503195C31BD04010E21ABF0881033C29F10B3419F120916C00198155
:201BA000110F1213EDCF093651F10D3211F0013E39F7CAE01AB715FD02C0CA95D9F70093E3
:201BC00074003F915F914F911F910F912F91DF910F90CAB7C5FD17CFCF91CFBFCF910895BE
:201BE00020917400222369F3109172001123F1F43430F2F03093720020936D0019C00091EE
:201C0000720001309CF40AE530916F0034FD11C000936F00C1E6D0E010C0052710E000C06B
:201C200021C0052710E0C89508BB14C03AE501C032ED032EC0E0D0E032E017B31861C39A81
:201C400008B317BB58E120E84FEF20FF052708BB279517951C3F28F700004552B0F720FF2B
:201C60000527279508BB17951C3FB8F629913A9561F7077E10917300110F08BBC250D04085
:201C800011F010936C0010E21ABF086017B3177E402F477E54E05A95F1F708BB17BB48BBCB
:201CA00090CF2FEFB0E8A0E04AE0B1BF000081EE9CE0B399FECFB39BFECF0197B399FDCF26
:201CC00097FF03C0BA1B819501C0BA0FA69539F4A0E428F4281710F031B7282FA1E041509E
:201CE00021F731BF00000895F201309741F02AE7421629E1520629F481B790E002C08FEB88
:201D00009CEC21E00C0120935700E8951124CF0102962C01089514BE88E181BD87E081BD21
:201D2000BB9A2FE28BE19FE0215080409040E1F700C00000BB988AE580936F008FEF8093E4
:201D40006000AC9A8BB780628BBF0895EAE7F9E1E491EF3F11F0E1BF000084B78A7031F489
:201D6000EDE7F9E1E491EF3F09F02FC1D4DF712C312C412C512CCCE7D5E114E686B38871FD
:201D800009F014E6115029F41092730010926C0088DF0AB605FE05C033DE80E28ABF712C67
:201DA00004C0219759F7C0E0D0E0A89522E032120CC0E0E8F9E1E054F10983E0809357001B
:201DC000E8953097C1F7412C512C832D803459F4F2013297E03889E1F80750F485E0809373
:201DE0005700E89505C0843019F4CD2B11F4EAC0312C80917200835087FD99C090916D00C4
:201E00009D3209F092C0883009F08FC083EC809361008AE580936F00809177008076909135
:201E20007800882379F1911108C082E899E1909371008093700086E06DC0913069F44114AA
:201E40005104F1F080917B00807C482E50907C0081E187BFE89514C0933081F48091790037
:201E600090917A0041DF80917B0090917C003CDF842D8F7329F490E4392E4CC09F73392E33
:201E800080E048C08091790010926A00911106C010926B002AE630E082E038C0953019F483
:201EA0008093730025C09630E9F490917A00913019F48AE999E104C0923041F488E899E119
:201EC000909371008093700082E124C09330C1F68111D6CF8CEA99E19093710080937000EC
:201EE00084E018C0983079F0993031F4809375002AE630E080E00AC081E09A3009F080E031
:201F00002AE630E003C025E730E081E0309371002093700090917E00911105C090917D0066
:201F2000981708F4892F809360001092720080916F0084FF31C0809160008F3F69F1C82F33
:201F4000893008F0C8E08C1B809360009091610088E8892780936100CC2391F08091700007
:201F6000A2E6B0E0E82FF091710094919D9331969C2F980F9E13F9CFF0937100E093700062
:201F80006C2F82E690E038DDCC5FCC3019F08FEF80936000C0936F00C30101963C01803B83
:201FA000944029F4EDE7F9E1E491EF3F59F40AB605FEE1CE8DE1B39B8DE18150E1F780E2EB
:0E1FC0008ABFD9CEA8DE1BBE15BAD8CCFFCF83
:00000001FF
