:20000000BFCC96C0C2C094C093C092C091C090C08FC08EC08DC08CC08BC08AC089C00902C4
:200020001200010100A0FA09040000000000000012035700650062004C006900670068004E
:200040007400160373006F0077006200750067002E0063006F006D000403090412011002D6
:20006000FF000008091200A80900010203011103006C6F63616C686F73743A383030301CAB
:200080000301736F776275672E6769746875622E696F2F7765626C6967687407000700007B
:2000A00001020A000000000003061E001400030057494E555342000000000000000000001D
:2000C000050F3900021810050038B60834A909A0478BFDA0768815B6650001FE011C10055A
:2000E00000DF60DDD88945C74C9CD2659D9E648A9F000003061E00FC000011241FBECFE5A7
:20010000D2E0DEBFCDBF10E0A0E6B0E0E2EBF6E102C005900D92A838B107D9F711E0A8E87B
:20012000B0E001C01D92A13CB107E1F7C6D2BFCA67CFA82FB92F80E090E041E050EA60951C
:2001400030E009C02D9182279795879510F084279527305EC8F36F5FA8F30895EADF8D9378
:200160009D930895A6E088279927AA9569F00197E1F3B399FCCFB39BFECF81E09927A6B30D
:20018000019611F0A871D9F70895CF93CFB7CF93C395B39BE9F7B39B0BC0B39B09C0B39BF3
:2001A00007C0B39B05C0B39B03C0B39B01C0D3C00F92DF93C091FB00DD27CE5FDE4F012EC6
:2001C000B39B03C0DF910F90E6CF2F930F931F934F932FEF4F6F06B303FB20F95F933F93E2
:2001E00050E03BE065C016B30126502953FDC89556B3012703FB25F92F7306B3B1F05027B9
:20020000102713FB26F906B22230F0F000C016B3012703FB27F90126502906B22430E8F538
:200220004F77206816B30000F6CF50274F7D206206B2102F000000C006B3002650291027D7
:2002400013FB26F906B2E2CF4F7B06B3206400C0DACF01265029187106B269F14E7F21600F
:20026000012F16B328C0002650294D7F06B22260102F29C0012650294B7F06B22460012FFA
:200280002DC016B301265029477F2860000006B22EC04F7E06B3206130C0422706B349931F
:2002A00000265029102706B24FEF13FB20F9297F16B379F2187159F10126502906B201271C
:2002C00003FB21F9237F06B371F2002650293150D0F006B2102713FB22F9277E16B351F29F
:2002E00001265029012703FB06B223F92F7C49F2000006B3102713FB24F90026502906B20C
:200300002F7939F270CF10E21ABF002717C03B503195C31BD04010E21ABF0881033CF9F047
:200320000B34E9F02091F9001981110F1213EDCF093651F10D3211F0013E39F7009300019C
:200340003F915F914F911F910F912F91DF910F90CAB7C5FD1DCFCF91CFBFCF911895209103
:200360000001222369F31091FE00112321F5343022F13093FE002093FA001091FB003BE056
:20038000311B3093FB0019C00091FE0001309CF40AE53091620034FD11C000936200CEEE65
:2003A000D0E010C0052710E000C021C0052710E0C89508BB14C03AE501C032ED032EC0E020
:2003C000D0E032E017B31861C39A08B317BB58E120E84FEF20FF052708BB279517951C3FDE
:2003E00028F700004552B0F720FF0527279508BB17951C3FB8F629913A9561F7077E10911A
:20040000FF00110F08BBC250D04011F01093F90010E21ABF086017B3177E402F477E54E041
:200420005A95F1F708BB17BB48BB8ACFCF93DF936091FE00635067FDB9C08091FB00CCE0E9
:20044000D0E0C81BD109CE5FDE4F8091FA008D3209F098C0683009F0A7C083EC8093EE0052
:200460008AE580936200109289008881807619F0CE0110D36FC09A811092F7008981811134
:2004800007C01092F80027EF30E082E090E05DC0853019F49093FF0045C08630E9F58B815D
:2004A000813019F48CE590E004C0823051F48EE190E09093FD008093FC0020E482E190E0FD
:2004C00028C0833019F591110AC088E590E09093FD008093FC0020E484E090E01AC0913088
:2004E00051F482E490E09093FD008093FC0020E486E190E00EC0923019F480E390E0D9CFBF
:20050000933021F4CE019CD220E003C0CE0198D220E4209389001EC0883099F0893039F485
:200520009093010127EF30E080E090E00EC031E020E08A3009F030E0832F922F27EF30E065
:2005400004C021E031E081E090E03093FD002093FC000DC08F3F2FEF920749F4288127FF27
:2005600002C08E819F8120E82093890006C02E813F812817390708F4C90190936100809335
:20058000600012C08091890087FF0EC0CE0145D38F3F21F48EE18093620006C0882321F00B
:2005A00010926100109260001092FE008091620084FF60C080916000909161008F3F2FEFA1
:2005C000920709F457C0BC018930910510F068E070E0861B970B909361008093600090916F
:2005E000EE0088E889278093EE006115710509F45AC0C62F3091890037FF07C08FEE90E0C0
:20060000E1D2C82F893068F51EC08091FC009091FD00262F280FAFEEB0E0FC0136FF06C060
:2006200034913D9331962E13FBCF04C031913D932E13FCCF01962FEF2C0F820F911D90939F
:20064000FD008093FC006C2F8FEE90E087DDCC5FCC3071F08FEF9FEF909361008093600017
:2006600007C08FEF9FEF9093610080936000CEE1C093620084E196B3987131F48150D9F7CF
:200680001092FF001092F900C1E08111C0E0809188008C1751F0C11103C0F89432D078949F
:2006A000C093880002C0C0E0CECFDF91CF910895AC9A8BB780628BBF0895CF93DF931F921D
:2006C000CDB7DEB79EE088E10FB6F894A89581BD0FBE91BDEDDFBB9A8BEF815039F0ECE1D1
:2006E000F0E13197F1F700C00000F7CF7894BB98CE01019658D09ADECE0101965CD0A895BF
:20070000FACF9F92AF92BF92CF92DF92EF92FF920F931F93CF93DF931F92CDB7DEB720E077
:200720003FE7F32E0FE017E2E12C4CECA42E46EFB42E87E0C82ED12C90E4992E80E090E0F7
:200740008433994014F4E90C01C0E918E1BE298309DD2981853339E0930724F0AC014453AC
:20076000594003C0A501481B590B4017510714F4FE2C8A01969431E0C31AD10809F7213002
:2007800021F020E8E22E21E0D4CFF1BE0F90DF91CF911F910F91FF90EF90DF90CF90BF90F3
:2007A000AF909F900895EBD08EE080BF81E28EBD3BD03CD6C4C5CF93DF9308B606FE31C0EB
:2007C00088B7806488BF8FB5982F9295990F907E80E068EE73E042D6EB011FBCCB0113D12F
:2007E000882319F083E090E026D120D18230910518F0039721F015C0CE01B2D512C040E072
:2008000060E080916400AFD09091630080916400890F809364008850893518F091959093B5
:200820006300DF91CF9168C0CF93DF93CDB7DEB760970FB6F894DEBF0FBECDBF40E150E0E1
:2008400066E070E0CE010196F9D6FE013196A7E6B0E09E012F5E3F4F819190E08D939D935E
:20086000E217F307C9F760960FB6F894DEBF0FBECDBFDF91CF910895FF920F931F93CF93D4
:20088000DF931F92CDB7DEB78C0186E190E06983E5D6982F8FEF890F6981893660F4F92E10
:2008A000691708F4F62E4F2D50E067E170E0C801C5D68F2D01C080E00F90DF91CF911F91F4
:2008C0000F91FF9008950F931F93CF938C01C62F86E190E0DAD68FEF8C0F893648F44C2FFE
:2008E00050E067E170E0C801CF911F910F91BEC6CF911F910F91089580918E00882339F073
:2009000010928E0062E070E08FE890E00BC20895EF92FF920F931F93CF93DF938B017A0183
:20092000E82FF0E0CF0163E070E087D5DC01A157BF4F12968C911297E801888311968C9108
:20094000D7018C93CF0163E070E077D581579F4FEC018881F9018083DF91CF911F910F9118
:20096000FF90EF900895EFE8F0E082836183408391E090938E008583648343830895EFE82E
:20098000F0E012821182108281E080938E00158214821382B1CF0F931F93CF93DF93182F1B
:2009A000EEDFC0E000E2D1E0C11719F1109291001092900000938F00D0938E009DDF81E2FE
:2009C00091EA0197F1F700C00000109291001092900010928F00D0938E008EDF97EB22E8DC
:2009E00081E0915020408040E1F700C00000CF5FDBCFDF91CF911F910F91089590938D00B8
:200A000080938C00089520918C0030918D002115310551F0281B390B30938D0020938C004C
:200A200081E0121613060CF480E0089580918A0090918B00089590938B0080938A0008954B
:200A4000FC012381233059F02F30B1F480EC90E09093FD008093FC0089E390E00895FC01D4
:200A60008281833049F485E690E09093FD008093FC0082E290E0089580E090E0089583E038
:200A80008ADF98E088E10FB6F894A89581BD0FBE91BDFFCFFC01918190931C014281538171
:200AA00050939E0040939D002481358130939C0020939B0065E970E07093FD006093FC00B0
:200AC000973009F443C0C0F4943088F4913058F582818093950083818093960084818093DD
:200AE000970085818093980084E090E00895953049F150F500D463C09B3F01F160F4993019
:200B000049F130F19B3009F05AC0CA0168EE73E094D474DF54C09D3F09F450C008F441C073
:200B20009E3FD1F04CC010929A008681813408F080E4809399008FEF9FEF089510929A0026
:200B40008681F7CFF3D33BC0FAD339C0E6D337C068D435C06BD433C02130310521F0223044
:200B6000310549F02CC08BE990E090931B0180931A0187E020C04130510559F042305105AA
:200B8000F1F48EE690E090931B0180931A0181E112C08FE790E090931B0180931A018CE12B
:200BA0000AC02730310559F482EA90E090931B0180931A018EE180931901BDCF60DF80E081
:200BC00090E008950F931F93CF9320911901C62F261708F4C22F209118010C2F10E0609182
:200BE0001A0170911B01A801222311F027D501C01CD580911A0190911B01080F191F1093C5
:200C00001B0100931A01809119018C1B809319018C2FCF911F910F910895CF93C62F4091DB
:200C20001C0120919A004B3F99F4462F50E0622F70E060587F4F1AD580919A008C0F8093E1
:200C40009A00909199009C1B9093990081E054C030919900361708F4632F361B3093990076
:200C6000582FFC01922F981BA92FAE0F8E2F851B861730F48191B0E0A156BF4F8C93F4CF40
:200C8000620F60939A00311134C04230A9F0433001F1413071F597D1811101C03ED360E0CD
:200CA00070E080E090E0C8D24091A1006091A00080919F008BD11DC086D18823D1F08091BA
:200CC0009F0090E0982F88272091A000822BEAD210C079D1811101C020D36091A00070E094
:200CE000762F66278091A100682B80919F0090E0A3D281E090919900911180E0CF910895CE
:200D0000B89ABA9AC298089598E087FD02C0C09801C0C09AC29A880F00000000C2989150D7
:200D2000A1F70895CF92DF92EF92FF920F931F93CF93DF93EC018B01E3DF80E0E5DF80E0B3
:200D4000E3DF80E0E1DF80E0DFDF2296C12CD12C7801EE0CFF1CE00EF11ECE14DF0488F425
:200D60008FEFD2DFFE0132978081CEDFFE0131978081CADF8881C8DF83E0C80ED11C2396CE
:200D8000ECCFC0E0D0E0C017D10720F48FEFBCDF6096F9CFDF91CF911F910F91FF90EF9080
:200DA000DF90CF9008959091ED00890F8093ED009091EC00891710F01092ED000895209198
:200DC000EC0090E0820F911D8038910514F08FEFE2CD08954F925F926F927F928F929F9226
:200DE000AF92BF92CF92DF92EF92FF92CF93DF93CDB7DEB728970FB6F894DEBF0FBECDBF8A
:200E00008091E1009091E2008090E8009090E9008816990638F4881999099093E200809318
:200E2000E10004C01092E2001092E1008091E1009091E200892B21F51092E300C0901D0154
:200E4000D0901E01E0901F01F0902001CD2CDE2CEF2CFF24E7FCFA948091B1019091B20199
:200E6000A091B301B091B401692F7A2F8B2F992787FD9A954C2D8091B60175DD80E08EC0E8
:200E80008091E6009091E700019709F086C0A12CB12CC501B4012091AD013091AE014091B7
:200EA000AF015091B00101D329833A834B835C838091250190912601A0912701B0912801C4
:200EC00049805A806B807C80480E591E6A1E7B1E4092250150922601609227017092280154
:200EE000C501B4012091BD013091BE014091BF015091C001DAD229833A834B835C83C09043
:200F0000A901D090AA01E090AB01F090AC0189819A81AB81BC81C80ED91EEA1EFB1EC09205
:200F2000A901D092AA01E092AB01F092AC01C501B4012091210130912201409123015091A5
:200F40002401B3D229833A834B835C834091B9015091BA016091BB017091BC0189819A811A
:200F6000AB81BC81480F591F6A1F7B1F4093B9015093BA016093BB017093BC01452F562F83
:200F8000672F772767FD7A95CD2CDE2CEF2CFF24E7FCFA946C2D852DE6DC81E028960FB607
:200FA000F894DEBF0FBECDBFDF91CF91FF90EF90DF90CF90BF90AF909F908F907F906F9019
:200FC0005F904F9008958091EA0008954F925F926F927F928F929F92AF92BF92CF92DF9274
:200FE000EF92FF920F931F93CF93DF93CDB7DEB72B970FB6F894DEBF0FBECDBFF82E862EBB
:20100000C42E8091EA008823F9F084E0D8DEE091EC00AE2FB0E0A75DBE4F1C92A1E0AE0F6E
:20102000B0E0A75DBE4FFC92A2E0AE0FB0E0A75DBE4F8C9284E08E0F8093EC00ED5FF0E067
:20104000E75DFE4FC082E1C081E08093E3008091E4009091E5009093E2008093E1009E0132
:201060002F5F3F4FAE014E5F5F4FBE016D5F7F4F80E04EDC4B8150E0542F4427662757FD9C
:201080006095762F409325015093260160932701709328014A80512C542C4424662457FC60
:2010A0006094762C4092A9015092AA016092AB017092AC01898190E0982F88278C0122277E
:2010C00017FD2095322F0C831D832E833F830093B9011093BA012093BB013093BC018F2DEE
:2010E00090E0982F8827AA2797FDA095BA2F8093B5019093B601A093B701B093B801912C40
:20110000982C8824AA2497FCA094BA2C8092B1019092B201A092B301B092B401D12CDC2C69
:20112000CC248601222717FD2095322F088719872A873B8700931D0110931E0120931F01DD
:20114000309320012091E4003091E5002115310509F43FC06901E12CF12C8C019D01041B2A
:20116000150B260B370BC901B801A701960189D12093AD013093AE014093AF015093B001D6
:20118000C501B4016419750986099709A701960178D12093BD013093BE014093BF015093B9
:2011A000C001688579858A859B850C811D812E813F81601B710B820B930BA701960161D127
:2011C0002093210130932201409323015093240118C01092AD011092AE011092AF011092E8
:2011E000B0011092BD011092BE011092BF011092C0011092210110922201109223011092C7
:2012000024018091E3008111E5DD2B960FB6F894DEBF0FBECDBFDF91CF911F910F91FF90AA
:20122000EF90DF90CF90BF90AF909F908F907F906F905F904F9008951F93CF93DF932091D5
:20124000EA00222319F1C72FD62F182F84E0B7DDE091EC00AE2FB0E0A75DBE4F81E08C93C0
:20126000A1E0AE0FB0E0A75DBE4F1C93A2E0AE0FB0E0A75DBE4FCC9384E08E0F8093EC00A1
:20128000ED5FF0E0E75DFE4FD08308C08093E6009093E7006093E4007093E500DF91CF91F4
:2012A0001F910895CF93DF932091EA002223E1F0C92FD82F83E083DDE091EC00AE2FB0E0D0
:2012C000A75DBE4F82E08C93A1E0AE0FB0E0A75DBE4FCC9383E08E0F8093EC00EE5FF0E022
:2012E000E75DFE4FD08304C08093DF009093E000DF91CF9108958091EA00882369F081E084
:201300005EDDE091EC0081E08E0F8093EC00F0E0E75DFE4F83E0808308951092ED001092A3
:20132000EB001092EA0080E090E085CBF6DF1092EC0081E08093EA0081E090E07CCBEDDF71
:2013400081E08093EB001092E3001092E7001092E6001092E5001092E40081E090E06BCB84
:201360009093E9008093E8008091EA00811158C08091E300811105C08091EB00811105C023
:20138000089528DD81114CC0F7CF8091EC00882309F446C08091DF009091E0000097C1F063
:2013A0002091E8003091E9002817390738F4821B930B9093E0008093DF0004C01092E000C9
:2013C0001092DF008091DF009091E000892B41F5E091ED00F0E0E75DFE4F8081813059F4F3
:2013E000628170E0762F66278381682B818190E023DF84E0D8CC813028F4438162818181FF
:20140000E5DDF7CF823049F4818190E0982F88272281822B47DF83E0EDCF833009F46BCFEE
:2014200008956091EC0089E291E04DCA60E889E291E022DA8093EC0008950024552704C01F
:20144000080E591F880F991F009729F076956795B8F37105B9F7802D952F089597FB072E52
:2014600016F4009406D077FD08D07BD007FC05D03EF4909581959F4F0895709561957F4FC8
:201480000895052E97FB16F400942CD057FD05D07CD007FC02D046F425C050954095309568
:2014A00021953F4F4F4F5F4F089568940010E894A0E0B0E0EDE5FAE025C0EFEFE7F95901BE
:2014C0006A015E23550FEE08FE2C87019B01AC019E23990F660B762FCB0179D0CDB7DEB71E
:2014E000EAE02CC090958095709561957F4F8F4F9F4F08952F923F924F925F926F927F9254
:201500008F929F92AF92BF92CF92DF92EF92FF920F931F93CF93DF93CDB7DEB7CA1BDB0BF7
:201520000FB6F894DEBF0FBECDBF09942A88398848885F846E847D848C849B84AA84B98414
:20154000C884DF80EE80FD800C811B81AA81B981CE0FD11D0FB6F894DEBF0FBECDBFED0167
:201560000895AA1BBB1B51E107C0AA1FBB1FA617B70710F0A61BB70B881F991F5A95A9F7AB
:2015800080959095BC01CD010895A1E21A2EAA1BBB1BFD010DC0AA1FBB1FEE1FFF1FA21731
:2015A000B307E407F50720F0A21BB30BE40BF50B661F771F881F991F1A9469F7609570958E
:2015C000809590959B01AC01BD01CF010895DF93CF939F92A0E49A2E0024D001E001F00145
:2015E00016950795F794E794D794C794B794A79448F41068A20FB31FC41FD51FE61FF71F29
:20160000081E191E220F331F441F551F661F771F881F991F9A9421F79D01AE01BF01C00185
:2016200011249F90CF91DF910895FB01DC0102C005900D9241505040D8F70895DC01CB01D4
:20164000FC01E199FECF06C0FFBBEEBBE09A31960DB20D9241505040B8F70895E199FECFCA
:201660009FBB8EBBE09A99278DB30895DC01A40FB51F4150504040F0CB01840F951F2E9129
:2016800005D041505040D8F70895262FE199FECF9FBB8EBBE09A01970DB2021639F01CBAC1
:2016A0002DBB0FB6F894E29AE19A0FBE0895F894FFCFFFFF5A042022030000000000000095
:2016C0000000000000000000000000000000000000000000000000000000FFFFFFFFFFFF10
:2016E000FFFFFFFFFFFFFFFFFFFFFFFFFFFFFFFFFFFFFFFFFFFFFFFFFFFFFFFFFFFFFFFF0A
:20170000FFFFFFFFFFFFFFFFFFFFFFFFFFFFFFFFFFFFFFFFFFFFFFFFFFFFFFFFFFFFFFFFE9
:20172000FFFFFFFFFFFFFFFFFFFFFFFFFFFFFFFFFFFFFFFFFFFFFFFFFFFFFFFFFFFFFFFFC9
:20174000FFFFFFFFFFFFFFFFFFFFFFFFFFFFFFFFFFFFFFFFFFFFFFFFFFFFFFFFFFFFFFFFA9
:20176000FFFFFFFFFFFFFFFFFFFFFFFFFFFFFFFFFFFFFFFFFFFFFFFFFFFFFFFFFFFFFFFF89
:20178000FFFFFFFFFFFFFFFFFFFFFFFFFFFFFFFFFFFFFFFFFFFFFFFFFFFFFFFFFFFFFFFF69
:2017A000FFFFFFFFFFFFFFFFFFFFFFFFFFFFFFFFFFFFFFFFFFFFFFFFFFFFFFFFFFFFFFFF49
:2017C000FFFFFFFFFFFFFFFFFFFFFFFFFFFFFFFFFFFFFFFFFFFFFFFFFFFFFFFFFFFFFFFF29
:2017E000FFFFFFFFFFFFFFFFFFFFFFFFFFFFFFFFFFFFFFFFFFFFFFFFFFFFFFFFFFFFFFFF09
:20180000FFFFFFFFFFFFFFFFFFFFFFFFFFFFFFFFFFFFFFFFFFFFFFFFFFFFFFFFFFFFFFFFE8
:20182000FFFFFFFFFFFFFFFFFFFFFFFFFFFFFFFFFFFFFFFFFFFFFFFFFFFFFFFFFFFFFFFFC8
:20184000FFFFFFFFFFFFFFFFFFFFFFFFFFFFFFFFFFFFFFFFFFFFFFFFFFFFFFFFFFFFFFFFA8
:20186000FFFFFFFFFFFFFFFFFFFFFFFFFFFFFFFFFFFFFFFFFFFFFFFFFFFFFFFFFFFFFFFF88
:20188000FFFFFFFFFFFFFFFFFFFFFFFFFFFFFFFFFFFFFFFFFFFFFFFFFFFFFFFFFFFFFFFF68
:2018A000FFFFFFFFFFFFFFFFFFFFFFFFFFFFFFFFFFFFFFFFFFFFFFFFFFFFFFFFFFFFFFFF48
:2018C000FFFFFFFFFFFFFFFFFFFFFFFFFFFFFFFFFFFFFFFFFFFFFFFFFFFFFFFFFFFFFFFF28
:2018E000FFFFFFFFFFFFFFFFFFFFFFFFFFFFFFFFFFFFFFFFFFFFFFFFFFFFFFFFFFFFFFFF08
:20190000FFFFFFFFFFFFFFFFFFFFFFFFFFFFFFFFFFFFFFFFFFFFFFFFFFFFFFFFFFFFFFFFE7
:20192000FFFFFFFFFFFFFFFFFFFFFFFFFFFFFFFFFFFFFFFFFFFFFFFFFFFFFFFFFFFFFFFFC7
:20194000FFFFFFFFFFFFFFFFFFFFFFFFFFFFFFFFFFFFFFFFFFFFFFFFFFFFFFFFFFFFFFFFA7
:20196000FFFFFFFFFFFFFFFFFFFFFFFFFFFFFFFFFFFFFFFFFFFFFFFFFFFF9900BEC3FFFF69
:2019800017C0197A4005930B09021200010100803209040000000000000012011001FF00F9
:2019A0000008D01653070202000000010403090411241FBECFE5D2E0CDBFDEBF20E0A0E69F
:2019C000B0E001C01D92AC38B207E1F7BFC1A82FB92F80E090E041E050EA609530E009C05A
:2019E0002D9182279795879510F084279527305EC8F36F5FA8F30895EADF8D939D930895CC
:201A0000CF93CFB7CF93C395B39BE9F7B39B0BC0B39B09C0B39B07C0B39B05C0B39B03C08D
:201A2000B39B01C0D9C00F92DF93C0916E00DD27CA58DF4F012EB39B03C0DF910F90E6CFD4
:201A40002F930F931F934F932FEF4F6F06B303FB20F95F933F9350E03BE065C016B30126BE
:201A6000502953FDC89556B3012703FB25F92F7306B3B1F05027102713FB26F906B2223012
:201A8000F0F000C016B3012703FB27F90126502906B22430E8F54F77206816B30000F6CF32
:201AA00050274F7D206206B2102F000000C006B300265029102713FB26F906B2E2CF4F7BBB
:201AC00006B3206400C0DACF01265029187106B269F14E7F2160012F16B328C00026502957
:201AE0004D7F06B22260102F29C0012650294B7F06B22460012F2DC016B301265029477FC6
:201B00002860000006B22EC04F7E06B3206130C0422706B3499300265029102706B24FEFD6
:201B200013FB20F9297F16B379F2187159F10126502906B2012703FB21F9237F06B371F279
:201B4000002650293150D0F006B2102713FB22F9277E16B351F201265029012703FB06B25E
:201B600023F92F7C49F2000006B3102713FB24F90026502906B22F7939F270CF10E21ABF14
:201B800000271DC03B503195C31BD04010E21ABF0881033C29F10B3419F120916C00198155
:201BA000110F1213EDCF093651F10D3211F0013E39F7CAE01AB715FD02C0CA95D9F70093E3
:201BC00074003F915F914F911F910F912F91DF910F90CAB7C5FD17CFCF91CFBFCF910895BE
:201BE00020917400222369F3109172001123F1F43430F2F03093720020936D0019C00091EE
:201C0000720001309CF40AE530916F0034FD11C000936F00C1E6D0E010C0052710E000C06B
:201C200021C0052710E0C89508BB14C03AE501C032ED032EC0E0D0E032E017B31861C39A81
:201C400008B317BB58E120E84FEF20FF052708BB279517951C3F28F700004552B0F720FF2B
:201C60000527279508BB17951C3FB8F629913A9561F7077E10917300110F08BBC250D04085
:201C800011F010936C0010E21ABF086017B3177E402F477E54E05A95F1F708BB17BB48BBCB
:201CA00090CF2FEFB0E8A0E04AE0B1BF000081EE9CE0B399FECFB39BFECF0197B399FDCF26
:201CC00097FF03C0BA1B819501C0BA0FA69539F4A0E428F4281710F031B7282FA1E041509E
:201CE00021F731BF00000895F201309741F02AE7421629E1520629F481B790E002C08FEB88
:201D00009CEC21E00C0120935700E8951124CF0102962C01089514BE88E181BD87E081BD21
:201D2000BB9A2FE28BE19FE0215080409040E1F700C00000BB988AE580936F008FEF8093E4
:201D40006000AC9A8BB780628BBF0895EAE7F9E1E491EF3F11F0E1BF000084B78A7031F489
:201D6000EDE7F9E1E491EF3F09F02DC1D4DF712C312C412C512C14E6CCE7D5E186B38871FF
:201D800009F014E6115029F41092730010926C0088DF0AB605FE05C033DE80E28ABF712C67
:201DA00003C02197209751F7A89522E032120CC0E0E8F9E1E054F10983E080935700E89540
:201DC0003097C1F7412C512C832D803459F4F2013297E03889E1F80750F485E08093570099
:201DE000E89505C0843019F4CD2B11F4E9C0312C80917200835087FD98C090916D009D324E
:201E000009F091C0883009F08EC083EC809361008AE580936F00909177009076809178007E
:201E2000992361F1811108C082E899E1909371008093700026E06CC0813059F44114510465
:201E400009F44CC080917B00807C482E50907C0045C0833081F48091790090917A0044DFAA
:201E600080917B0090917C003FDF842D8F73B1F580E4382E33C08F73382E30C09091790013
:201E800010926A00811106C010926B008AE690E022E03AC0853019F49093730027C0863000
:201EA000F9F480917A00813019F48AE999E104C0823041F488E899E1909371008093700053
:201EC00022E126C0833051F4911108C08CEA99E1909371008093700024E01AC020E018C0FA
:201EE000883079F0893031F4909375008AE690E020E00AC021E08A3009F020E08AE690E00D
:201F000003C085E790E021E0909371008093700080917E00811105C080917D00821708F401
:201F2000282F209360001092720080916F0084FF31C0809160008F3F69F1C82F893008F0EE
:201F4000C8E08C1B809360008091610098E8892780936100CC2391F0E0917000F091710066
:201F600082E690E0DC0124912D9331962C2F280F2A13F9CFF0937100E09370006C2F82E6FF
:201F800090E03ADDCC5FCC3019F08FEF80936000C0936F00C30101963C01803B944029F493
:201FA000EDE7F9E1E491EF3F59F40AB605FEE3CE8DE1B39B8DE18150E1F780E28ABFDBCEE8
:0A1FC000AADE1BBE15BADACCFFCF73
:00000001FF
