:20000000BFCC7BC0D5C179C078C077C076C075C074C073C072C071C070C06FC06EC009020F
:200020001200010100A03209040000000000000012035700650062004C0069006700680016
:200040007400160373006F0077006200750067002E0063006F006D000403090412011002D6
:20006000FF000008091200A80001010203010A000000000003061E001400030057494E5523
:20008000534200000000000000000000050F3800021710050038B60834A909A0478BFDA066
:2000A000768815B6650001FE1C100500DF60DDD88945C74C9CD2659D9E648A9F0000030669
:2000C0001E00FC0011241FBECFE5D2E0DEBFCDBF10E0A0E6B0E0ECEAF3E102C005900D92BF
:2000E000AC3DB107D9F721E0ACEDB0E001C01D92A839B207E1F714D857C982CFCF93DF9352
:2001000060914401635067FDA7C080914101CCE0D0E0C81BD109C85BDE4F809140018D325E
:2001200009F089C0683009F095C083EC809334018AE5809361001092DD008881807619F076
:20014000CE01A8D665C08A8110923D019981911106C010923E012DE331E082E055C0953082
:2001600019F48093450142C09630D1F59B81913019F48CE590E004C0923049F48EE190E01E
:20018000909343018093420190E482E126C0933009F5811109C088E590E090934301809372
:2001A000420190E484E019C0813049F482E490E0909343018093420190E486E10EC082306F
:2001C00019F480E390E0DCCF833021F4CE013AD690E003C0CE0136D690E49093DD0018C093
:2001E000983079F0993031F4809347012DE331E080E00AC081E09A3009F080E02DE331E095
:2002000003C027E431E081E030934301209342018F3F39F4988197FD8E8190E89093DD0072
:2002200007C09F81911104C09E81981708F4892F809360000FC08091DD0087FF0BC0CE019F
:20024000C6D68F3F21F48EE18093610003C0811110926000109244018091610084FF5CC0ED
:20026000809160008F3F09F457C0C82F893008F0C8E08C1B809360008091340198E889274B
:2002800080933401CC23B9F18091DD0087FF08C06C2F85E391E076D6C82F8930B8F52BC039
:2002A000209142013091430186FF12C0A5E3B1E044E351E040955095420F531F8C2F8A0FAC
:2002C000FA01EA0FFB1FE491ED938A13F9CF09C0E5E3F1E0D9018C2F8E0F9D9191938E132F
:2002E000FCCF2F5F3F4F8FEF8C0F280F311D30934301209342016C2F85E391E042D0CC5FCB
:20030000CC3041F08FEF8093600004C08FEF80936000CEE1C093610084E196B3987131F4CB
:200320008150D9F71092450110923F01C1E08111C0E08091DC008C1739F0C11103C0F894A5
:20034000D9D37894C093DC00DF91CF910895AC9A8BB780628BBF0895A82FB92F80E090E069
:2003600041E050EA609530E009C02D9182279795879510F084279527305EC8F36F5FA8F38C
:200380000895EADF8D939D930895A6E088279927AA9569F00197E1F3B399FCCFB39BFECFDF
:2003A00081E09927A6B3019611F0A871D9F70895CF93CFB7CF93C395B39BE9F7B39B0BC0BC
:2003C000B39B09C0B39B07C0B39B05C0B39B03C0B39B01C0D3C00F92DF93C0914101DD2781
:2003E000C85BDE4F012EB39B03C0DF910F90E6CF2F930F931F934F932FEF4F6F06B303FB1E
:2004000020F95F933F9350E03BE065C016B30126502953FDC89556B3012703FB25F92F738A
:2004200006B3B1F05027102713FB26F906B22230F0F000C016B3012703FB27F9012650292E
:2004400006B22430E8F54F77206816B30000F6CF50274F7D206206B2102F000000C006B3A2
:2004600000265029102713FB26F906B2E2CF4F7B06B3206400C0DACF01265029187106B2BF
:2004800069F14E7F2160012F16B328C0002650294D7F06B22260102F29C0012650294B7F9C
:2004A00006B22460012F2DC016B301265029477F2860000006B22EC04F7E06B3206130C08F
:2004C000422706B3499300265029102706B24FEF13FB20F9297F16B379F2187159F1012655
:2004E000502906B2012703FB21F9237F06B371F2002650293150D0F006B2102713FB22F9D5
:20050000277E16B351F201265029012703FB06B223F92F7C49F2000006B3102713FB24F98F
:200520000026502906B22F7939F270CF10E21ABF002717C03B503195C31BD04010E21ABF7F
:200540000881033CF9F00B34E9F020913F011981110F1213EDCF093651F10D3211F0013E46
:2005600039F7009346013F915F914F911F910F912F91DF910F90CAB7C5FD1DCFCF91CFBF95
:20058000CF91189520914601222369F310914401112321F5343022F1309344012093400112
:2005A000109141013BE0311B3093410119C00091440101309CF40AE53091610034FD11C069
:2005C00000936100C4E3D1E010C0052710E000C021C0052710E0C89508BB14C03AE501C052
:2005E00032ED032EC0E0D0E032E017B31861C39A08B317BB58E120E84FEF20FF052708BB8F
:20060000279517951C3F28F700004552B0F720FF0527279508BB17951C3FB8F629913A95B2
:2006200061F7077E10914501110F08BBC250D04011F010933F0110E21ABF086017B3177E7B
:20064000402F477E54E05A95F1F708BB17BB48BB8ACF83E08093DE00EED373C34FDD08B635
:2006600006FE10C088B7806488BF8FB51FBC90E0982F88279295990F907E68EE73E089D553
:20068000CB0164D399C082E08093DE0008957894BB98DFCF81E08093DE000895BB9A8BEF43
:2006A000815039F0ECE1F0E13197F1F700C00000F7CF82E08093DE0008951092DE0008955F
:2006C000B2D08EE080BF81E28EBD2EE088E190E00FB6F894A89581BD0FBE21BD05D037DEF5
:2006E00081E08093DE000895CF93DF93CDB7DEB760970FB6F894DEBF0FBECDBF40E150E08F
:2007000066E070E0CE01019620D6FE013196A4E6B0E0CE014196219130E02D933D93E81710
:20072000F907C9F760960FB6F894DEBF0FBECDBFDF91CF910895EF92FF921F93CF93DF93B7
:200740001F92CDB7DEB77C0186E190E069830DD69FEF980F69819E3F60F4182F681708F49A
:20076000162F412F50E067E170E0C701EED5812F01C080E00F90DF91CF911F91FF90EF9073
:2007800008951F93CF93DF93EC01162F86E190E0FDD58FEF810F8E3F48F4412F50E067E15C
:2007A00070E0CE01DF91CF911F91E7C5DF91CF911F91089582E008958091DF00882339F00E
:2007C0001092DF0062E070E08EE591E068C40895362FE82FF0E0CF0163E070E0B5D4DC0144
:2007E000A25ABE4F12963C93129711964C931197FD01208381E08093DF000895809360019D
:2008000060935F0140935E0191E09093DF008093630160936201409361010895962F672FE6
:20082000482F892FEBCF1092600110925F0110925E0181E08093DF0010926301109262016B
:2008400010926101B9CF0F931F93CF93DF93182FEADFC0E000E2D1E0C11719F110926001BC
:2008600010925F0100935E01D093DF00A5DF81E291EA0197F1F700C00000109260011092FB
:200880005F0110925E01D093DF0096DF97EB22E881E0915020408040E1F700C00000CF5F8C
:2008A000DBCFDF91CF911F910F9108950F931F93CF93DF93182FB7DFC0E000E8D1E0C117BB
:2008C00019F10093600110925F0110925E01D093DF0072DF81E291EA0197F1F700C0000066
:2008E0001092600110925F0110925E01D093DF0063DF97EB22E881E0915020408040E1F7A8
:2009000000C00000CF5FDBCFDF91CF911F910F910895AF92BF92CF92DF92EF92FF920F936A
:200920001F93CF93DF93D82EC82E711103C0682F782F5CC0E62FF0E0C72FD0E0E82EF12CD8
:20094000CF016BE270E011D49B01CB0165ED7FEFFBD38E0F9F1F66E070E0F6D38C01EFEF2A
:20096000F0E0CF018C1B9D0BD701BD01EDD3F92EA92EC801BE01E8D3492F50E0CF01841BDA
:20098000950BBD01E1D3E92EB92ECF01801B910BBE01DAD3492F50E0CF01841B950BBD015F
:2009A000D3D322303105A9F03CF42115310571F021303105C1F014C02330310569F0243031
:2009C000310571F4DF2CFC2CE92E0DC0ED2CD92E0AC0EF2CF92E07C0EF2CFD2CDB2C03C064
:2009E000EC2CDA2CFB2C6E2D7D2D8F2DDF91CF911F910F91FF90EF90DF90CF90BF90AF9027
:200A000008958F929F92AF92BF92EF92FF920F931F93CF93DF937B01082F6F1520F4862F1B
:200A2000061728F403C08F2D0F1508F4802FFE1420F41E2DE01628F403C01F2DF01608F49B
:200A4000102F111104C060E070E080E048C0C12FD0E0C81BD109BE01882777FD8095982F5E
:200A60002FEF30E040E050E0C3D3A32FF42FE52F812E912CA12CB12C622F7A2F8F2F9E2F7E
:200A8000A501940199D3211103C060E070E026C01E110AC08F2D90E0801B91096BE270E04D
:200AA00053D3BE0176D319C08E2D90E01F110DC0402F50E0BA01681B790BCB016BE270E03D
:200AC00043D3BE0166D36B5A08C08F1991096BE270E03AD3BE015DD36555722F812FDF9125
:200AE000CF911F910F91FF90EF90BF90AF909F908F900895AF92BF92CF92DF92EF92FF9249
:200B00000F931F93CF93DF93C12C2FE7A22ECFE0D7E23CECE32E36EFF32EC11002C0D12C63
:200B200002C090E8D92E07E010E080E4B82E80E090E08433994014F4DB0C01C0DB18D1BEC1
:200B400024DC853329E0920724F09C012453394003C09701281B390B2C173D0714F4AD2C50
:200B6000E901B694015011090115110511F7C39482E0C812D2CFA1BEDF91CF911F910F91EF
:200B8000FF90EF90DF90CF90BF90AF9008959091E900980F9093E9008091E800981710F0E9
:200BA0001092E90008952091E80090E0820F911DC09714F08FEF47CE08958091E6000895A6
:200BC0001F93CF93DF9300D0CDB7DEB7182F8091E600882349F184E04A836983E4DF909182
:200BE000E800A92FB0E0AC59BE4F1C92A1E0A90FB0E0AC59BE4F1C93A2E0A90FB0E0AC598C
:200C0000BE4F69816C9384E0890F8093E800E3E0E90FF0E0EC59FE4F4A8140830F900F90FE
:200C2000DF91CF911F910895812F0F900F90DF91CF911F91E3CDCF93DF9300D0CDB7DEB7BC
:200C40002091E6002223F9F083E069837A83ABDF9091E800A92FB0E0AC59BE4F81E08C93F6
:200C6000A1E0A90FB0E0AC59BE4F7A817C9383E0890F8093E800E2E0E90FF0E0EC59FE4F7D
:200C80006981608308C09093E5008093E4006093E2007093E3000F900F90DF91CF9108955A
:200CA0001F93CF93DF931F92CDB7DEB7182F8091E6008823E9F083E0998375DF2091E800B6
:200CC000A22FB0E0AC59BE4F82E08C93A1E0A20FB0E0AC59BE4F99819C9383E0820F8093FC
:200CE000E800E2E0E20FF0E0EC59FE4F108304C01093E0009093E1000F90DF91CF911F91FA
:200D000008958091E600882369F081E04CDFE091E80081E08E0F8093E800F0E0EC59FE4FFB
:200D200083E0808308951092E9001092E7001092E6000895F8DF1092E80081E08093E600BC
:200D40000895F1DF81E08093E70008952091E60021116BC02091E700222309F466C0209189
:200D6000E800222309F461C02091E0003091E1002115310541F42091E2003091E3002115E7
:200D8000310521F515C08217930738F4281B390B3093E1002093E00004C01092E10010922C
:200DA000E0002091E0003091E100232B21F30895E091E900F0E0EC59FE4F8081813001F1C1
:200DC000D0F0823041F1833079F108958217930738F4281B390B3093E3002093E20004C0D0
:200DE0001092E3001092E2008091E2009091E300892BF1F20895438162818181E1DE09C08E
:200E0000628170E0762F66278381682B818190E012DF84E0BCCE818190E0982F88272281FA
:200E2000822B3EDF83E0F6CF6CCF08956091E80084E691E0A6CC60E384E691E07CDC809339
:200E4000E8000895FC012381233051F02F30A1F48CE890E0909343018093420188E308953B
:200E6000FC018281833041F482E690E0909343018093420182E2089580E0089583E0E3DCD5
:200E800028E088E190E00FB6F894A89581BD0FBE21BDFFCFFC0141814093970182819381EB
:200EA0009093F3008093F200848195819093F1008093F0002AEE30E03093430120934201C0
:200EC0004630B1F1C8F4443080F4413028F582818093EA0083818093EB0084818093EC00C2
:200EE00085818093ED0084E008954430F9F0453009F046C01FDF44C04930F1F030F4473023
:200F0000C9F04830E9F592DF3BC04D3FC1F14E3FA9F04C3FA9F527C01092EF008681813495
:200F200008F080E48093EE008FEF0895EADE28C008DF26C0F8DE24C07EDF22C0813091057C
:200F400051F00297E9F489EB90E0909343018093420183E2089584E890E0909343018093E1
:200F6000420185E30895079759F48EE690E090939601809395018EE180939401D5CF7EDFDF
:200F800080E008951F93CF93DF9320919401162F261708F4122FC12FD0E0609195017091A1
:200FA0009601AE01C9D120919501309196012C0F3D1F309396012093950180919401811B36
:200FC00080939401812FDF91CF911F9108952091EE00261708F4622F261B2093EE00309190
:200FE000EF00482FFC01932F981BA92FAE0F8E2F841B861730F48191B0E0AC50BF4F8C939C
:20100000F4CF630F6093EF00211131C080919701823081F08330D9F0813049F5CEDD811122
:2010200001C081DE4091F6006091F5008091F400C7DD1DC0C2DD8823D1F08091F40090E0DD
:20104000982F88272091F500822B2ADE10C0B5DD811101C068DE6091F50070E0762F66275C
:201060008091F600682B8091F40090E0E4DD81E09091EE00911180E00895B89ABA9AC29891
:20108000089598E087FD02C0C09801C0C09AC29A880F00000000C2989150A1F70895CF92BE
:2010A000DF92EF92FF920F931F93CF93DF93EC018B01E3DF80E0E5DF80E0E3DF80E0E1DFE4
:2010C00080E0DFDF2296C12CD12C7801EE0CFF1CE00EF11ECE14DF0488F48FEFD2DFFE0156
:2010E00032978081CEDFFE0131978081CADF8881C8DF83E0C80ED11C2396ECCFC0E0D0E06E
:20110000C017D10720F48FEFBCDF6096F9CFDF91CF911F910F91FF90EF90DF90CF9008959C
:201120001092DE008091DE00813049F030F0823041F0833039F492DA05C0C2DA03C0AEDA5B
:2011400001C0A5DAA895EECF0024552704C0080E591F880F991F009729F076956795B8F3B2
:201160007105B9F7802D952F0895AA1BBB1B51E107C0AA1FBB1FA617B70710F0A61BB70B06
:20118000881F991F5A95A9F780959095BC01CD01089597FB072E16F4009406D077FD08D078
:2011A000E4DF07FC05D03EF4909581959F4F0895709561957F4F0895052E97FB16F40094D3
:2011C0000FD057FD05D068D007FC02D046F408C050954095309521953F4F4F4F5F4F08954C
:2011E00090958095709561957F4F8F4F9F4F089568940013E894A0E0B0E0E0E0F9E01DC072
:20120000EFEFE7F959016A015E23550FEE08FE2C87019B01AC019E23990F660B762FCB012A
:201220005DD0CDB7DEB7EAE024C02F923F924F925F926F927F928F929F92AF92BF92CF92FF
:20124000DF92EF92FF920F931F93CF93DF93CDB7DEB7CA1BDB0B0FB6F894DEBF0FBECDBFB8
:2012600009942A88398848885F846E847D848C849B84AA84B984C884DF80EE80FD800C81FB
:201280001B81AA81B981CE0FD11D0FB6F894DEBF0FBECDBFED010895A1E21A2EAA1BBB1B4A
:2012A000FD010DC0AA1FBB1FEE1FFF1FA217B307E407F50720F0A21BB30BE40BF50B661F3C
:2012C000771F881F991F1A9469F760957095809590959B01AC01BD01CF010895DF93CF938F
:2012E0009F92A0E49A2E0024D001E001F00116950795F794E794D794C794B794A79448F4D5
:201300001068A20FB31FC41FD51FE61FF71F081E191E220F331F441F551F661F771F881F67
:20132000991F9A9421F79D01AE01BF01C00111249F90CF91DF910895FB01DC0102C00590E0
:201340000D9241505040D8F70895DC01CB01FC01E199FECF06C0FFBBEEBBE09A31960DB24B
:201360000D9241505040B8F70895E199FECF9FBB8EBBE09A99278DB30895DC01CB0102C0F5
:201380002D9105D041505040D8F70895262FE199FECF1CBA9FBB8EBB2DBB0FB6F894E29A63
:2013A000E19A0FBE01960895F894FFCFFF5A220300000000000000000000000000000000D9
:2013C00000000000000000000000000000000000040035001A0368747470733A2F2F736F0A
:2013E000776275672E6769746875622E696F1703687474703A2F2F6C6F63616C686F737446
:201400003A38303030230368747470733A2F2F736F776275672E6769746875622E696F2F5C
:201420007765626C69676874FFFFFFFFFFFFFFFFFFFFFFFFFFFFFFFFFFFFFFFFFFFFFFFF6E
:20144000FFFFFFFFFFFFFFFFFFFFFFFFFFFFFFFFFFFFFFFFFFFFFFFFFFFFFFFFFFFFFFFFAC
:20146000FFFFFFFFFFFFFFFFFFFFFFFFFFFFFFFFFFFFFFFFFFFFFFFFFFFFFFFFFFFFFFFF8C
:20148000FFFFFFFFFFFFFFFFFFFFFFFFFFFFFFFFFFFFFFFFFFFFFFFFFFFFFFFFFFFFFFFF6C
:2014A000FFFFFFFFFFFFFFFFFFFFFFFFFFFFFFFFFFFFFFFFFFFFFFFFFFFFFFFFFFFFFFFF4C
:20196000FFFFFFFFFFFFFFFFFFFFFFFFFFFFFFFFFFFFFFFFFFFFFFFFFFFF8E00A3C3FFFF8F
:2019800017C0197A4005930B09021200010100803209040000000000000012011001FF00F9
:2019A0000008D01653070202000000010403090411241FBECFE5D2E0CDBFDEBF20E0A0E69F
:2019C000B0E001C01D92AC38B207E1F7BFC1A82FB92F80E090E041E050EA609530E009C05A
:2019E0002D9182279795879510F084279527305EC8F36F5FA8F30895EADF8D939D930895CC
:201A0000CF93CFB7CF93C395B39BE9F7B39B0BC0B39B09C0B39B07C0B39B05C0B39B03C08D
:201A2000B39B01C0D9C00F92DF93C0916E00DD27CA58DF4F012EB39B03C0DF910F90E6CFD4
:201A40002F930F931F934F932FEF4F6F06B303FB20F95F933F9350E03BE065C016B30126BE
:201A6000502953FDC89556B3012703FB25F92F7306B3B1F05027102713FB26F906B2223012
:201A8000F0F000C016B3012703FB27F90126502906B22430E8F54F77206816B30000F6CF32
:201AA00050274F7D206206B2102F000000C006B300265029102713FB26F906B2E2CF4F7BBB
:201AC00006B3206400C0DACF01265029187106B269F14E7F2160012F16B328C00026502957
:201AE0004D7F06B22260102F29C0012650294B7F06B22460012F2DC016B301265029477FC6
:201B00002860000006B22EC04F7E06B3206130C0422706B3499300265029102706B24FEFD6
:201B200013FB20F9297F16B379F2187159F10126502906B2012703FB21F9237F06B371F279
:201B4000002650293150D0F006B2102713FB22F9277E16B351F201265029012703FB06B25E
:201B600023F92F7C49F2000006B3102713FB24F90026502906B22F7939F270CF10E21ABF14
:201B800000271DC03B503195C31BD04010E21ABF0881033C29F10B3419F120916C00198155
:201BA000110F1213EDCF093651F10D3211F0013E39F7CAE01AB715FD02C0CA95D9F70093E3
:201BC00074003F915F914F911F910F912F91DF910F90CAB7C5FD17CFCF91CFBFCF910895BE
:201BE00020917400222369F3109172001123F1F43430F2F03093720020936D0019C00091EE
:201C0000720001309CF40AE530916F0034FD11C000936F00C1E6D0E010C0052710E000C06B
:201C200021C0052710E0C89508BB14C03AE501C032ED032EC0E0D0E032E017B31861C39A81
:201C400008B317BB58E120E84FEF20FF052708BB279517951C3F28F700004552B0F720FF2B
:201C60000527279508BB17951C3FB8F629913A9561F7077E10917300110F08BBC250D04085
:201C800011F010936C0010E21ABF086017B3177E402F477E54E05A95F1F708BB17BB48BBCB
:201CA00090CF2FEFB0E8A0E04AE0B1BF000081EE9CE0B399FECFB39BFECF0197B399FDCF26
:201CC00097FF03C0BA1B819501C0BA0FA69539F4A0E428F4281710F031B7282FA1E041509E
:201CE00021F731BF00000895F201309741F02AE7421629E1520629F481B790E002C08FEB88
:201D00009CEC21E00C0120935700E8951124CF0102962C01089514BE88E181BD87E081BD21
:201D2000BB9A2FE28BE19FE0215080409040E1F700C00000BB988AE580936F008FEF8093E4
:201D40006000AC9A8BB780628BBF0895EAE7F9E1E491EF3F11F0E1BF000084B78A7031F489
:201D6000EDE7F9E1E491EF3F09F02DC1D4DF712C312C412C512C14E6CCE7D5E186B38871FF
:201D800009F014E6115029F41092730010926C0088DF0AB605FE05C033DE80E28ABF712C67
:201DA00003C02197209751F7A89522E032120CC0E0E8F9E1E054F10983E080935700E89540
:201DC0003097C1F7412C512C832D803459F4F2013297E03889E1F80750F485E08093570099
:201DE000E89505C0843019F4CD2B11F4E9C0312C80917200835087FD98C090916D009D324E
:201E000009F091C0883009F08EC083EC809361008AE580936F00909177009076809178007E
:201E2000992361F1811108C082E899E1909371008093700026E06CC0813059F44114510465
:201E400009F44CC080917B00807C482E50907C0045C0833081F48091790090917A0044DFAA
:201E600080917B0090917C003FDF842D8F73B1F580E4382E33C08F73382E30C09091790013
:201E800010926A00811106C010926B008AE690E022E03AC0853019F49093730027C0863000
:201EA000F9F480917A00813019F48AE999E104C0823041F488E899E1909371008093700053
:201EC00022E126C0833051F4911108C08CEA99E1909371008093700024E01AC020E018C0FA
:201EE000883079F0893031F4909375008AE690E020E00AC021E08A3009F020E08AE690E00D
:201F000003C085E790E021E0909371008093700080917E00811105C080917D00821708F401
:201F2000282F209360001092720080916F0084FF31C0809160008F3F69F1C82F893008F0EE
:201F4000C8E08C1B809360008091610098E8892780936100CC2391F0E0917000F091710066
:201F600082E690E0DC0124912D9331962C2F280F2A13F9CFF0937100E09370006C2F82E6FF
:201F800090E03ADDCC5FCC3019F08FEF80936000C0936F00C30101963C01803B944029F493
:201FA000EDE7F9E1E491EF3F59F40AB605FEE3CE8DE1B39B8DE18150E1F780E28ABFDBCEE8
:0A1FC000AADE1BBE15BADACCFFCF73
:00000001FF
