:20000000BFCC7BC0CBC179C078C077C076C075C074C073C072C071C070C06FC06EC0090219
:200020001200010100A03209040000000000000012035700650062004C0069006700680016
:200040007400160373006F0077006200750067002E0063006F006D000403090412011002D6
:20006000FF000008091200A80001010203010A000000000003061E001400030057494E5523
:20008000534200000000000000000000050F3800021710050038B60834A909A0478BFDA066
:2000A000768815B6650001FE1C100500DF60DDD88945C74C9CD2659D9E648A9F0000030669
:2000C0001E00FC0011241FBECFE5D2E0DEBFCDBF10E0A0E6B0E0EEE1FCE002C005900D92BE
:2000E000AE3EB107D9F711E0AEEEB0E001C01D92AC33B107E1F74DD590C582CFCF93DF93F4
:2001000060911301635067FDA8C080911001CCE0D0E0C81BD109C95EDE4F80910F018D32EC
:2001200009F08AC0683009F096C083EC809303018AE5809361001092EF008881807619F093
:20014000CE012DD466C08A8110920C019981911106C010920D012CE031E082E055C0953064
:2001600019F48093140142C09630D1F59B81913019F48CE590E004C0923049F48EE190E04F
:20018000909312018093110190E482E126C0933009F5811109C088E590E090931201809305
:2001A000110190E484E019C0813049F482E490E0909312018093110190E486E10EC0823002
:2001C00019F480E390E0DCCF833021F4CE01C0D390E003C0CE01BCD390E49093EF0019C07A
:2001E000983079F0993031F4809316012CE031E080E00AC081E09A3009F080E02CE031E0CE
:2002000003C026E131E081E0309312012093110109C08F3F39F4988197FD8E8190E89093EC
:20022000EF0007C09F81911104C09E81981708F4892F809360000FC08091EF0087FF0BC06D
:20024000CE0128D48F3F21F48EE18093610003C0811110926000109213018091610084FF0B
:2002600051C0909160009F3F09F44CC0C92F993008F0C8E09C1B909360008091030198E8D5
:20028000982790930301CC2359F19091EF0097FF08C06C2F84E091E0D8D3C82F893060F5B1
:2002A0001FC020911101309112018C2F820FA4E0B1E0F90196FF06C094919D9331968E1355
:2002C000FBCF04C091919D938E13FCCF2F5F3F4F8FEF8C0F280F311D30931201209311017D
:2002E0006C2F84E091E043D064E06C0F6C3041F08FEF8093600004C08FEF809360006EE1FA
:200300006093610084E196B3987131F48150D9F71092140110920E01C1E08111C0E08091C0
:20032000EE008C1739F0C11103C0F894BFD27894C093EE00DF91CF910895AC9A8BB780622D
:200340008BBF0895A82FB92F80E090E041E050EA609530E009C02D9182279795879510F04F
:2003600084279527305EC8F36F5FA8F30895EADF8D939D930895A6E088279927AA9569F084
:200380000197E1F3B399FCCFB39BFECF81E09927A6B3019611F0A871D9F70895CF93CFB73F
:2003A000CF93C395B39BE9F7B39B0BC0B39B09C0B39B07C0B39B05C0B39B03C0B39B01C0DD
:2003C000D3C00F92DF93C0911001DD27C95EDE4F012EB39B03C0DF910F90E6CF2F930F9355
:2003E0001F934F932FEF4F6F06B303FB20F95F933F9350E03BE065C016B30126502953FDD0
:20040000C89556B3012703FB25F92F7306B3B1F05027102713FB26F906B22230F0F000C0B1
:2004200016B3012703FB27F90126502906B22430E8F54F77206816B30000F6CF50274F7D05
:20044000206206B2102F000000C006B300265029102713FB26F906B2E2CF4F7B06B3206437
:2004600000C0DACF01265029187106B269F14E7F2160012F16B328C0002650294D7F06B286
:200480002260102F29C0012650294B7F06B22460012F2DC016B301265029477F2860000038
:2004A00006B22EC04F7E06B3206130C0422706B3499300265029102706B24FEF13FB20F9AE
:2004C000297F16B379F2187159F10126502906B2012703FB21F9237F06B371F20026502978
:2004E0003150D0F006B2102713FB22F9277E16B351F201265029012703FB06B223F92F7CAD
:2005000049F2000006B3102713FB24F90026502906B22F7939F270CF10E21ABF002717C053
:200520003B503195C31BD04010E21ABF0881033CF9F00B34E9F020910E011981110F121349
:20054000EDCF093651F10D3211F0013E39F7009315013F915F914F911F910F912F91DF91E6
:200560000F90CAB7C5FD1DCFCF91CFBFCF91189520911501222369F310911301112321F54B
:20058000343022F13093130120930F01109110013BE0311B3093100119C0009113010130AE
:2005A0009CF40AE53091610034FD11C000936100C3E0D1E010C0052710E000C021C0052797
:2005C00010E0C89508BB14C03AE501C032ED032EC0E0D0E032E017B31861C39A08B317BB78
:2005E00058E120E84FEF20FF052708BB279517951C3F28F700004552B0F720FF0527279547
:2006000008BB17951C3FB8F629913A9561F7077E10911401110F08BBC250D04011F010939D
:200620000E0110E21ABF086017B3177E402F477E54E05A95F1F708BB17BB48BB8ACF84E085
:200640008093F30008958091F000882321F040E060E084E003C044E060E080E0D3D081E0EB
:200660009091F000911180E08093F0000895089545DDA6D008B606FE04C088B7806488BFA2
:200680001FBC089583E08093F30008957894BB9884E08093F300089582E08093F30010926C
:2006A000F2008AEF8093F1000895CF932091F20081E0820F8093F200263078F430E0F90166
:2006C000E057FF4F8081F901E657FF4F6081F901EC57FF4F4081C0E004C0C1E040E060E07D
:2006E00080E090D06DD02FE983E092E0215080409040E1F700C000008091F100883218F0B3
:2007000088528093F100CC2399F08DD08091F1009FEF980F9093F100882339F08CE190E129
:200720000197F1F700C00000F1CF83E08093F300CF91089581E08093F3000895BB9AACCF7F
:200740001092F30008956FD08FE080BF8FE18EBD9EE088E10FB6F894A89581BD0FBE91BDF1
:2007600005D0EBDD81E08093F3000895CF93DF93CDB7DEB760970FB6F894DEBF0FBECDBFAD
:2007800040E150E066E070E0CE01019636D2FE013196A4E6B0E09E012F5E3F4F819190E0E8
:2007A0008D939D93E217F307C9F760960FB6F894DEBF0FBECDBFDF91CF91089584E008958B
:2007C0008091F400882339F01092F40064E070E08DE291E09DC10895362FE82FF0E0CF011F
:2007E00063E070E0F0D1DC01A35DBE4F12963C93129711964C931197FD01208381E0809358
:20080000F400089520E030E0F901E35DFE4F8283618340832D5F3F4F2C303105A9F781E057
:200820008093F400089580E090E0FC01E35DFE4F12821182108203968C309105B1F781E00D
:200840008093F400BDCF0F931F93CF93DF93182FEADFC0E000E2D1E0C11719F110922F01E6
:2008600010922E0100932D01D093F400A9DF81E291EA0197F1F700C0000010922F01109275
:200880002E0110922D01D093F4009ADF97EB22E881E0915020408040E1F700C00000CF5FD5
:2008A000DBCFDF91CF911F910F9108959F92AF92BF92CF92DF92EF92FF920F931F93CF9374
:2008C000DF931F92CDB7DEB720E03FE7F32E0FE017E2E12C4CECA42E46EFB42E87E0C82E22
:2008E000D12C90E4992E80E090E08433994014F4E90C01C0E918E1BE29833DDD29818533DA
:2009000039E0930724F0AC014453594003C0A501481B590B4017510714F4FE2C8A0196946D
:2009200031E0C31AD10809F7213021F020E8E22E21E0D4CFF1BE0F90DF91CF911F910F9164
:20094000FF90EF90DF90CF90BF90AF909F900895FC012381233051F02F30A1F48CE890E054
:20096000909312018093110188E30895FC018281833041F482E690E09093120180931101F9
:2009800082E2089580E0089583E05DDF98E088E10FB6F894A89581BD0FBE91BDFFCFFC0127
:2009A00085EF90E0909312018093110181818C3FD9F128F4882349F08130A9F044C08D3F47
:2009C00009F440C08E3FC9F03EC082818093F50083818093F60084818093F7008581809356
:2009E000F80084E008951092FA008681893008F088E08093F9008FEF08958481958181304F
:200A0000910551F00297F9F48BEC90E0909312018093110183E2089586E990E09093120120
:200A20008093110185E3089584819581079759F48EE690E090933B0180933A018EE1809373
:200A40003901D9CFA1DF80E008950F931F93CF9320913901C62F261708F4C22F0C2F10E04C
:200A600060913A0170913B01A801BED080913A0190913B01080F191F10933B0100933A0131
:200A8000809139018C1B809339018C2FCF911F910F9108952091F900261708F4622F261B5A
:200AA0002093F9003091FA00482FFC01932F981BA92FAE0F8E2F841B861730F48191B0E092
:200AC000A550BF4F8C93F4CF630F6093FA00211107C04091FD006091FC008091FB0092DEA2
:200AE00081E09091F900911180E00895B89ABA9AC298089598E087FD02C0C09801C0C09A0E
:200B0000C29A880F00000000C2989150A1F70895CF92DF92EF92FF920F931F93CF93DF9366
:200B2000EC018B01E3DF80E0E5DF80E0E3DF80E0E1DF80E0DFDF2296C12CD12C7801EE0CE1
:200B4000FF1CE00EF11ECE14DF0488F48FEFD2DFFE0132978081CEDFFE0131978081CADF26
:200B60008881C8DF83E0C80ED11C2396ECCFC0E0D0E0C017D10720F48FEFBCDF6096F9CF41
:200B8000DF91CF911F910F91FF90EF90DF90CF9008951092F3008091F300823079F030F4E4
:200BA000882351F0813069F4C9DD0BC0833041F0843039F45DDD05C0C6DD03C076DD01C08C
:200BC00065DDA895E8CF0024552704C0080E591F880F991F009729F076956795B8F37105C6
:200BE000B9F7802D952F0895FB01DC0102C005900D9241505040D8F70895DC01CB01FC0135
:200C0000E199FECF06C0FFBBEEBBE09A31960DB20D9241505040B8F70895F894FFCFFF5AA5
:200C200022030000000000000000000000000000000000000000000000000000000000008F
:200C40000000100000100000000010001000001010000010040035001A0368747470733A61
:200C60002F2F736F776275672E6769746875622E696F1703687474703A2F2F6C6F63616C4B
:200C8000686F73743A38303030230368747470733A2F2F736F776275672E6769746875625B
:200CA0002E696F2F7765626C69676874FFFFFFFFFFFFFFFFFFFFFFFFFFFFFFFFFFFFFFFFBD
:200CC000FFFFFFFFFFFFFFFFFFFFFFFFFFFFFFFFFFFFFFFFFFFFFFFFFFFFFFFFFFFFFFFF34
:200CE000FFFFFFFFFFFFFFFFFFFFFFFFFFFFFFFFFFFFFFFFFFFFFFFFFFFFFFFFFFFFFFFF14
:200D0000FFFFFFFFFFFFFFFFFFFFFFFFFFFFFFFFFFFFFFFFFFFFFFFFFFFFFFFFFFFFFFFFF3
:200D2000FFFFFFFFFFFFFFFFFFFFFFFFFFFFFFFFFFFFFFFFFFFFFFFFFFFFFFFFFFFFFFFFD3
:20196000FFFFFFFFFFFFFFFFFFFFFFFFFFFFFFFFFFFFFFFFFFFFFFFFFFFF5100A3C3FFFFCC
:2019800017C0197A4005930B09021200010100803209040000000000000012011001FF00F9
:2019A0000008D01653070202000000010403090411241FBECFE5D2E0CDBFDEBF20E0A0E69F
:2019C000B0E001C01D92AC38B207E1F7BFC1A82FB92F80E090E041E050EA609530E009C05A
:2019E0002D9182279795879510F084279527305EC8F36F5FA8F30895EADF8D939D930895CC
:201A0000CF93CFB7CF93C395B39BE9F7B39B0BC0B39B09C0B39B07C0B39B05C0B39B03C08D
:201A2000B39B01C0D9C00F92DF93C0916E00DD27CA58DF4F012EB39B03C0DF910F90E6CFD4
:201A40002F930F931F934F932FEF4F6F06B303FB20F95F933F9350E03BE065C016B30126BE
:201A6000502953FDC89556B3012703FB25F92F7306B3B1F05027102713FB26F906B2223012
:201A8000F0F000C016B3012703FB27F90126502906B22430E8F54F77206816B30000F6CF32
:201AA00050274F7D206206B2102F000000C006B300265029102713FB26F906B2E2CF4F7BBB
:201AC00006B3206400C0DACF01265029187106B269F14E7F2160012F16B328C00026502957
:201AE0004D7F06B22260102F29C0012650294B7F06B22460012F2DC016B301265029477FC6
:201B00002860000006B22EC04F7E06B3206130C0422706B3499300265029102706B24FEFD6
:201B200013FB20F9297F16B379F2187159F10126502906B2012703FB21F9237F06B371F279
:201B4000002650293150D0F006B2102713FB22F9277E16B351F201265029012703FB06B25E
:201B600023F92F7C49F2000006B3102713FB24F90026502906B22F7939F270CF10E21ABF14
:201B800000271DC03B503195C31BD04010E21ABF0881033C29F10B3419F120916C00198155
:201BA000110F1213EDCF093651F10D3211F0013E39F7CAE01AB715FD02C0CA95D9F70093E3
:201BC00074003F915F914F911F910F912F91DF910F90CAB7C5FD17CFCF91CFBFCF910895BE
:201BE00020917400222369F3109172001123F1F43430F2F03093720020936D0019C00091EE
:201C0000720001309CF40AE530916F0034FD11C000936F00C1E6D0E010C0052710E000C06B
:201C200021C0052710E0C89508BB14C03AE501C032ED032EC0E0D0E032E017B31861C39A81
:201C400008B317BB58E120E84FEF20FF052708BB279517951C3F28F700004552B0F720FF2B
:201C60000527279508BB17951C3FB8F629913A9561F7077E10917300110F08BBC250D04085
:201C800011F010936C0010E21ABF086017B3177E402F477E54E05A95F1F708BB17BB48BBCB
:201CA00090CF2FEFB0E8A0E04AE0B1BF000081EE9CE0B399FECFB39BFECF0197B399FDCF26
:201CC00097FF03C0BA1B819501C0BA0FA69539F4A0E428F4281710F031B7282FA1E041509E
:201CE00021F731BF00000895F201309741F02AE7421629E1520629F481B790E002C08FEB88
:201D00009CEC21E00C0120935700E8951124CF0102962C01089514BE88E181BD87E081BD21
:201D2000BB9A2FE28BE19FE0215080409040E1F700C00000BB988AE580936F008FEF8093E4
:201D40006000AC9A8BB780628BBF0895EAE7F9E1E491EF3F11F0E1BF000084B78A7031F489
:201D6000EDE7F9E1E491EF3F09F02DC1D4DF712C312C412C512C14E6CCE7D5E186B38871FF
:201D800009F014E6115029F41092730010926C0088DF0AB605FE05C033DE80E28ABF712C67
:201DA00003C02197209751F7A89522E032120CC0E0E8F9E1E054F10983E080935700E89540
:201DC0003097C1F7412C512C832D803459F4F2013297E03889E1F80750F485E08093570099
:201DE000E89505C0843019F4CD2B11F4E9C0312C80917200835087FD98C090916D009D324E
:201E000009F091C0883009F08EC083EC809361008AE580936F00909177009076809178007E
:201E2000992361F1811108C082E899E1909371008093700026E06CC0813059F44114510465
:201E400009F44CC080917B00807C482E50907C0045C0833081F48091790090917A0044DFAA
:201E600080917B0090917C003FDF842D8F73B1F580E4382E33C08F73382E30C09091790013
:201E800010926A00811106C010926B008AE690E022E03AC0853019F49093730027C0863000
:201EA000F9F480917A00813019F48AE999E104C0823041F488E899E1909371008093700053
:201EC00022E126C0833051F4911108C08CEA99E1909371008093700024E01AC020E018C0FA
:201EE000883079F0893031F4909375008AE690E020E00AC021E08A3009F020E08AE690E00D
:201F000003C085E790E021E0909371008093700080917E00811105C080917D00821708F401
:201F2000282F209360001092720080916F0084FF31C0809160008F3F69F1C82F893008F0EE
:201F4000C8E08C1B809360008091610098E8892780936100CC2391F0E0917000F091710066
:201F600082E690E0DC0124912D9331962C2F280F2A13F9CFF0937100E09370006C2F82E6FF
:201F800090E03ADDCC5FCC3019F08FEF80936000C0936F00C30101963C01803B944029F493
:201FA000EDE7F9E1E491EF3F59F40AB605FEE3CE8DE1B39B8DE18150E1F780E28ABFDBCEE8
:0A1FC000AADE1BBE15BADACCFFCF73
:00000001FF
