:20000000BFCC96C0C2C094C093C092C091C090C08FC08EC08DC08CC08BC08AC089C00902C4
:200020001200010100A0FA09040000000000000012035700650062004C006900670068004E
:200040007400160373006F0077006200750067002E0063006F006D000403090412011002D6
:20006000FF000008091200A80001010203011103006C6F63616C686F73743A383030301CB3
:200080000301736F776275672E6769746875622E696F2F7765626C6967687407000700007B
:2000A00001020A000000000003061E001400030057494E555342000000000000000000001D
:2000C000050F3900021810050038B60834A909A0478BFDA0768815B6650001FE011C10055A
:2000E00000DF60DDD88945C74C9CD2659D9E648A9F000003061E00FC000011241FBECFE5A7
:20010000D2E0DEBFCDBF11E0A0E6B0E0E0E7F7E102C005900D92AC30B107D9F721E0ACE077
:20012000B1E001C01D92A43CB207E1F7C6D21ECB67CFA82FB92F80E090E041E050EA6095B7
:2001400030E009C02D9182279795879510F084279527305EC8F36F5FA8F30895EADF8D9378
:200160009D930895A6E088279927AA9569F00197E1F3B399FCCFB39BFECF81E09927A6B30D
:20018000019611F0A871D9F70895CF93CFB7CF93C395B39BE9F7B39B0BC0B39B09C0B39BF3
:2001A00007C0B39B05C0B39B03C0B39B01C0D3C00F92DF93C0917E01DD27CB57DE4F012E4D
:2001C000B39B03C0DF910F90E6CF2F930F931F934F932FEF4F6F06B303FB20F95F933F93E2
:2001E00050E03BE065C016B30126502953FDC89556B3012703FB25F92F7306B3B1F05027B9
:20020000102713FB26F906B22230F0F000C016B3012703FB27F90126502906B22430E8F538
:200220004F77206816B30000F6CF50274F7D206206B2102F000000C006B3002650291027D7
:2002400013FB26F906B2E2CF4F7B06B3206400C0DACF01265029187106B269F14E7F21600F
:20026000012F16B328C0002650294D7F06B22260102F29C0012650294B7F06B22460012FFA
:200280002DC016B301265029477F2860000006B22EC04F7E06B3206130C0422706B349931F
:2002A00000265029102706B24FEF13FB20F9297F16B379F2187159F10126502906B201271C
:2002C00003FB21F9237F06B371F2002650293150D0F006B2102713FB22F9277E16B351F29F
:2002E00001265029012703FB06B223F92F7C49F2000006B3102713FB24F90026502906B20C
:200300002F7939F270CF10E21ABF002717C03B503195C31BD04010E21ABF0881033CF9F047
:200320000B34E9F020917C011981110F1213EDCF093651F10D3211F0013E39F70093830195
:200340003F915F914F911F910F912F91DF910F90CAB7C5FD1DCFCF91CFBFCF911895209103
:200360008301222369F310918101112321F5343022F13093810120937D0110917E013BE0C3
:20038000311B30937E0119C00091810101309CF40AE53091620034FD11C000936200C1E771
:2003A000D1E010C0052710E000C021C0052710E0C89508BB14C03AE501C032ED032EC0E01F
:2003C000D0E032E017B31861C39A08B317BB58E120E84FEF20FF052708BB279517951C3FDE
:2003E00028F700004552B0F720FF0527279508BB17951C3FB8F629913A9561F7077E10911A
:200400008201110F08BBC250D04011F010937C0110E21ABF086017B3177E402F477E54E039
:200420005A95F1F708BB17BB48BB8ACFCF93DF9360918101635067FDB9C080917E01CCE0E1
:20044000D0E0C81BD109CB57DE4F80917D018D3209F098C0683009F0A7C083EC8093710155
:200460008AE58093620010920D018881807619F0CE0159D36FC09A8110927A0189818111E2
:2004800007C010927B012AE731E082E090E05DC0853019F49093820145C08630E9F58B8159
:2004A000813019F48CE590E004C0823051F48EE190E09093800180937F0120E482E190E0F5
:2004C00028C0833019F591110AC088E590E09093800180937F0120E484E090E01AC0913080
:2004E00051F482E490E09093800180937F0120E486E190E00EC0923019F480E390E0D9CFB7
:20050000933021F4CE01E5D220E003C0CE01E1D220E420930D011EC0883099F0893039F46E
:20052000909384012AE731E080E090E00EC031E020E08A3009F030E0832F922F2AE731E0EA
:2005400004C024E831E081E090E03093800120937F010DC08F3F2FEF920749F4288127FF14
:2005600002C08E819F8120E820930D0106C02E813F812817390708F4C901909361008093B0
:20058000600012C080910D0187FF0EC0CE0190D38F3F21F48EE18093620006C0882321F03B
:2005A0001092610010926000109281018091620084FF60C080916000909161008F3F2FEF1D
:2005C000920709F457C0BC018930910510F068E070E0861B970B909361008093600090916F
:2005E000710188E88927809371016115710509F45AC0C62F30910D0137FF07C082E791E046
:200600002CD3C82F893068F51EC080917F0190918001262F280FA2E7B1E0FC0136FF06C01F
:2006200034913D9331962E13FBCF04C031913D932E13FCCF01962FEF2C0F820F911D90939F
:20064000800180937F016C2F82E791E087DDCC5FCC3071F08FEF9FEF909361008093600022
:2006600007C08FEF9FEF9093610080936000CEE1C093620084E196B3987131F48150D9F7CF
:200680001092820110927C01C1E08111C0E080910C018C1751F0C11103C0F89432D0789412
:2006A000C0930C0102C0C0E0CECFDF91CF910895AC9A8BB780628BBF0895CF93DF931F9298
:2006C000CDB7DEB79EE088E10FB6F894A89581BD0FBE91BDEDDFBB9A8BEF815039F0ECE1D1
:2006E000F0E13197F1F700C00000F7CF7894BB98CE01019658D09ADECE01019663D0A895B8
:20070000FACF9F92AF92BF92CF92DF92EF92FF920F931F93CF93DF931F92CDB7DEB720E077
:200720003FE7F32E0FE017E2E12C4CECA42E46EFB42E87E0C82ED12C90E4992E80E090E0F7
:200740008433994014F4E90C01C0E918E1BE298309DD2981853339E0930724F0AC014453AC
:20076000594003C0A501481B590B4017510714F4FE2C8A01969431E0C31AD10809F7213002
:2007800021F020E8E22E21E0D4CFF1BE0F90DF91CF911F910F91FF90EF90DF90CF90BF90F3
:2007A000AF909F90089534D18EE080BF81E28EBD42D0882319F060D08BD603C09BD084D0F5
:2007C00082D60FC6CF93DF9308B606FE31C088B7806488BF8FB5982F9295990F907E80E0B3
:2007E00068EE73E08DD6EB011FBCCB0155D1882319F083E090E068D162D18230910518F0F1
:20080000039721F015C0CE01FDD512C040E060E080916400F1D09091630080916400890FBE
:20082000809364008850893518F0919590936300DF91CF91AAC0CF93DF9300D000D0CDB7C5
:20084000DEB744E050E060E070E0CE01019655D744E050E0BE016F5F7F4F86EE90E040D7E3
:2008600021E0892B09F020E0822F0F900F900F900F90DF91CF910895CF93DF93CDB7DEB743
:2008800060970FB6F894DEBF0FBECDBF40E150E066E070E0CE01019630D7FE013196ACEE66
:2008A000B0E09E012F5E3F4F819190E08D939D93E217F307C9F760960FB6F894DEBF0FBEB8
:2008C000CDBFDF91CF91089544E050E060E070E086EE90E02AD761E084E090E035D760E0F5
:2008E00085E090E031D740E150E066E070E08CEE90E01BC7ECEEF0E081E690E081939193AF
:20090000019681379105D1F70895FF920F931F93CF93DF931F92CDB7DEB78C0186E190E0A6
:200920006983FBD6982F8FEF890F6981893660F4F92E691708F4F62E4F2D50E067E170E015
:20094000C801DBD68F2D01C080E00F90DF91CF911F910F91FF9008950F931F93CF938C0112
:20096000C62F86E190E0F0D68FEF8C0F893648F44C2F50E067E170E0C801CF911F910F9115
:20098000D4C6CF911F910F91089580911201882339F01092120162E070E083E191E016C284
:2009A0000895EF92FF920F931F93CF93DF938B017A01E82FF0E0CF0163E070E090D5DC01CD
:2009C000AD5EBE4F12968C911297E801888311968C91D7018C93CF0163E070E080D58D5E3F
:2009E0009E4FEC018881F9018083DF91CF911F910F91FF90EF900895E3E1F1E082836183CE
:200A0000408391E0909312018583648343830895E3E1F1E012821182108281E08093120145
:200A2000158214821382B1CF0F931F93CF93DF93182FEEDFC0E000E2D1E0C11719F1109281
:200A400015011092140100931301D09312019DDF81E291EA0197F1F700C00000109215015A
:200A60001092140110921301D09312018EDF97EB22E881E0915020408040E1F700C00000A0
:200A8000CF5FDBCFDF91CF911F910F91089590931101809310010895209110013091110136
:200AA0002115310551F0281B390B309311012093100181E0121613060CF480E008958091B9
:200AC0000E0190910F01089590930F0180930E010895FC012381233059F02F30B1F480EC9A
:200AE00090E09093800180937F0189E390E00895FC018281833049F48AEE90E0909380015A
:200B000080937F0182E290E0089580E090E0089583E08ADF98E088E10FB6F894A89581BDEB
:200B20000FBE91BDFFCFFC01918190939F014281538150932201409321012481358130934A
:200B4000200120931F0169E171E07093800160937F01983009F443C0C8F49430D1F188F489
:200B6000911128C0828180931901838180931A01848180931B01858180931C0184E090E04B
:200B80000895963041F148F523D464C09B3FE9F048F49B3031F19034C1F0993009F05AC03B
:200BA00097D458C09D3F09F454C008F445C09E3FF1F050C010921E018681813408F080E41D
:200BC00080931D018FEF9FEF089510921E018681F7CFE3D33FC005D43DC0F1D33BC073D41C
:200BE00039C0CA0168EE73E07AD451DF33C02130310521F02230310549F02CC08BE990E0EE
:200C000090939E0180939D0187E020C04130510559F042305105F1F48EE690E090939E01B7
:200C200080939D0181E112C08FE790E090939E0180939D018CE10AC02730310559F482EAF9
:200C400090E090939E0180939D018EE180939C01B9CF5EDF80E090E008950F931F93CF93AA
:200C600020919C01C62F261708F4C22F20919B010C2F10E060919D0170919E01A801222372
:200C800011F03BD501C023D580919D0190919E01080F191F10939E0100939D0180919C01AB
:200CA0008C1B80939C018C2FCF911F910F910895CF93C62F40919F0120911E014B3F39F486
:200CC000462F50E030E0B90160587F4F08C0403499F4462F50E030E0B9016A5F7F4F25D556
:200CE00080911E018C0F80931E0190911D019C1B90931D0181E054C030911D01361708F423
:200D0000C32F3C1B30931D01582FFC01922F981BA92FAE0F8E2F851B8C1730F48191B0E056
:200D2000AD5DBE4F8C93F4CF2C0F20931E01311134C04230A9F0433001F1413071F597D1C8
:200D4000811101C03CD360E070E080E090E0C6D24091250160912401809123018BD11DC0BE
:200D600086D18823D1F08091230190E0982F882720912401822BE8D210C079D1811101C0EB
:200D80001ED36091240170E0762F662780912501682B8091230190E0A1D281E090911D0148
:200DA000911180E0CF910895B89ABA9AC298089598E087FD02C0C09801C0C09AC29A880F73
:200DC00000000000C2989150A1F70895CF92DF92EF92FF920F931F93CF93DF93EC018B011E
:200DE000E3DF80E0E5DF80E0E3DF80E0E1DF80E0DFDF2296C12CD12C7801EE0CFF1CE00E8F
:200E0000F11ECE14DF0488F48FEFD2DFFE0132978081CEDFFE0131978081CADF8881C8DFBC
:200E200083E0C80ED11C2396ECCFC0E0D0E0C017D10720F48FEFBCDF6096F9CFDF91CF915E
:200E40001F910F91FF90EF90DF90CF90089590917001890F8093700190916500891710F0F5
:200E60001092700108952091650090E0820F911D8038910514F08FEFD7CD08954F925F921A
:200E80006F927F928F929F92AF92BF92CF92DF92EF92FF92CF93DF93CDB7DEB728970FB607
:200EA000F894DEBF0FBECDBF809165019091660180906C0190906D018816990638F488199C
:200EC0009909909366018093650104C010926601109265018091650190916601892B21F5CF
:200EE00010926701C090A001D090A101E090A201F090A301CD2CDE2CEF2CFF24E7FCFA940C
:200F00008091B4019091B501A091B601B091B701692F7A2F8B2F992787FD9A954C2D80915B
:200F2000B9016ADD80E08EC080916A0190916B01019709F086C0A12CB12CC501B40120914C
:200F4000B0013091B1014091B2015091B30107D329833A834B835C838091A8019091A901DF
:200F6000A091AA01B091AB0149805A806B807C80480E591E6A1E7B1E4092A8015092A90129
:200F80006092AA017092AB01C501B4012091C0013091C1014091C2015091C301E0D22983FF
:200FA0003A834B835C83C090AC01D090AD01E090AE01F090AF0189819A81AB81BC81C80E09
:200FC000D91EEA1EFB1EC092AC01D092AD01E092AE01F092AF01C501B4012091A401309105
:200FE000A5014091A6015091A701B9D229833A834B835C834091BC015091BD016091BE01CC
:201000007091BF0189819A81AB81BC81480F591F6A1F7B1F4093BC015093BD016093BE01AC
:201020007093BF01452F562F672F772767FD7A95CD2CDE2CEF2CFF24E7FCFA946C2D852D50
:20104000DBDC81E028960FB6F894DEBF0FBECDBFDF91CF91FF90EF90DF90CF90BF90AF9039
:201060009F908F907F906F905F904F90089580916E0108954F925F926F927F928F929F9256
:20108000AF92BF92CF92DF92EF92FF920F931F93CF93DF93CDB7DEB72B970FB6F894DEBFE9
:2010A0000FBECDBFF82E862EC42E80916E018823F9F084E0D8DEE0916500AE2FB0E0AA5997
:2010C000BF4F1C92A1E0AE0FB0E0AA59BF4FFC92A2E0AE0FB0E0AA59BF4F8C9284E08E0FE8
:2010E00080936500ED5FF0E0EA59FF4FC082DFC081E08093670180916801909169019093E6
:201100006601809365019E012F5F3F4FAE014E5F5F4FBE016D5F7F4F80E043DC4B8150E056
:20112000542F4427052E000C660B770B4093A8015093A9016093AA017093AB014A80512CF2
:20114000542C4424052C000C660877084092AC015092AD016092AE017092AF01898190E0A1
:20116000982F88278C01990F220B330B0C831D832E833F830093BC011093BD012093BE0194
:201180003093BF018F2D90E0982F8827092E000CAA0BBB0B8093B8019093B901A093BA01D5
:2011A000B093BB01912C982C8824092C000CAA08BB088092B4019092B501A092B601B09283
:2011C000B701D12CDC2CCC248601DD0C220B330B088719872A873B870093A0011093A1016C
:2011E0002093A2013093A30120916801309169012115310509F43FC06901E12CF12C8C0164
:201200009D01041B150B260B370BC901B801A701960189D12093B0013093B1014093B20103
:201220005093B301C501B4016419750986099709A701960178D12093C0013093C10140931E
:20124000C2015093C301688579858A859B850C811D812E813F81601B710B820B930BA701A6
:20126000960161D12093A4013093A5014093A6015093A70118C01092B0011092B1011092BE
:20128000B2011092B3011092C0011092C1011092C2011092C3011092A4011092A501109282
:2012A000A6011092A701809167018111E7DD2B960FB6F894DEBF0FBECDBFDF91CF911F91E6
:2012C0000F91FF90EF90DF90CF90BF90AF909F908F907F906F905F904F9008951F93CF9329
:2012E000DF9320916E01222319F1C72FD62F182F84E0B9DDE0916500AE2FB0E0AA59BF4F7D
:2013000081E08C93A1E0AE0FB0E0AA59BF4F1C93A2E0AE0FB0E0AA59BF4FCC9384E08E0F7F
:2013200080936500ED5FF0E0EA59FF4FD08308C080936A0190936B01609368017093690197
:20134000DF91CF911F910895CF93DF9320916E012223E1F0C92FD82F83E085DDE0916500CC
:20136000AE2FB0E0AA59BF4F82E08C93A1E0AE0FB0E0AA59BF4FCC9383E08E0F80936500B8
:20138000EE5FF0E0EA59FF4FD08304C08093630190936401DF91CF91089580916E018823F1
:2013A00069F081E060DDE091650081E08E0F80936500F0E0EA59FF4F83E0808308951092E4
:2013C000700110926F0110926E0180E090E07CCBF6DF1092650081E080936E0181E090E0D2
:2013E00073CBEDDF81E080936F011092670110926B0110926A01109269011092680181E062
:2014000090E062CB90936D0180936C0180916E01811158C080916701811105C080916F01A3
:20142000811105C008952ADD81114CC0F7CF80916500882309F446C080916301909164012E
:201440000097C1F020916C0130916D012817390738F4821B930B909364018093630104C04E
:2014600010926401109263018091630190916401892B41F5E0917001F0E0EA59FF4F808136
:20148000813059F4628170E0762F66278381682B818190E023DF84E0DACC813028F4438143
:2014A00062818181E7DDF7CF823049F4818190E0982F88272281822B47DF83E0EDCF83309E
:2014C00009F46BCF08956091650086E690E044CA60E886E690E019DA8093650008950024A8
:2014E000552704C0080E591F880F991F009729F076956795B8F37105B9F7802D952F089539
:2015000097FB072E16F4009406D077FD08D07BD007FC05D03EF4909581959F4F0895709524
:2015200061957F4F0895052E97FB16F400940FD057FD05D07CD007FC02D046F408C05095D7
:201540004095309521953F4F4F4F5F4F089590958095709561957F4F8F4F9F4F089568945C
:201560000013E894A0E0B0E0E7EBFAE01DC0EFEFE7F959016A015E23550FEE08FE2C870133
:201580009B01AC019E23990F660B762FCB0171D0CDB7DEB7EAE024C02F923F924F925F924B
:2015A0006F927F928F929F92AF92BF92CF92DF92EF92FF920F931F93CF93DF93CDB7DEB710
:2015C000CA1BDB0B0FB6F894DEBF0FBECDBF09942A88398848885F846E847D848C849B8414
:2015E000AA84B984C884DF80EE80FD800C811B81AA81B981CE0FD11D0FB6F894DEBF0FBED6
:20160000CDBFED010895AA1BBB1B51E107C0AA1FBB1FA617B70710F0A61BB70B881F991F1F
:201620005A95A9F780959095BC01CD010895A1E21A2EAA1BBB1BFD010DC0AA1FBB1FEE1FD8
:20164000FF1FA217B307E407F50720F0A21BB30BE40BF50B661F771F881F991F1A9469F710
:2016600060957095809590959B01AC01BD01CF010895DF93CF939F92A0E49A2E0024D0017C
:20168000E001F00116950795F794E794D794C794B794A79448F41068A20FB31FC41FD51FD1
:2016A000E61FF71F081E191E220F331F441F551F661F771F881F991F9A9421F79D01AE014B
:2016C000BF01C00111249F90CF91DF910895FB01DC0102C005900D9241505040D8F708955C
:2016E000FB01DC0104C08D910190801921F441505040C8F7881B990B0895DC01CB01FC0186
:20170000E199FECF06C0FFBBEEBBE09A31960DB20D9241505040B8F70895E199FECF9FBBAC
:201720008EBBE09A99278DB30895DC01A40FB51F4150504040F0CB01840F951F2E9105D0ED
:2017400041505040D8F70895262FE199FECF9FBB8EBBE09A01970DB2021639F01CBA2DBBED
:201760000FB6F894E29AE19A0FBE0895F894FFCFFFFF5A04201500FF00000203E80000FFE1
:20178000000203E8000000FF0203E800000000000000000000000000000000000000000070
:2017A000000000000000000000000000000000000000000000000000000000000000000029
:2017C000000000000000000000000000000000000000000000000000000000000000000009
:2017E000000000000000000000000000000000000000000000005765624C2203000000005A
:2018000000000000000000000000000000000000000000000000000000000000FFFFFFFFCC
:20182000FFFFFFFFFFFFFFFFFFFFFFFFFFFFFFFFFFFFFFFFFFFFFFFFFFFFFFFFFFFFFFFFC8
:20184000FFFFFFFFFFFFFFFFFFFFFFFFFFFFFFFFFFFFFFFFFFFFFFFFFFFFFFFFFFFFFFFFA8
:20186000FFFFFFFFFFFFFFFFFFFFFFFFFFFFFFFFFFFFFFFFFFFFFFFFFFFFFFFFFFFFFFFF88
:20188000FFFFFFFFFFFFFFFFFFFFFFFFFFFFFFFFFFFFFFFFFFFFFFFFFFFFFFFFFFFFFFFF68
:2018A000FFFFFFFFFFFFFFFFFFFFFFFFFFFFFFFFFFFFFFFFFFFFFFFFFFFFFFFFFFFFFFFF48
:2018C000FFFFFFFFFFFFFFFFFFFFFFFFFFFFFFFFFFFFFFFFFFFFFFFFFFFFFFFFFFFFFFFF28
:2018E000FFFFFFFFFFFFFFFFFFFFFFFFFFFFFFFFFFFFFFFFFFFFFFFFFFFFFFFFFFFFFFFF08
:20190000FFFFFFFFFFFFFFFFFFFFFFFFFFFFFFFFFFFFFFFFFFFFFFFFFFFFFFFFFFFFFFFFE7
:20192000FFFFFFFFFFFFFFFFFFFFFFFFFFFFFFFFFFFFFFFFFFFFFFFFFFFFFFFFFFFFFFFFC7
:20194000FFFFFFFFFFFFFFFFFFFFFFFFFFFFFFFFFFFFFFFFFFFFFFFFFFFFFFFFFFFFFFFFA7
:20196000FFFFFFFFFFFFFFFFFFFFFFFFFFFFFFFFFFFFFFFFFFFFFFFFFFFF9700BEC3FFFF6B
:2019800017C0197A4005930B09021200010100803209040000000000000012011001FF00F9
:2019A0000008D01653070302000000010403090411241FBECFE5D2E0CDBFDEBF20E0A0E69E
:2019C000B0E001C01D92AC38B207E1F7BFC1A82FB92F80E090E041E050EA609530E009C05A
:2019E0002D9182279795879510F084279527305EC8F36F5FA8F30895EADF8D939D930895CC
:201A0000CF93CFB7CF93C395B39BE9F7B39B0BC0B39B09C0B39B07C0B39B05C0B39B03C08D
:201A2000B39B01C0D9C00F92DF93C0916E00DD27CA58DF4F012EB39B03C0DF910F90E6CFD4
:201A40002F930F931F934F932FEF4F6F06B303FB20F95F933F9350E03BE065C016B30126BE
:201A6000502953FDC89556B3012703FB25F92F7306B3B1F05027102713FB26F906B2223012
:201A8000F0F000C016B3012703FB27F90126502906B22430E8F54F77206816B30000F6CF32
:201AA00050274F7D206206B2102F000000C006B300265029102713FB26F906B2E2CF4F7BBB
:201AC00006B3206400C0DACF01265029187106B269F14E7F2160012F16B328C00026502957
:201AE0004D7F06B22260102F29C0012650294B7F06B22460012F2DC016B301265029477FC6
:201B00002860000006B22EC04F7E06B3206130C0422706B3499300265029102706B24FEFD6
:201B200013FB20F9297F16B379F2187159F10126502906B2012703FB21F9237F06B371F279
:201B4000002650293150D0F006B2102713FB22F9277E16B351F201265029012703FB06B25E
:201B600023F92F7C49F2000006B3102713FB24F90026502906B22F7939F270CF10E21ABF14
:201B800000271DC03B503195C31BD04010E21ABF0881033C29F10B3419F120916C00198155
:201BA000110F1213EDCF093651F10D3211F0013E39F7CAE01AB715FD02C0CA95D9F70093E3
:201BC00074003F915F914F911F910F912F91DF910F90CAB7C5FD17CFCF91CFBFCF910895BE
:201BE00020917400222369F3109172001123F1F43430F2F03093720020936D0019C00091EE
:201C0000720001309CF40AE530916F0034FD11C000936F00C1E6D0E010C0052710E000C06B
:201C200021C0052710E0C89508BB14C03AE501C032ED032EC0E0D0E032E017B31861C39A81
:201C400008B317BB58E120E84FEF20FF052708BB279517951C3F28F700004552B0F720FF2B
:201C60000527279508BB17951C3FB8F629913A9561F7077E10917300110F08BBC250D04085
:201C800011F010936C0010E21ABF086017B3177E402F477E54E05A95F1F708BB17BB48BBCB
:201CA00090CF2FEFB0E8A0E04AE0B1BF000081EE9CE0B399FECFB39BFECF0197B399FDCF26
:201CC00097FF03C0BA1B819501C0BA0FA69539F4A0E428F4281710F031B7282FA1E041509E
:201CE00021F731BF00000895F201309741F02AE7421629E1520629F481B790E002C08FEB88
:201D00009CEC21E00C0120935700E8951124CF0102962C01089514BE88E181BD87E081BD21
:201D2000BB9A2FE28BE19FE0215080409040E1F700C00000BB988AE580936F008FEF8093E4
:201D40006000AC9A8BB780628BBF0895EAE7F9E1E491EF3F11F0E1BF000084B78A7031F489
:201D6000EDE7F9E1E491EF3F09F02FC1D4DF712C312C412C512CCCE7D5E114E686B38871FD
:201D800009F014E6115029F41092730010926C0088DF0AB605FE05C033DE80E28ABF712C67
:201DA00004C0219759F7C0E0D0E0A89522E032120CC0E0E8F9E1E054F10983E0809357001B
:201DC000E8953097C1F7412C512C832D803459F4F2013297E03889E1F80750F485E0809373
:201DE0005700E89505C0843019F4CD2B11F4EAC0312C80917200835087FD99C090916D00C4
:201E00009D3209F092C0883009F08FC083EC809361008AE580936F00809177008076909135
:201E20007800882379F1911108C082E899E1909371008093700086E06DC0913069F44114AA
:201E40005104F1F080917B00807C482E50907C0081E187BFE89514C0933081F48091790037
:201E600090917A0041DF80917B0090917C003CDF842D8F7329F490E4392E4CC09F73392E33
:201E800080E048C08091790010926A00911106C010926B002AE630E082E038C0953019F483
:201EA0008093730025C09630E9F490917A00913019F48AE999E104C0923041F488E899E119
:201EC000909371008093700082E124C09330C1F68111D6CF8CEA99E19093710080937000EC
:201EE00084E018C0983079F0993031F4809375002AE630E080E00AC081E09A3009F080E031
:201F00002AE630E003C025E730E081E0309371002093700090917E00911105C090917D0066
:201F2000981708F4892F809360001092720080916F0084FF31C0809160008F3F69F1C82F33
:201F4000893008F0C8E08C1B809360009091610088E8892780936100CC2391F08091700007
:201F6000A2E6B0E0E82FF091710094919D9331969C2F980F9E13F9CFF0937100E093700062
:201F80006C2F82E690E038DDCC5FCC3019F08FEF80936000C0936F00C30101963C01803B83
:201FA000944029F4EDE7F9E1E491EF3F59F40AB605FEE1CE8DE1B39B8DE18150E1F780E2EB
:0E1FC0008ABFD9CEA8DE1BBE15BAD8CCFFCF83
:00000001FF
