:20000000BFCC7CC0A8C07AC079C078C077C076C075C074C073C072C071C070C06FC0090230
:200020001200010100A0FA09040000000000000012035700650062004C006900670068004E
:200040007400160373006F0077006200750067002E0063006F006D000403090412011002D6
:20006000FF000008091200A80001010203010A000000000003061E001400030057494E5523
:20008000534200000000000000000000050F3900021810050038B60834A909A0478BFDA064
:2000A000768815B6650001FE011C100500DF60DDD88945C74C9CD2659D9E648A9F0000036E
:2000C000061E00FC000011241FBECFE5D2E0DEBFCDBF11E0A0E6B0E0ECEDF7E102C0059050
:2000E0000D92AC30B107D9F721E0ACE0B1E001C01D92A43CB207E1F7CDD26ECB81CFA82FFF
:20010000B92F80E090E041E050EA609530E009C02D9182279795879510F084279527305E5A
:20012000C8F36F5FA8F30895EADF8D939D930895A6E088279927AA9569F00197E1F3B39903
:20014000FCCFB39BFECF81E09927A6B3019611F0A871D9F70895CF93CFB7CF93C395B39B31
:20016000E9F7B39B0BC0B39B09C0B39B07C0B39B05C0B39B03C0B39B01C0D3C00F92DF9381
:20018000C0917E01DD27CB57DE4F012EB39B03C0DF910F90E6CF2F930F931F934F932FEF22
:2001A0004F6F06B303FB20F95F933F9350E03BE065C016B30126502953FDC89556B3012736
:2001C00003FB25F92F7306B3B1F05027102713FB26F906B22230F0F000C016B3012703FB93
:2001E00027F90126502906B22430E8F54F77206816B30000F6CF50274F7D206206B2102FBE
:20020000000000C006B300265029102713FB26F906B2E2CF4F7B06B3206400C0DACF012662
:200220005029187106B269F14E7F2160012F16B328C0002650294D7F06B22260102F29C0AE
:20024000012650294B7F06B22460012F2DC016B301265029477F2860000006B22EC04F7EB1
:2002600006B3206130C0422706B3499300265029102706B24FEF13FB20F9297F16B379F287
:20028000187159F10126502906B2012703FB21F9237F06B371F2002650293150D0F006B29D
:2002A000102713FB22F9277E16B351F201265029012703FB06B223F92F7C49F2000006B3F4
:2002C000102713FB24F90026502906B22F7939F270CF10E21ABF002717C03B503195C31B5B
:2002E000D04010E21ABF0881033CF9F00B34E9F020917C011981110F1213EDCF093651F110
:200300000D3211F0013E39F7009383013F915F914F911F910F912F91DF910F90CAB7C5FD15
:200320001DCFCF91CFBFCF91189520918301222369F310918101112321F5343022F1309359
:20034000810120937D0110917E013BE0311B30937E0119C00091810101309CF40AE53091C4
:20036000620034FD11C000936200C1E7D1E010C0052710E000C021C0052710E0C89508BB02
:2003800014C03AE501C032ED032EC0E0D0E032E017B31861C39A08B317BB58E120E84FEF4B
:2003A00020FF052708BB279517951C3F28F700004552B0F720FF0527279508BB17951C3F3E
:2003C000B8F629913A9561F7077E10918201110F08BBC250D04011F010937C0110E21ABFF4
:2003E000086017B3177E402F477E54E05A95F1F708BB17BB48BB8ACFCF93DF9360918101BF
:20040000635067FDB8C080917E01CCE0D0E0C81BD109CB57DE4F80917D018D3209F097C0B7
:20042000683009F0A6C083EC809371018AE58093620010920D018881807619F0CE0185D30E
:200440006EC09A8110927A018981811107C010927B012AE731E082E090E05DC0853019F4E2
:200460009093820145C08630E9F58B81813019F48CE590E004C0823051F48EE190E09093D5
:20048000800180937F0120E482E190E028C0833019F591110AC088E590E0909380018093C8
:2004A0007F0120E484E090E01AC0913051F482E490E09093800180937F0120E486E190E01C
:2004C0000EC0923019F480E390E0D9CF933021F4CE0110D320E003C0CE010CD320E4209352
:2004E0000D011DC0883099F0893039F4909384012AE731E080E090E00EC031E020E08A30B7
:2005000009F030E0832F922F2AE731E004C024E831E081E090E03093800120937F018F3F46
:200520002FEF920749F4288127FF02C08E819F8120E820930D0106C02E813F81281739078A
:2005400008F4C901909361008093600012C080910D0187FF0EC0CE01B0D38F3F21F48EE1F5
:200560008093620006C0882321F01092610010926000109281018091620084FF6BC0809129
:200580006000909161008F3F2FEF920709F462C0BC018930910510F068E070E0861B970BEE
:2005A00090936100809360008091710198E8892780937101C62F6623B1F180910D0187FF47
:2005C00007C082E791E04ED3C82F8930D0F52BC020917F013091800186FF12C0A2E7B1E015
:2005E00041E751E040955095420F531F862F8A0FFA01EA0FFB1FE491ED938A13F9CF09C0A6
:20060000E2E7F1E0D901862F8E0F9D9191938E13FCCF2F5F3F4F8FEF8C0F280F311D3093D9
:20062000800120937F016C2F82E791E07DDDCC5FCC3071F02FEF3FEF30936100209360002C
:2006400007C08FEF9FEF9093610080936000CEE1C093620084E196B3987131F48150D9F7EF
:200660001092820110927C01C1E08111C0E080910C018C1739F0C11103C0F89430D078944C
:20068000C0930C01DF91CF910895AC9A8BB780628BBF0895CF93DF931F92CDB7DEB72EE090
:2006A00088E190E00FB6F894A89581BD0FBE21BDECDFBB9A8BEF815039F0ECE1F0E13197F0
:2006C000F1F700C00000F7CF7894BB98CE01019653D092DECE0101965ED0A895FACFAF9279
:2006E000BF92CF92DF92EF92FF920F931F93CF93DF93C12C2FE7A22ECFE0D7E23CECE32E29
:2007000036EFF32EC11002C0D12C02C090E8D92E07E010E080E4B82E80E090E08433994041
:2007200014F4DB0C01C0DB18D1BE02DD853329E0920724F09C012453394003C09701281B0F
:20074000390B2C173D0714F4AD2CE901B694015011090115110511F7C39482E0C812D2CFE6
:20076000A1BEDF91CF911F910F91FF90EF90DF90CF90BF90AF90089558D18EE080BF81E2BA
:200780008EBD43D0882319F061D0D8D603C09BD084D0CFD65CC6CF93DF9308B606FE32C097
:2007A00088B7806488BF8FB590E0982F88279295990F907E68EE73E0D9D6EB011FBCCB01DD
:2007C0007CD1882319F083E090E08FD189D18230910518F0039721F015C0CE0149D612C0FB
:2007E00040E060E08091640010D19091630080916400890F809364008850893518F0919577
:2008000090936300DF91CF91CEC0CF93DF9300D000D0CDB7DEB744E050E060E070E0CE01B4
:200820000196A1D744E050E0BE016F5F7F4F86EE90E08CD721E0892B09F020E0822F0F90B5
:200840000F900F900F90DF91CF910895CF93DF93CDB7DEB760970FB6F894DEBF0FBECDBF23
:2008600040E150E066E070E0CE0101967CD7FE013196ACEEB0E0CE014196219130E02D93C0
:200880003D93E817F907C9F760960FB6F894DEBF0FBECDBFDF91CF91089544E050E060E08B
:2008A00070E086EE90E077D761E084E090E082D760E085E090E07ED740E150E066E070E0F7
:2008C0008CEE90E068C7ECEEF0E081E690E081939193019681379105D1F70895EF92FF92EA
:2008E0001F93CF93DF931F92CDB7DEB77C0186E190E0698348D79FEF980F6981993660F407
:20090000182F681708F4162F412F50E067E170E0C70129D7812F01C080E00F90DF91CF9190
:200920001F91FF90EF9008951F93CF93DF93EC01162F86E190E03ED78FEF810F893648F4AF
:20094000412F50E067E170E0CE01DF91CF911F9122C7DF91CF911F910895FF920F931F9325
:20096000CF93DF93EB018A0120E830E039832883F82E8881998107D7F8018083FF2051F02A
:20098000FA94882349F028813981280F311D39832883EFCF81E001C080E0DF91CF911F91D6
:2009A0000F91FF90089580911201882339F01092120162E070E083E191E02EC208950F9328
:2009C0001F93CF93DF93EB018A01E82FF0E0CF0163E070E0BAD5DC01AD5EBE4F12968C9187
:2009E0001297888311968C91D8018C93CF0163E070E0ABD58D5E9E4FFC018081D9018C93D5
:200A0000DF91CF911F910F91089580931501609314014093130191E090931201809318012E
:200A20006093170140931601089510921501109214011092130181E08093120110921801BD
:200A40001092170110921601AECF0F931F93CF93DF93182FEADFC0E000E2D1E0C11719F159
:200A6000109215011092140100931301D09312019ADF81E291EA0197F1F700C000001092B1
:200A800015011092140110921301D09312018BDF97EB22E881E0915020408040E1F700C06D
:200AA0000000CF5FDBCFDF91CF911F910F9108959093110180931001089520911001309128
:200AC00011012115310551F0281B390B309311012093100181E0121613060CF480E0089598
:200AE00080910E0190910F01089590930F0180930E010895FC012381233059F02F30B1F4D5
:200B00008CE890E09093800180937F0189E390E00895FC018281833049F48AEE90E0909346
:200B2000800180937F0182E290E0089580E090E0089583E08ADF28E088E190E00FB6F894C5
:200B4000A89581BD0FBE21BDFFCFFC01618160939F018281938180932101909322012481F8
:200B600035813093200120931F0149E151E05093800140937F01683009F443C0C0F4643016
:200B8000D1F180F4611126C080931901838180931A01848180931B01858180931C0184E09A
:200BA00090E00895663049F150F548D458C06B3FF1F048F46B3039F16034C9F0693009F074
:200BC0004EC0BCD44CC06D3F09F448C0D0F16E3FF9F045C010921E01868180931D018134B0
:200BE00018F080E480931D018FEF9FEF089510921E018681F7CF07D432C029D430C015D47E
:200C00002EC097D42CC068EE73E09FD451DF27C091E090939B012130310521F0223031050C
:200C200041F01DC04CE951E06DE971E080E095DEDBCF4CE951E06DE971E08FDE8111D4CF6D
:200C40000DC02730310559F48EE690E090939E0180939D018EE180939C01C6CF6ADF80E039
:200C600090E008951F93CF93DF9320919C01162F261708F4122F20919B01C12FD0E06091F6
:200C80009D0170919E01AE01222311F06CD501C054D520919D0130919E012C0F3D1F3093ED
:200CA0009E0120939D0180919C01811B80939C01812FDF91CF911F910895CF93C62F309165
:200CC0009F0160911E013B3F41F44C2F50E0262F30E0B90160587F4F07C0303491F44C2F3A
:200CE00050E070E06A5F7F4F56D580911E018C0F80931E0190911D019C1B90931D0181E01D
:200D000054C020911D012C1708F4C22F2C1B20931D01482FFC01962F981BA92FAE0F8E2F6A
:200D2000841B8C1730F48191B0E0AD5DBE4F8C93F4CF6C0F60931E01211134C03230A9F004
:200D4000333001F1313071F5ADD1811101C06DD360E070E080E090E0E7D240912501609165
:200D6000240180912301A1D11DC09CD18823D1F08091230190E0982F882720912401822B53
:200D800011D310C08FD1811101C04FD36091240170E0762F662780912501682B8091230133
:200DA00090E0C2D281E090911D01911180E0CF910895B89ABA9AC298089598E087FD02C035
:200DC000C09801C0C09AC29A880F00000000C2989150A1F7089580E0F0DF80E0EEDF80E081
:200DE000ECDF80E0EACFCF93DF93EC0184E0D695C7958A95E1F780E0E0DF80E0DEDF80E090
:200E0000DCDF80E0DADFCE010197CD2B11F0EC01F2CFDF91CF91DFCFCF92DF92EF92FF928E
:200E20000F931F93CF93DF93EC018B01C2DFD3DF2296C12CD12C7801EE0CFF1CE00EF11E91
:200E4000CE14DF0488F48FEFB8DFFE0132978081B4DFFE0131978081B0DF8881AEDF83E090
:200E6000C80ED11C2396ECCFC801DF91CF911F910F91FF90EF90DF90CF90B5CF9091700160
:200E8000980F9093700180916500981710F01092700108952091650090E0820F911D8038C5
:200EA000910514F08FEFD1CD08954F925F926F927F928F929F92AF92BF92CF92DF92EF92C4
:200EC000FF92CF93DF93CDB7DEB728970FB6F894DEBF0FBECDBF8091650190916601C0903F
:200EE0006C01D0906D01C816D90638F48C199D09909366018093650104C010926601109211
:200F000065018091650190916601892B21F510926701C090A001D090A101E090A201F09012
:200F2000A301CD2CDE2CEF2CFF24E7FCFA948091B4019091B501A091B601B091B701692F45
:200F40007A2F8B2F992787FD9A954C2D8091B9015CDD80E092C080916A0190916B010197EB
:200F600009F08AC0E12CF12CC701B6012091B0013091B1014091B2015091B30126D32983F2
:200F80003A834B835C834090A8015090A9016090AA017090AB0129813A814B815C81420E3F
:200FA000531E641E751E4092A8015092A9016092AA017092AB01C701B6012091C0013091A7
:200FC000C1014091C2015091C301FFD229833A834B835C838090AC019090AD01A090AE01C5
:200FE000B090AF0189819A81AB81BC81880E991EAA1EBB1E8092AC019092AD01A092AE0115
:20100000B092AF01C701B6012091A4013091A5014091A6015091A701D8D229833A834B83C0
:201020005C836D837E838F8398878091BC019091BD01A091BE01B091BF0129813A814B81E0
:201040005C81820F931FA41FB51F8093BC019093BD01A093BE01B093BF01C92EDA2EEB2E1B
:20106000FF24E7FCFA949927B7FC9A958B2D7A2D692D4C2D852DC9DC81E028960FB6F89405
:20108000DEBF0FBECDBFDF91CF91FF90EF90DF90CF90BF90AF909F908F907F906F905F90D5
:2010A0004F90089580916E0108954F925F926F927F928F929F92AF92BF92CF92DF92EF927C
:2010C000FF920F931F93CF93DF93CDB7DEB72F970FB6F894DEBF0FBECDBF182FE62EF42EB4
:2010E00080916E018823F9F084E0D4DEE0916500AE2FB0E0AA59BF4F1C92A1E0AE0FB0E0F6
:20110000AA59BF4F1C93A2E0AE0FB0E0AA59BF4FEC9284E08E0F80936500ED5FF0E0EA59D9
:20112000FF4FF082EAC081E080936701809168019091690190936601809365019E012F5F34
:201140003F4FAE014E5F5F4FBE016D5F7F4F80E036DC6B8170E0762F6627CB01AA2797FD8D
:20116000A095BA2F8093A8019093A901A093AA01B093AB014A80512C542C4424662457FCEF
:201180006094762C4092AC015092AD016092AE017092AF01298130E0322F22275901CC24A9
:2011A000B7FCC094DC2CAC82BD82CE82DF82A092BC01B092BD01C092BE01D092BF01012FB0
:2011C00010E0102F00279801442737FD4095542F2C873D874E875F872093B8013093B9010E
:2011E0004093BA015093BB014E2D50E0542F44275A01CC24B7FCC094DC2CA886B986CA8612
:20120000DB86A092B401B092B501C092B601D092B7018F2C912C982C8824AA2497FCA094EE
:20122000BA2C8092A0019092A101A092A201B092A301C0906801D0906901C114D10409F46C
:2012400040C0E12CF12C0C851D852E853F85081B190B2A0B3B0BC901B801A701960199D1CC
:201260002093B0013093B1014093B2015093B301688579858A859B85641975098609970934
:20128000A701960186D12093C0013093C1014093C2015093C301C501B4010C811D812E812D
:2012A0003F81601B710B820B930BA701960171D12093A4013093A5014093A6015093A70105
:2012C00018C01092B0011092B1011092B2011092B3011092C0011092C1011092C201109216
:2012E000C3011092A4011092A5011092A6011092A701809167018111D8DD2F960FB6F89432
:20130000DEBF0FBECDBFDF91CF911F910F91FF90EF90DF90CF90BF90AF909F908F907F90F0
:201320006F905F904F9008951F93CF93DF9300D0CDB7DEB7182F80916E01882329F184E0E4
:2013400069837A83A7DD90916500A92FB0E0AA59BF4F81E08C93A1E0A90FB0E0AA59BF4FC7
:201360001C93A2E0A90FB0E0AA59BF4F7A817C9384E0890F80936500E3E0E90FF0E0EA5997
:20138000FF4F6981608308C010936A0190936B0160936801709369010F900F90DF91CF91F6
:2013A0001F9108951F93CF93DF931F92CDB7DEB7182F80916E018823E9F083E099836ADD7F
:2013C00020916500A22FB0E0AA59BF4F82E08C93A1E0A20FB0E0AA59BF4F99819C9383E085
:2013E000820F80936500E2E0E20FF0E0EA59FF4F108304C010936301909364010F90DF91DB
:20140000CF911F91089580916E01882369F081E041DDE091650081E08E0F80936500F0E000
:20142000EA59FF4F83E0808308951092700110926F0110926E0180E090E057CBF6DF109279
:20144000650081E080936E0181E090E04ECBEDDF81E080936F011092670110926B011092F0
:201460006A01109269011092680181E090E03DCB90936D0180936C0180916E01811158C0D6
:2014800080916701811105C080916F01811105C008950BDD81114CC0F7CF8091650088239A
:2014A00009F446C080916301909164010097C1F020916C0130916D012817390738F4821B51
:2014C000930B909364018093630104C010926401109263018091630190916401892B41F5B9
:2014E000E0917001F0E0EA59FF4F8081813059F4628170E0762F66278381682B818190E03C
:2015000013DF84E0BBCC813028F4438162818181CCDDF7CF823049F4818190E0982F882732
:201520002281822B3FDF83E0EDCF833009F46BCF08956091650086E690E0F6C960E886E6F2
:2015400090E0CCD98093650008950024552704C0080E591F880F991F009729F07695679569
:20156000B8F37105B9F7802D952F089597FB072E16F4009406D077FD08D07BD007FC05D0E2
:201580003EF4909581959F4F0895709561957F4F0895052E97FB16F400940FD057FD05D082
:2015A0007CD007FC02D046F408C050954095309521953F4F4F4F5F4F08959095809570951D
:2015C00061957F4F8F4F9F4F089568940013E894A0E0B0E0EDEEFAE01DC0EFEFE7F9590199
:2015E0006A015E23550FEE08FE2C87019B01AC019E23990F660B762FCB0171D0CDB7DEB705
:20160000EAE024C02F923F924F925F926F927F928F929F92AF92BF92CF92DF92EF92FF92DE
:201620000F931F93CF93DF93CDB7DEB7CA1BDB0B0FB6F894DEBF0FBECDBF09942A88398847
:2016400048885F846E847D848C849B84AA84B984C884DF80EE80FD800C811B81AA81B98126
:20166000CE0FD11D0FB6F894DEBF0FBECDBFED010895AA1BBB1B51E107C0AA1FBB1FA617D9
:20168000B70710F0A61BB70B881F991F5A95A9F780959095BC01CD010895A1E21A2EAA1B29
:2016A000BB1BFD010DC0AA1FBB1FEE1FFF1FA217B307E407F50720F0A21BB30BE40BF50BE7
:2016C000661F771F881F991F1A9469F760957095809590959B01AC01BD01CF010895DF9368
:2016E000CF939F92A0E49A2E0024D001E001F00116950795F794E794D794C794B794A794AB
:2017000048F41068A20FB31FC41FD51FE61FF71F081E191E220F331F441F551F661F771FCE
:20172000881F991F9A9421F79D01AE01BF01C00111249F90CF91DF910895FB01DC0102C0CA
:2017400005900D9241505040D8F70895FB01DC0104C08D910190801921F441505040C8F7EE
:20176000881B990B0895DC01CB01FC01E199FECF06C0FFBBEEBBE09A31960DB20D9241503F
:201780005040B8F70895E199FECF9FBB8EBBE09A99278DB30895DC01A40FB51F41505040E7
:2017A00040F0CB01840F951F2E9105D041505040D8F70895262FE199FECF9FBB8EBBE09A0C
:2017C00001970DB2021639F01CBA2DBB0FB6F894E29AE19A0FBE0895F894FFCFFFFF5A044B
:2017E000201500FF00000203E80000FF000203E8000000FF0203E8000000000000000000F0
:201800000000000000000000000000000000000000000000000000000000000000000000C8
:201820000000000000000000000000000000000000000000000000000000000000000000A8
:20184000000000000000000000000000000000000000000000000000000000000000000088
:2018600000005765624C2203000000000000000000000000000000000000000000000000D9
:201880000000000000000000FFFFFFFFFFFFFFFFFFFFFFFFFFFFFFFFFFFFFFFFFFFFFFFF60
:2018A000FFFFFFFFFFFFFFFFFFFFFFFFFFFFFFFFFFFFFFFFFFFFFFFFFFFFFFFFFFFFFFFF48
:2018C000FFFFFFFFFFFFFFFFFFFFFFFFFFFFFFFFFFFFFFFFFFFFFFFFFFFFFFFFFFFFFFFF28
:2018E000FFFFFFFFFFFFFFFFFFFFFFFFFFFFFFFFFFFFFFFFFFFFFFFFFFFFFFFFFFFFFFFF08
:20190000FFFFFFFFFFFFFFFFFFFFFFFFFFFFFFFFFFFFFFFFFFFFFFFFFFFFFFFFFFFFFFFFE7
:20192000FFFFFFFFFFFFFFFFFFFFFFFFFFFFFFFFFFFFFFFFFFFFFFFFFFFFFFFFFFFFFFFFC7
:20194000FFFFFFFFFFFFFFFFFFFFFFFFFFFFFFFFFFFFFFFFFFFFFFFFFFFFFFFFFFFFFFFFA7
:20196000FFFFFFFFFFFFFFFFFFFFFFFFFFFFFFFFFFFFFFFFFFFFFFFFFFFF9700A4C3FFFF85
:2019800017C0197A4005930B09021200010100803209040000000000000012011001FF00F9
:2019A0000008D01653070302000000010403090411241FBECFE5D2E0CDBFDEBF20E0A0E69E
:2019C000B0E001C01D92AC38B207E1F7BFC1A82FB92F80E090E041E050EA609530E009C05A
:2019E0002D9182279795879510F084279527305EC8F36F5FA8F30895EADF8D939D930895CC
:201A0000CF93CFB7CF93C395B39BE9F7B39B0BC0B39B09C0B39B07C0B39B05C0B39B03C08D
:201A2000B39B01C0D9C00F92DF93C0916E00DD27CA58DF4F012EB39B03C0DF910F90E6CFD4
:201A40002F930F931F934F932FEF4F6F06B303FB20F95F933F9350E03BE065C016B30126BE
:201A6000502953FDC89556B3012703FB25F92F7306B3B1F05027102713FB26F906B2223012
:201A8000F0F000C016B3012703FB27F90126502906B22430E8F54F77206816B30000F6CF32
:201AA00050274F7D206206B2102F000000C006B300265029102713FB26F906B2E2CF4F7BBB
:201AC00006B3206400C0DACF01265029187106B269F14E7F2160012F16B328C00026502957
:201AE0004D7F06B22260102F29C0012650294B7F06B22460012F2DC016B301265029477FC6
:201B00002860000006B22EC04F7E06B3206130C0422706B3499300265029102706B24FEFD6
:201B200013FB20F9297F16B379F2187159F10126502906B2012703FB21F9237F06B371F279
:201B4000002650293150D0F006B2102713FB22F9277E16B351F201265029012703FB06B25E
:201B600023F92F7C49F2000006B3102713FB24F90026502906B22F7939F270CF10E21ABF14
:201B800000271DC03B503195C31BD04010E21ABF0881033C29F10B3419F120916C00198155
:201BA000110F1213EDCF093651F10D3211F0013E39F7CAE01AB715FD02C0CA95D9F70093E3
:201BC00074003F915F914F911F910F912F91DF910F90CAB7C5FD17CFCF91CFBFCF910895BE
:201BE00020917400222369F3109172001123F1F43430F2F03093720020936D0019C00091EE
:201C0000720001309CF40AE530916F0034FD11C000936F00C1E6D0E010C0052710E000C06B
:201C200021C0052710E0C89508BB14C03AE501C032ED032EC0E0D0E032E017B31861C39A81
:201C400008B317BB58E120E84FEF20FF052708BB279517951C3F28F700004552B0F720FF2B
:201C60000527279508BB17951C3FB8F629913A9561F7077E10917300110F08BBC250D04085
:201C800011F010936C0010E21ABF086017B3177E402F477E54E05A95F1F708BB17BB48BBCB
:201CA00090CF2FEFB0E8A0E04AE0B1BF000081EE9CE0B399FECFB39BFECF0197B399FDCF26
:201CC00097FF03C0BA1B819501C0BA0FA69539F4A0E428F4281710F031B7282FA1E041509E
:201CE00021F731BF00000895F201309741F02AE7421629E1520629F481B790E002C08FEB88
:201D00009CEC21E00C0120935700E8951124CF0102962C01089514BE88E181BD87E081BD21
:201D2000BB9A2FE28BE19FE0215080409040E1F700C00000BB988AE580936F008FEF8093E4
:201D40006000AC9A8BB780628BBF0895EAE7F9E1E491EF3F11F0E1BF000084B78A7031F489
:201D6000EDE7F9E1E491EF3F09F02FC1D4DF712C312C412C512CCCE7D5E114E686B38871FD
:201D800009F014E6115029F41092730010926C0088DF0AB605FE05C033DE80E28ABF712C67
:201DA00004C0219759F7C0E0D0E0A89522E032120CC0E0E8F9E1E054F10983E0809357001B
:201DC000E8953097C1F7412C512C832D803459F4F2013297E03889E1F80750F485E0809373
:201DE0005700E89505C0843019F4CD2B11F4EAC0312C80917200835087FD99C090916D00C4
:201E00009D3209F092C0883009F08FC083EC809361008AE580936F00809177008076909135
:201E20007800882379F1911108C082E899E1909371008093700086E06DC0913069F44114AA
:201E40005104F1F080917B00807C482E50907C0081E187BFE89514C0933081F48091790037
:201E600090917A0041DF80917B0090917C003CDF842D8F7329F490E4392E4CC09F73392E33
:201E800080E048C08091790010926A00911106C010926B002AE630E082E038C0953019F483
:201EA0008093730025C09630E9F490917A00913019F48AE999E104C0923041F488E899E119
:201EC000909371008093700082E124C09330C1F68111D6CF8CEA99E19093710080937000EC
:201EE00084E018C0983079F0993031F4809375002AE630E080E00AC081E09A3009F080E031
:201F00002AE630E003C025E730E081E0309371002093700090917E00911105C090917D0066
:201F2000981708F4892F809360001092720080916F0084FF31C0809160008F3F69F1C82F33
:201F4000893008F0C8E08C1B809360009091610088E8892780936100CC2391F08091700007
:201F6000A2E6B0E0E82FF091710094919D9331969C2F980F9E13F9CFF0937100E093700062
:201F80006C2F82E690E038DDCC5FCC3019F08FEF80936000C0936F00C30101963C01803B83
:201FA000944029F4EDE7F9E1E491EF3F59F40AB605FEE1CE8DE1B39B8DE18150E1F780E2EB
:0E1FC0008ABFD9CEA8DE1BBE15BAD8CCFFCF83
:00000001FF
