:20000000BFCC7BC0D5C179C078C077C076C075C074C073C072C071C070C06FC06EC009020F
:200020001200010100A03209040000000000000012035700650062004C0069006700680016
:200040007400160373006F0077006200750067002E0063006F006D000403090412011002D6
:20006000FF000008091200A80001010203010A000000000003061E001400030057494E5523
:20008000534200000000000000000000050F3800021710050038B60834A909A0478BFDA066
:2000A000768815B6650001FE1C100500DF60DDD88945C74C9CD2659D9E648A9F0000030669
:2000C0001E00FC0011241FBECFE5D2E0DEBFCDBF10E0A0E6B0E0E8E2FCE002C005900D92C3
:2000E000AE3EB107D9F721E0AEEEB0E001C01D92A633B207E1F752D595C582CFCF93DF93DF
:2001000060911301635067FDA7C080911001CCE0D0E0C81BD109C95EDE4F80910F018D32ED
:2001200009F089C0683009F095C083EC809303018AE5809361001092EF008881807619F095
:20014000CE0132D465C08A8110920C019981911106C010920D012CE031E082E055C0953060
:2001600019F48093140142C09630D1F59B81913019F48CE590E004C0923049F48EE190E04F
:20018000909312018093110190E482E126C0933009F5811109C088E590E090931201809305
:2001A000110190E484E019C0813049F482E490E0909312018093110190E486E10EC0823002
:2001C00019F480E390E0DCCF833021F4CE01C4D390E003C0CE01C0D390E49093EF0018C073
:2001E000983079F0993031F4809316012CE031E080E00AC081E09A3009F080E02CE031E0CE
:2002000003C026E131E081E030931201209311018F3F39F4988197FD8E8190E89093EF00C6
:2002200007C09F81911104C09E81981708F4892F809360000FC08091EF0087FF0BC0CE018D
:200240002ED48F3F21F48EE18093610003C0811110926000109213018091610084FF5CC0B8
:20026000809160008F3F09F457C0C82F893008F0C8E08C1B809360008091030198E889277C
:2002800080930301CC23B9F18091EF0087FF08C06C2F84E091E0DED3C82F8930B8F52BC0F7
:2002A000209111013091120186FF12C0A4E0B1E043E051E040955095420F531F8C2F8A0F16
:2002C000FA01EA0FFB1FE491ED938A13F9CF09C0E4E0F1E0D9018C2F8E0F9D9191938E1333
:2002E000FCCF2F5F3F4F8FEF8C0F280F311D30931201209311016C2F84E091E042D0CC5F31
:20030000CC3041F08FEF8093600004C08FEF80936000CEE1C093610084E196B3987131F4CB
:200320008150D9F71092140110920E01C1E08111C0E08091EE008C1739F0C11103C0F894F5
:20034000BED27894C093EE00DF91CF910895AC9A8BB780628BBF0895A82FB92F80E090E073
:2003600041E050EA609530E009C02D9182279795879510F084279527305EC8F36F5FA8F38C
:200380000895EADF8D939D930895A6E088279927AA9569F00197E1F3B399FCCFB39BFECFDF
:2003A00081E09927A6B3019611F0A871D9F70895CF93CFB7CF93C395B39BE9F7B39B0BC0BC
:2003C000B39B09C0B39B07C0B39B05C0B39B03C0B39B01C0D3C00F92DF93C0911001DD27B2
:2003E000C95EDE4F012EB39B03C0DF910F90E6CF2F930F931F934F932FEF4F6F06B303FB1A
:2004000020F95F933F9350E03BE065C016B30126502953FDC89556B3012703FB25F92F738A
:2004200006B3B1F05027102713FB26F906B22230F0F000C016B3012703FB27F9012650292E
:2004400006B22430E8F54F77206816B30000F6CF50274F7D206206B2102F000000C006B3A2
:2004600000265029102713FB26F906B2E2CF4F7B06B3206400C0DACF01265029187106B2BF
:2004800069F14E7F2160012F16B328C0002650294D7F06B22260102F29C0012650294B7F9C
:2004A00006B22460012F2DC016B301265029477F2860000006B22EC04F7E06B3206130C08F
:2004C000422706B3499300265029102706B24FEF13FB20F9297F16B379F2187159F1012655
:2004E000502906B2012703FB21F9237F06B371F2002650293150D0F006B2102713FB22F9D5
:20050000277E16B351F201265029012703FB06B223F92F7C49F2000006B3102713FB24F98F
:200520000026502906B22F7939F270CF10E21ABF002717C03B503195C31BD04010E21ABF7F
:200540000881033CF9F00B34E9F020910E011981110F1213EDCF093651F10D3211F0013E77
:2005600039F7009315013F915F914F911F910F912F91DF910F90CAB7C5FD1DCFCF91CFBFC6
:20058000CF91189520911501222369F310911301112321F5343022F13093130120930F01D6
:2005A000109110013BE0311B3093100119C00091130101309CF40AE53091610034FD11C0FC
:2005C00000936100C3E0D1E010C0052710E000C021C0052710E0C89508BB14C03AE501C056
:2005E00032ED032EC0E0D0E032E017B31861C39A08B317BB58E120E84FEF20FF052708BB8F
:20060000279517951C3F28F700004552B0F720FF0527279508BB17951C3FB8F629913A95B2
:2006200061F7077E10911401110F08BBC250D04011F010930E0110E21ABF086017B3177EDD
:20064000402F477E54E05A95F1F708BB17BB48BB8ACF84E08093F30008958091F0008823B7
:2006600021F040E060E084E003C044E060E080E0D3D081E09091F000911180E08093F00004
:20068000089508953BDDA6D008B606FE04C088B7806488BF1FBC089583E08093F300089524
:2006A0007894BB9884E08093F300089582E08093F3001092F2008AEF8093F1000895CF935C
:2006C0002091F20081E0820F8093F200263078F430E0F901E057FF4F8081F901E657FF4FA9
:2006E0006081F901EC57FF4F4081C0E004C0C1E040E060E080E090D06DD02FE983E092E07E
:20070000215080409040E1F700C000008091F100883218F088528093F100CC2399F08CD0CA
:200720008091F1009FEF980F9093F100882339F08CE190E10197F1F700C00000F1CF83E059
:200740008093F300CF91089581E08093F3000895BB9AACCF1092F30008956ED08FE080BFA4
:200760008FE18EBD2EE088E190E00FB6F894A89581BD0FBE21BD05D0EADD81E08093F3005D
:200780000895CF93DF93CDB7DEB760970FB6F894DEBF0FBECDBF40E150E066E070E0CE01DB
:2007A000019630D2FE013196A4E6B0E0CE014196219130E02D933D93E817F907C9F7609613
:2007C0000FB6F894DEBF0FBECDBFDF91CF91089582E008958091F400882339F01092F400F7
:2007E00062E070E08DE291E098C10895362FE82FF0E0CF0163E070E0EBD1DC01A35DBE4F3C
:2008000012963C93129711964C931197FD01208381E08093F400089580932F0160932E017F
:2008200040932D0191E09093F400809332016093310140933001089510922F0110922E0180
:2008400010922D0181E08093F400109232011092310110923001BECF0F931F93CF93DF932F
:20086000182FEADFC0E000E2D1E0C11719F110922F0110922E0100932D01D093F400AADF0F
:2008800081E291EA0197F1F700C0000010922F0110922E0110922D01D093F4009BDF97EB74
:2008A00022E881E0915020408040E1F700C00000CF5FDBCFDF91CF911F910F910895AF925E
:2008C000BF92CF92DF92EF92FF920F931F93CF93DF93C12C2FE7A22ECFE0D7E23CECE32E47
:2008E00036EFF32EC11002C0D12C02C090E8D92E07E010E080E4B82E80E090E08433994060
:2009000014F4DB0C01C0DB18D1BE3FDD853329E0920724F09C012453394003C09701281BF0
:20092000390B2C173D0714F4AD2CE901B694015011090115110511F7C39482E0C812D2CF04
:20094000A1BEDF91CF911F910F91FF90EF90DF90CF90BF90AF900895FC012381233051F0DC
:200960002F30A1F48CE890E0909312018093110188E30895FC018281833041F482E690E07C
:20098000909312018093110182E2089580E0089583E062DF28E088E190E00FB6F894A895EB
:2009A00081BD0FBE21BDFFCFFC0185EF90E0909312018093110181818C3FD9F128F48823E6
:2009C00049F08130A9F044C08D3F09F440C08E3FC9F03EC082818093F50083818093F6002B
:2009E00084818093F70085818093F80084E008951092FA008681893008F088E08093F9000E
:200A00008FEF0895848195818130910551F00297F9F48BEC90E0909312018093110183E2EB
:200A2000089586E990E0909312018093110185E3089584819581079759F48EE690E09093CD
:200A40003501809334018EE180933301D9CFA0DF80E008951F93CF93DF9320913301162F8E
:200A6000261708F4122FC12FD0E06091340170913501AE01BED020913401309135012C0FAA
:200A80003D1F309335012093340180913301811B80933301812FDF91CF911F910895209173
:200AA000F900261708F4622F261B2093F9003091FA00482FFC01932F981BA92FAE0F8E2F90
:200AC000841B861730F48191B0E0A550BF4F8C93F4CF630F6093FA00211107C04091FD0009
:200AE0006091FC008091FB0097DE81E09091F900911180E00895B89ABA9AC298089598E059
:200B000087FD02C0C09801C0C09AC29A880F00000000C2989150A1F70895CF92DF92EF9266
:200B2000FF920F931F93CF93DF93EC018B01E3DF80E0E5DF80E0E3DF80E0E1DF80E0DFDF3D
:200B40002296C12CD12C7801EE0CFF1CE00EF11ECE14DF0488F48FEFD2DFFE01329780812F
:200B6000CEDFFE0131978081CADF8881C8DF83E0C80ED11C2396ECCFC0E0D0E0C017D1070E
:200B800020F48FEFBCDF6096F9CFDF91CF911F910F91FF90EF90DF90CF9008951092F3003C
:200BA0008091F300823079F030F4882351F0813069F4CEDD0BC0833041F0843039F462DD7E
:200BC00005C0CBDD03C07BDD01C06ADDA895E8CF0024552704C0080E591F880F991F0097B9
:200BE00029F076956795B8F37105B9F7802D952F0895FB01DC0102C005900D924150504006
:200C0000D8F70895DC01CB01FC01E199FECF06C0FFBBEEBBE09A31960DB20D924150504092
:200C2000B8F70895F894FFCFFF5A2203000000000000000000000000000000000000000090
:200C4000000000000000000000000000100000100000000010001000001010000010040020
:200C600035001A0368747470733A2F2F736F776275672E6769746875622E696F1703687413
:200C800074703A2F2F6C6F63616C686F73743A38303030230368747470733A2F2F736F77C3
:200CA0006275672E6769746875622E696F2F7765626C69676874FFFFFFFFFFFFFFFFFFFFC4
:200CC000FFFFFFFFFFFFFFFFFFFFFFFFFFFFFFFFFFFFFFFFFFFFFFFFFFFFFFFFFFFFFFFF34
:200CE000FFFFFFFFFFFFFFFFFFFFFFFFFFFFFFFFFFFFFFFFFFFFFFFFFFFFFFFFFFFFFFFF14
:200D0000FFFFFFFFFFFFFFFFFFFFFFFFFFFFFFFFFFFFFFFFFFFFFFFFFFFFFFFFFFFFFFFFF3
:200D2000FFFFFFFFFFFFFFFFFFFFFFFFFFFFFFFFFFFFFFFFFFFFFFFFFFFFFFFFFFFFFFFFD3
:20196000FFFFFFFFFFFFFFFFFFFFFFFFFFFFFFFFFFFFFFFFFFFFFFFFFFFF5A00A3C3FFFFC3
:2019800017C0197A4005930B09021200010100803209040000000000000012011001FF00F9
:2019A0000008D01653070202000000010403090411241FBECFE5D2E0CDBFDEBF20E0A0E69F
:2019C000B0E001C01D92AC38B207E1F7BFC1A82FB92F80E090E041E050EA609530E009C05A
:2019E0002D9182279795879510F084279527305EC8F36F5FA8F30895EADF8D939D930895CC
:201A0000CF93CFB7CF93C395B39BE9F7B39B0BC0B39B09C0B39B07C0B39B05C0B39B03C08D
:201A2000B39B01C0D9C00F92DF93C0916E00DD27CA58DF4F012EB39B03C0DF910F90E6CFD4
:201A40002F930F931F934F932FEF4F6F06B303FB20F95F933F9350E03BE065C016B30126BE
:201A6000502953FDC89556B3012703FB25F92F7306B3B1F05027102713FB26F906B2223012
:201A8000F0F000C016B3012703FB27F90126502906B22430E8F54F77206816B30000F6CF32
:201AA00050274F7D206206B2102F000000C006B300265029102713FB26F906B2E2CF4F7BBB
:201AC00006B3206400C0DACF01265029187106B269F14E7F2160012F16B328C00026502957
:201AE0004D7F06B22260102F29C0012650294B7F06B22460012F2DC016B301265029477FC6
:201B00002860000006B22EC04F7E06B3206130C0422706B3499300265029102706B24FEFD6
:201B200013FB20F9297F16B379F2187159F10126502906B2012703FB21F9237F06B371F279
:201B4000002650293150D0F006B2102713FB22F9277E16B351F201265029012703FB06B25E
:201B600023F92F7C49F2000006B3102713FB24F90026502906B22F7939F270CF10E21ABF14
:201B800000271DC03B503195C31BD04010E21ABF0881033C29F10B3419F120916C00198155
:201BA000110F1213EDCF093651F10D3211F0013E39F7CAE01AB715FD02C0CA95D9F70093E3
:201BC00074003F915F914F911F910F912F91DF910F90CAB7C5FD17CFCF91CFBFCF910895BE
:201BE00020917400222369F3109172001123F1F43430F2F03093720020936D0019C00091EE
:201C0000720001309CF40AE530916F0034FD11C000936F00C1E6D0E010C0052710E000C06B
:201C200021C0052710E0C89508BB14C03AE501C032ED032EC0E0D0E032E017B31861C39A81
:201C400008B317BB58E120E84FEF20FF052708BB279517951C3F28F700004552B0F720FF2B
:201C60000527279508BB17951C3FB8F629913A9561F7077E10917300110F08BBC250D04085
:201C800011F010936C0010E21ABF086017B3177E402F477E54E05A95F1F708BB17BB48BBCB
:201CA00090CF2FEFB0E8A0E04AE0B1BF000081EE9CE0B399FECFB39BFECF0197B399FDCF26
:201CC00097FF03C0BA1B819501C0BA0FA69539F4A0E428F4281710F031B7282FA1E041509E
:201CE00021F731BF00000895F201309741F02AE7421629E1520629F481B790E002C08FEB88
:201D00009CEC21E00C0120935700E8951124CF0102962C01089514BE88E181BD87E081BD21
:201D2000BB9A2FE28BE19FE0215080409040E1F700C00000BB988AE580936F008FEF8093E4
:201D40006000AC9A8BB780628BBF0895EAE7F9E1E491EF3F11F0E1BF000084B78A7031F489
:201D6000EDE7F9E1E491EF3F09F02DC1D4DF712C312C412C512C14E6CCE7D5E186B38871FF
:201D800009F014E6115029F41092730010926C0088DF0AB605FE05C033DE80E28ABF712C67
:201DA00003C02197209751F7A89522E032120CC0E0E8F9E1E054F10983E080935700E89540
:201DC0003097C1F7412C512C832D803459F4F2013297E03889E1F80750F485E08093570099
:201DE000E89505C0843019F4CD2B11F4E9C0312C80917200835087FD98C090916D009D324E
:201E000009F091C0883009F08EC083EC809361008AE580936F00909177009076809178007E
:201E2000992361F1811108C082E899E1909371008093700026E06CC0813059F44114510465
:201E400009F44CC080917B00807C482E50907C0045C0833081F48091790090917A0044DFAA
:201E600080917B0090917C003FDF842D8F73B1F580E4382E33C08F73382E30C09091790013
:201E800010926A00811106C010926B008AE690E022E03AC0853019F49093730027C0863000
:201EA000F9F480917A00813019F48AE999E104C0823041F488E899E1909371008093700053
:201EC00022E126C0833051F4911108C08CEA99E1909371008093700024E01AC020E018C0FA
:201EE000883079F0893031F4909375008AE690E020E00AC021E08A3009F020E08AE690E00D
:201F000003C085E790E021E0909371008093700080917E00811105C080917D00821708F401
:201F2000282F209360001092720080916F0084FF31C0809160008F3F69F1C82F893008F0EE
:201F4000C8E08C1B809360008091610098E8892780936100CC2391F0E0917000F091710066
:201F600082E690E0DC0124912D9331962C2F280F2A13F9CFF0937100E09370006C2F82E6FF
:201F800090E03ADDCC5FCC3019F08FEF80936000C0936F00C30101963C01803B944029F493
:201FA000EDE7F9E1E491EF3F59F40AB605FEE3CE8DE1B39B8DE18150E1F780E28ABFDBCEE8
:0A1FC000AADE1BBE15BADACCFFCF73
:00000001FF
